{"abi":[{"inputs":[],"stateMutability":"nonpayable","type":"constructor"},{"inputs":[{"internalType":"string","name":"_name","type":"string"},{"internalType":"uint8","name":"_level","type":"uint8"},{"internalType":"uint8","name":"_electionType","type":"uint8"},{"internalType":"address payable","name":"_address","type":"address"}],"name":"createElection","outputs":[],"stateMutability":"nonpayable","type":"function"},{"inputs":[{"internalType":"uint256","name":"","type":"uint256"}],"name":"deployedElections","outputs":[{"internalType":"contract VotingSystem","name":"","type":"address"}],"stateMutability":"view","type":"function"},{"inputs":[],"name":"getDeployedElections","outputs":[{"internalType":"contract VotingSystem[]","name":"","type":"address[]"}],"stateMutability":"view","type":"function"}],"devdoc":{"kind":"dev","methods":{},"version":1},"evm":{"assembly":"    /* \"VotingSystem.sol\":74:595  contract VotingFactory{... */\n  mstore(0x40, 0x80)\n    /* \"VotingSystem.sol\":174:197  constructor(){... */\n  callvalue\n  dup1\n  iszero\n  tag_1\n  jumpi\n  0x00\n  dup1\n  revert\ntag_1:\n  pop\n    /* \"VotingSystem.sol\":74:595  contract VotingFactory{... */\n  dataSize(sub_0)\n  dup1\n  dataOffset(sub_0)\n  0x00\n  codecopy\n  0x00\n  return\nstop\n\nsub_0: assembly {\n        /* \"VotingSystem.sol\":74:595  contract VotingFactory{... */\n      mstore(0x40, 0x80)\n      callvalue\n      dup1\n      iszero\n      tag_1\n      jumpi\n      0x00\n      dup1\n      revert\n    tag_1:\n      pop\n      jumpi(tag_2, lt(calldatasize, 0x04))\n      shr(0xe0, calldataload(0x00))\n      dup1\n      0x3101b0a8\n      eq\n      tag_3\n      jumpi\n      dup1\n      0xca306594\n      eq\n      tag_4\n      jumpi\n      dup1\n      0xf18b4f8e\n      eq\n      tag_5\n      jumpi\n    tag_2:\n      0x00\n      dup1\n      revert\n        /* \"VotingSystem.sol\":203:460  function createElection(string memory _name, uint8 _level, uint8 _electionType,address payable _address) public {... */\n    tag_3:\n      tag_6\n      0x04\n      dup1\n      calldatasize\n      sub\n      dup2\n      add\n      swap1\n      tag_7\n      swap2\n      swap1\n      tag_8\n      jump\t// in\n    tag_7:\n      tag_9\n      jump\t// in\n    tag_6:\n      stop\n        /* \"VotingSystem.sol\":468:586  function getDeployedElections() public view returns (VotingSystem[] memory){... */\n    tag_4:\n      tag_10\n      tag_11\n      jump\t// in\n    tag_10:\n      mload(0x40)\n      tag_12\n      swap2\n      swap1\n      tag_13\n      jump\t// in\n    tag_12:\n      mload(0x40)\n      dup1\n      swap2\n      sub\n      swap1\n      return\n        /* \"VotingSystem.sol\":128:167  VotingSystem[] public deployedElections */\n    tag_5:\n      tag_14\n      0x04\n      dup1\n      calldatasize\n      sub\n      dup2\n      add\n      swap1\n      tag_15\n      swap2\n      swap1\n      tag_16\n      jump\t// in\n    tag_15:\n      tag_17\n      jump\t// in\n    tag_14:\n      mload(0x40)\n      tag_18\n      swap2\n      swap1\n      tag_19\n      jump\t// in\n    tag_18:\n      mload(0x40)\n      dup1\n      swap2\n      sub\n      swap1\n      return\n        /* \"VotingSystem.sol\":203:460  function createElection(string memory _name, uint8 _level, uint8 _electionType,address payable _address) public {... */\n    tag_9:\n        /* \"VotingSystem.sol\":326:350  VotingSystem newElection */\n      0x00\n        /* \"VotingSystem.sol\":370:375  _name */\n      dup5\n        /* \"VotingSystem.sol\":376:382  _level */\n      dup5\n        /* \"VotingSystem.sol\":383:396  _electionType */\n      dup5\n        /* \"VotingSystem.sol\":397:405  _address */\n      dup5\n        /* \"VotingSystem.sol\":353:406  new VotingSystem(_name,_level,_electionType,_address) */\n      mload(0x40)\n      tag_21\n      swap1\n      tag_22\n      jump\t// in\n    tag_21:\n      tag_23\n      swap5\n      swap4\n      swap3\n      swap2\n      swap1\n      tag_24\n      jump\t// in\n    tag_23:\n      mload(0x40)\n      dup1\n      swap2\n      sub\n      swap1\n      0x00\n      create\n      dup1\n      iszero\n      dup1\n      iszero\n      tag_25\n      jumpi\n      returndatasize\n      0x00\n      dup1\n      returndatacopy\n      revert(0x00, returndatasize)\n    tag_25:\n      pop\n        /* \"VotingSystem.sol\":326:406  VotingSystem newElection = new VotingSystem(_name,_level,_electionType,_address) */\n      swap1\n      pop\n        /* \"VotingSystem.sol\":417:434  deployedElections */\n      0x00\n        /* \"VotingSystem.sol\":440:451  newElection */\n      dup2\n        /* \"VotingSystem.sol\":417:452  deployedElections.push(newElection) */\n      swap1\n      dup1\n      0x01\n      dup2\n      sload\n      add\n      dup1\n      dup3\n      sstore\n      dup1\n      swap2\n      pop\n      pop\n      0x01\n      swap1\n      sub\n      swap1\n      0x00\n      mstore\n      keccak256(0x00, 0x20)\n      add\n      0x00\n      swap1\n      swap2\n      swap1\n      swap2\n      swap1\n      swap2\n      0x0100\n      exp\n      dup2\n      sload\n      dup2\n      0xffffffffffffffffffffffffffffffffffffffff\n      mul\n      not\n      and\n      swap1\n      dup4\n      0xffffffffffffffffffffffffffffffffffffffff\n      and\n      mul\n      or\n      swap1\n      sstore\n      pop\n        /* \"VotingSystem.sol\":315:460  {... */\n      pop\n        /* \"VotingSystem.sol\":203:460  function createElection(string memory _name, uint8 _level, uint8 _electionType,address payable _address) public {... */\n      pop\n      pop\n      pop\n      pop\n      jump\t// out\n        /* \"VotingSystem.sol\":468:586  function getDeployedElections() public view returns (VotingSystem[] memory){... */\n    tag_11:\n        /* \"VotingSystem.sol\":521:542  VotingSystem[] memory */\n      0x60\n        /* \"VotingSystem.sol\":561:578  deployedElections */\n      0x00\n        /* \"VotingSystem.sol\":554:578  return deployedElections */\n      dup1\n      sload\n      dup1\n      0x20\n      mul\n      0x20\n      add\n      mload(0x40)\n      swap1\n      dup2\n      add\n      0x40\n      mstore\n      dup1\n      swap3\n      swap2\n      swap1\n      dup2\n      dup2\n      mstore\n      0x20\n      add\n      dup3\n      dup1\n      sload\n      dup1\n      iszero\n      tag_28\n      jumpi\n      0x20\n      mul\n      dup3\n      add\n      swap2\n      swap1\n      0x00\n      mstore\n      keccak256(0x00, 0x20)\n      swap1\n    tag_29:\n      dup2\n      0x00\n      swap1\n      sload\n      swap1\n      0x0100\n      exp\n      swap1\n      div\n      0xffffffffffffffffffffffffffffffffffffffff\n      and\n      0xffffffffffffffffffffffffffffffffffffffff\n      and\n      dup2\n      mstore\n      0x20\n      add\n      swap1\n      0x01\n      add\n      swap1\n      dup1\n      dup4\n      gt\n      tag_29\n      jumpi\n    tag_28:\n      pop\n      pop\n      pop\n      pop\n      pop\n      swap1\n      pop\n        /* \"VotingSystem.sol\":468:586  function getDeployedElections() public view returns (VotingSystem[] memory){... */\n      swap1\n      jump\t// out\n        /* \"VotingSystem.sol\":128:167  VotingSystem[] public deployedElections */\n    tag_17:\n      0x00\n      dup2\n      dup2\n      sload\n      dup2\n      lt\n      tag_30\n      jumpi\n      0x00\n      dup1\n      revert\n    tag_30:\n      swap1\n      0x00\n      mstore\n      keccak256(0x00, 0x20)\n      add\n      0x00\n      swap2\n      pop\n      sload\n      swap1\n      0x0100\n      exp\n      swap1\n      div\n      0xffffffffffffffffffffffffffffffffffffffff\n      and\n      dup2\n      jump\t// out\n    tag_22:\n      dataSize(sub_0)\n      dup1\n      dataOffset(sub_0)\n      dup4\n      codecopy\n      add\n      swap1\n      jump\t// out\n        /* \"#utility.yul\":7:82   */\n    tag_32:\n        /* \"#utility.yul\":40:46   */\n      0x00\n        /* \"#utility.yul\":73:75   */\n      0x40\n        /* \"#utility.yul\":67:76   */\n      mload\n        /* \"#utility.yul\":57:76   */\n      swap1\n      pop\n        /* \"#utility.yul\":7:82   */\n      swap1\n      jump\t// out\n        /* \"#utility.yul\":88:205   */\n    tag_33:\n        /* \"#utility.yul\":197:198   */\n      0x00\n        /* \"#utility.yul\":194:195   */\n      dup1\n        /* \"#utility.yul\":187:199   */\n      revert\n        /* \"#utility.yul\":211:328   */\n    tag_34:\n        /* \"#utility.yul\":320:321   */\n      0x00\n        /* \"#utility.yul\":317:318   */\n      dup1\n        /* \"#utility.yul\":310:322   */\n      revert\n        /* \"#utility.yul\":334:451   */\n    tag_35:\n        /* \"#utility.yul\":443:444   */\n      0x00\n        /* \"#utility.yul\":440:441   */\n      dup1\n        /* \"#utility.yul\":433:445   */\n      revert\n        /* \"#utility.yul\":457:574   */\n    tag_36:\n        /* \"#utility.yul\":566:567   */\n      0x00\n        /* \"#utility.yul\":563:564   */\n      dup1\n        /* \"#utility.yul\":556:568   */\n      revert\n        /* \"#utility.yul\":580:682   */\n    tag_37:\n        /* \"#utility.yul\":621:627   */\n      0x00\n        /* \"#utility.yul\":672:674   */\n      0x1f\n        /* \"#utility.yul\":668:675   */\n      not\n        /* \"#utility.yul\":663:665   */\n      0x1f\n        /* \"#utility.yul\":656:661   */\n      dup4\n        /* \"#utility.yul\":652:666   */\n      add\n        /* \"#utility.yul\":648:676   */\n      and\n        /* \"#utility.yul\":638:676   */\n      swap1\n      pop\n        /* \"#utility.yul\":580:682   */\n      swap2\n      swap1\n      pop\n      jump\t// out\n        /* \"#utility.yul\":688:868   */\n    tag_38:\n        /* \"#utility.yul\":736:813   */\n      0x4e487b7100000000000000000000000000000000000000000000000000000000\n        /* \"#utility.yul\":733:734   */\n      0x00\n        /* \"#utility.yul\":726:814   */\n      mstore\n        /* \"#utility.yul\":833:837   */\n      0x41\n        /* \"#utility.yul\":830:831   */\n      0x04\n        /* \"#utility.yul\":823:838   */\n      mstore\n        /* \"#utility.yul\":857:861   */\n      0x24\n        /* \"#utility.yul\":854:855   */\n      0x00\n        /* \"#utility.yul\":847:862   */\n      revert\n        /* \"#utility.yul\":874:1155   */\n    tag_39:\n        /* \"#utility.yul\":957:984   */\n      tag_82\n        /* \"#utility.yul\":979:983   */\n      dup3\n        /* \"#utility.yul\":957:984   */\n      tag_37\n      jump\t// in\n    tag_82:\n        /* \"#utility.yul\":949:955   */\n      dup2\n        /* \"#utility.yul\":945:985   */\n      add\n        /* \"#utility.yul\":1087:1093   */\n      dup2\n        /* \"#utility.yul\":1075:1085   */\n      dup2\n        /* \"#utility.yul\":1072:1094   */\n      lt\n        /* \"#utility.yul\":1051:1069   */\n      0xffffffffffffffff\n        /* \"#utility.yul\":1039:1049   */\n      dup3\n        /* \"#utility.yul\":1036:1070   */\n      gt\n        /* \"#utility.yul\":1033:1095   */\n      or\n        /* \"#utility.yul\":1030:1118   */\n      iszero\n      tag_83\n      jumpi\n        /* \"#utility.yul\":1098:1116   */\n      tag_84\n      tag_38\n      jump\t// in\n    tag_84:\n        /* \"#utility.yul\":1030:1118   */\n    tag_83:\n        /* \"#utility.yul\":1138:1148   */\n      dup1\n        /* \"#utility.yul\":1134:1136   */\n      0x40\n        /* \"#utility.yul\":1127:1149   */\n      mstore\n        /* \"#utility.yul\":917:1155   */\n      pop\n        /* \"#utility.yul\":874:1155   */\n      pop\n      pop\n      jump\t// out\n        /* \"#utility.yul\":1161:1290   */\n    tag_40:\n        /* \"#utility.yul\":1195:1201   */\n      0x00\n        /* \"#utility.yul\":1222:1242   */\n      tag_86\n      tag_32\n      jump\t// in\n    tag_86:\n        /* \"#utility.yul\":1212:1242   */\n      swap1\n      pop\n        /* \"#utility.yul\":1251:1284   */\n      tag_87\n        /* \"#utility.yul\":1279:1283   */\n      dup3\n        /* \"#utility.yul\":1271:1277   */\n      dup3\n        /* \"#utility.yul\":1251:1284   */\n      tag_39\n      jump\t// in\n    tag_87:\n        /* \"#utility.yul\":1161:1290   */\n      swap2\n      swap1\n      pop\n      jump\t// out\n        /* \"#utility.yul\":1296:1604   */\n    tag_41:\n        /* \"#utility.yul\":1358:1362   */\n      0x00\n        /* \"#utility.yul\":1448:1466   */\n      0xffffffffffffffff\n        /* \"#utility.yul\":1440:1446   */\n      dup3\n        /* \"#utility.yul\":1437:1467   */\n      gt\n        /* \"#utility.yul\":1434:1490   */\n      iszero\n      tag_89\n      jumpi\n        /* \"#utility.yul\":1470:1488   */\n      tag_90\n      tag_38\n      jump\t// in\n    tag_90:\n        /* \"#utility.yul\":1434:1490   */\n    tag_89:\n        /* \"#utility.yul\":1508:1537   */\n      tag_91\n        /* \"#utility.yul\":1530:1536   */\n      dup3\n        /* \"#utility.yul\":1508:1537   */\n      tag_37\n      jump\t// in\n    tag_91:\n        /* \"#utility.yul\":1500:1537   */\n      swap1\n      pop\n        /* \"#utility.yul\":1592:1596   */\n      0x20\n        /* \"#utility.yul\":1586:1590   */\n      dup2\n        /* \"#utility.yul\":1582:1597   */\n      add\n        /* \"#utility.yul\":1574:1597   */\n      swap1\n      pop\n        /* \"#utility.yul\":1296:1604   */\n      swap2\n      swap1\n      pop\n      jump\t// out\n        /* \"#utility.yul\":1610:1764   */\n    tag_42:\n        /* \"#utility.yul\":1694:1700   */\n      dup3\n        /* \"#utility.yul\":1689:1692   */\n      dup2\n        /* \"#utility.yul\":1684:1687   */\n      dup4\n        /* \"#utility.yul\":1671:1701   */\n      calldatacopy\n        /* \"#utility.yul\":1756:1757   */\n      0x00\n        /* \"#utility.yul\":1747:1753   */\n      dup4\n        /* \"#utility.yul\":1742:1745   */\n      dup4\n        /* \"#utility.yul\":1738:1754   */\n      add\n        /* \"#utility.yul\":1731:1758   */\n      mstore\n        /* \"#utility.yul\":1610:1764   */\n      pop\n      pop\n      pop\n      jump\t// out\n        /* \"#utility.yul\":1770:2182   */\n    tag_43:\n        /* \"#utility.yul\":1848:1853   */\n      0x00\n        /* \"#utility.yul\":1873:1939   */\n      tag_94\n        /* \"#utility.yul\":1889:1938   */\n      tag_95\n        /* \"#utility.yul\":1931:1937   */\n      dup5\n        /* \"#utility.yul\":1889:1938   */\n      tag_41\n      jump\t// in\n    tag_95:\n        /* \"#utility.yul\":1873:1939   */\n      tag_40\n      jump\t// in\n    tag_94:\n        /* \"#utility.yul\":1864:1939   */\n      swap1\n      pop\n        /* \"#utility.yul\":1962:1968   */\n      dup3\n        /* \"#utility.yul\":1955:1960   */\n      dup2\n        /* \"#utility.yul\":1948:1969   */\n      mstore\n        /* \"#utility.yul\":2000:2004   */\n      0x20\n        /* \"#utility.yul\":1993:1998   */\n      dup2\n        /* \"#utility.yul\":1989:2005   */\n      add\n        /* \"#utility.yul\":2038:2041   */\n      dup5\n        /* \"#utility.yul\":2029:2035   */\n      dup5\n        /* \"#utility.yul\":2024:2027   */\n      dup5\n        /* \"#utility.yul\":2020:2036   */\n      add\n        /* \"#utility.yul\":2017:2042   */\n      gt\n        /* \"#utility.yul\":2014:2126   */\n      iszero\n      tag_96\n      jumpi\n        /* \"#utility.yul\":2045:2124   */\n      tag_97\n      tag_36\n      jump\t// in\n    tag_97:\n        /* \"#utility.yul\":2014:2126   */\n    tag_96:\n        /* \"#utility.yul\":2135:2176   */\n      tag_98\n        /* \"#utility.yul\":2169:2175   */\n      dup5\n        /* \"#utility.yul\":2164:2167   */\n      dup3\n        /* \"#utility.yul\":2159:2162   */\n      dup6\n        /* \"#utility.yul\":2135:2176   */\n      tag_42\n      jump\t// in\n    tag_98:\n        /* \"#utility.yul\":1854:2182   */\n      pop\n        /* \"#utility.yul\":1770:2182   */\n      swap4\n      swap3\n      pop\n      pop\n      pop\n      jump\t// out\n        /* \"#utility.yul\":2202:2542   */\n    tag_44:\n        /* \"#utility.yul\":2258:2263   */\n      0x00\n        /* \"#utility.yul\":2307:2310   */\n      dup3\n        /* \"#utility.yul\":2300:2304   */\n      0x1f\n        /* \"#utility.yul\":2292:2298   */\n      dup4\n        /* \"#utility.yul\":2288:2305   */\n      add\n        /* \"#utility.yul\":2284:2311   */\n      slt\n        /* \"#utility.yul\":2274:2396   */\n      tag_100\n      jumpi\n        /* \"#utility.yul\":2315:2394   */\n      tag_101\n      tag_35\n      jump\t// in\n    tag_101:\n        /* \"#utility.yul\":2274:2396   */\n    tag_100:\n        /* \"#utility.yul\":2432:2438   */\n      dup2\n        /* \"#utility.yul\":2419:2439   */\n      calldataload\n        /* \"#utility.yul\":2457:2536   */\n      tag_102\n        /* \"#utility.yul\":2532:2535   */\n      dup5\n        /* \"#utility.yul\":2524:2530   */\n      dup3\n        /* \"#utility.yul\":2517:2521   */\n      0x20\n        /* \"#utility.yul\":2509:2515   */\n      dup7\n        /* \"#utility.yul\":2505:2522   */\n      add\n        /* \"#utility.yul\":2457:2536   */\n      tag_43\n      jump\t// in\n    tag_102:\n        /* \"#utility.yul\":2448:2536   */\n      swap2\n      pop\n        /* \"#utility.yul\":2264:2542   */\n      pop\n        /* \"#utility.yul\":2202:2542   */\n      swap3\n      swap2\n      pop\n      pop\n      jump\t// out\n        /* \"#utility.yul\":2548:2634   */\n    tag_45:\n        /* \"#utility.yul\":2583:2590   */\n      0x00\n        /* \"#utility.yul\":2623:2627   */\n      0xff\n        /* \"#utility.yul\":2616:2621   */\n      dup3\n        /* \"#utility.yul\":2612:2628   */\n      and\n        /* \"#utility.yul\":2601:2628   */\n      swap1\n      pop\n        /* \"#utility.yul\":2548:2634   */\n      swap2\n      swap1\n      pop\n      jump\t// out\n        /* \"#utility.yul\":2640:2758   */\n    tag_46:\n        /* \"#utility.yul\":2711:2733   */\n      tag_105\n        /* \"#utility.yul\":2727:2732   */\n      dup2\n        /* \"#utility.yul\":2711:2733   */\n      tag_45\n      jump\t// in\n    tag_105:\n        /* \"#utility.yul\":2704:2709   */\n      dup2\n        /* \"#utility.yul\":2701:2734   */\n      eq\n        /* \"#utility.yul\":2691:2752   */\n      tag_106\n      jumpi\n        /* \"#utility.yul\":2748:2749   */\n      0x00\n        /* \"#utility.yul\":2745:2746   */\n      dup1\n        /* \"#utility.yul\":2738:2750   */\n      revert\n        /* \"#utility.yul\":2691:2752   */\n    tag_106:\n        /* \"#utility.yul\":2640:2758   */\n      pop\n      jump\t// out\n        /* \"#utility.yul\":2764:2899   */\n    tag_47:\n        /* \"#utility.yul\":2808:2813   */\n      0x00\n        /* \"#utility.yul\":2846:2852   */\n      dup2\n        /* \"#utility.yul\":2833:2853   */\n      calldataload\n        /* \"#utility.yul\":2824:2853   */\n      swap1\n      pop\n        /* \"#utility.yul\":2862:2893   */\n      tag_108\n        /* \"#utility.yul\":2887:2892   */\n      dup2\n        /* \"#utility.yul\":2862:2893   */\n      tag_46\n      jump\t// in\n    tag_108:\n        /* \"#utility.yul\":2764:2899   */\n      swap3\n      swap2\n      pop\n      pop\n      jump\t// out\n        /* \"#utility.yul\":2905:3031   */\n    tag_48:\n        /* \"#utility.yul\":2942:2949   */\n      0x00\n        /* \"#utility.yul\":2982:3024   */\n      0xffffffffffffffffffffffffffffffffffffffff\n        /* \"#utility.yul\":2975:2980   */\n      dup3\n        /* \"#utility.yul\":2971:3025   */\n      and\n        /* \"#utility.yul\":2960:3025   */\n      swap1\n      pop\n        /* \"#utility.yul\":2905:3031   */\n      swap2\n      swap1\n      pop\n      jump\t// out\n        /* \"#utility.yul\":3037:3141   */\n    tag_49:\n        /* \"#utility.yul\":3082:3089   */\n      0x00\n        /* \"#utility.yul\":3111:3135   */\n      tag_111\n        /* \"#utility.yul\":3129:3134   */\n      dup3\n        /* \"#utility.yul\":3111:3135   */\n      tag_48\n      jump\t// in\n    tag_111:\n        /* \"#utility.yul\":3100:3135   */\n      swap1\n      pop\n        /* \"#utility.yul\":3037:3141   */\n      swap2\n      swap1\n      pop\n      jump\t// out\n        /* \"#utility.yul\":3147:3285   */\n    tag_50:\n        /* \"#utility.yul\":3228:3260   */\n      tag_113\n        /* \"#utility.yul\":3254:3259   */\n      dup2\n        /* \"#utility.yul\":3228:3260   */\n      tag_49\n      jump\t// in\n    tag_113:\n        /* \"#utility.yul\":3221:3226   */\n      dup2\n        /* \"#utility.yul\":3218:3261   */\n      eq\n        /* \"#utility.yul\":3208:3279   */\n      tag_114\n      jumpi\n        /* \"#utility.yul\":3275:3276   */\n      0x00\n        /* \"#utility.yul\":3272:3273   */\n      dup1\n        /* \"#utility.yul\":3265:3277   */\n      revert\n        /* \"#utility.yul\":3208:3279   */\n    tag_114:\n        /* \"#utility.yul\":3147:3285   */\n      pop\n      jump\t// out\n        /* \"#utility.yul\":3291:3446   */\n    tag_51:\n        /* \"#utility.yul\":3345:3350   */\n      0x00\n        /* \"#utility.yul\":3383:3389   */\n      dup2\n        /* \"#utility.yul\":3370:3390   */\n      calldataload\n        /* \"#utility.yul\":3361:3390   */\n      swap1\n      pop\n        /* \"#utility.yul\":3399:3440   */\n      tag_116\n        /* \"#utility.yul\":3434:3439   */\n      dup2\n        /* \"#utility.yul\":3399:3440   */\n      tag_50\n      jump\t// in\n    tag_116:\n        /* \"#utility.yul\":3291:3446   */\n      swap3\n      swap2\n      pop\n      pop\n      jump\t// out\n        /* \"#utility.yul\":3452:4405   */\n    tag_8:\n        /* \"#utility.yul\":3552:3558   */\n      0x00\n        /* \"#utility.yul\":3560:3566   */\n      dup1\n        /* \"#utility.yul\":3568:3574   */\n      0x00\n        /* \"#utility.yul\":3576:3582   */\n      dup1\n        /* \"#utility.yul\":3625:3628   */\n      0x80\n        /* \"#utility.yul\":3613:3622   */\n      dup6\n        /* \"#utility.yul\":3604:3611   */\n      dup8\n        /* \"#utility.yul\":3600:3623   */\n      sub\n        /* \"#utility.yul\":3596:3629   */\n      slt\n        /* \"#utility.yul\":3593:3713   */\n      iszero\n      tag_118\n      jumpi\n        /* \"#utility.yul\":3632:3711   */\n      tag_119\n      tag_33\n      jump\t// in\n    tag_119:\n        /* \"#utility.yul\":3593:3713   */\n    tag_118:\n        /* \"#utility.yul\":3780:3781   */\n      0x00\n        /* \"#utility.yul\":3769:3778   */\n      dup6\n        /* \"#utility.yul\":3765:3782   */\n      add\n        /* \"#utility.yul\":3752:3783   */\n      calldataload\n        /* \"#utility.yul\":3810:3828   */\n      0xffffffffffffffff\n        /* \"#utility.yul\":3802:3808   */\n      dup2\n        /* \"#utility.yul\":3799:3829   */\n      gt\n        /* \"#utility.yul\":3796:3913   */\n      iszero\n      tag_120\n      jumpi\n        /* \"#utility.yul\":3832:3911   */\n      tag_121\n      tag_34\n      jump\t// in\n    tag_121:\n        /* \"#utility.yul\":3796:3913   */\n    tag_120:\n        /* \"#utility.yul\":3937:4000   */\n      tag_122\n        /* \"#utility.yul\":3992:3999   */\n      dup8\n        /* \"#utility.yul\":3983:3989   */\n      dup3\n        /* \"#utility.yul\":3972:3981   */\n      dup9\n        /* \"#utility.yul\":3968:3990   */\n      add\n        /* \"#utility.yul\":3937:4000   */\n      tag_44\n      jump\t// in\n    tag_122:\n        /* \"#utility.yul\":3927:4000   */\n      swap5\n      pop\n        /* \"#utility.yul\":3723:4010   */\n      pop\n        /* \"#utility.yul\":4049:4051   */\n      0x20\n        /* \"#utility.yul\":4075:4126   */\n      tag_123\n        /* \"#utility.yul\":4118:4125   */\n      dup8\n        /* \"#utility.yul\":4109:4115   */\n      dup3\n        /* \"#utility.yul\":4098:4107   */\n      dup9\n        /* \"#utility.yul\":4094:4116   */\n      add\n        /* \"#utility.yul\":4075:4126   */\n      tag_47\n      jump\t// in\n    tag_123:\n        /* \"#utility.yul\":4065:4126   */\n      swap4\n      pop\n        /* \"#utility.yul\":4020:4136   */\n      pop\n        /* \"#utility.yul\":4175:4177   */\n      0x40\n        /* \"#utility.yul\":4201:4252   */\n      tag_124\n        /* \"#utility.yul\":4244:4251   */\n      dup8\n        /* \"#utility.yul\":4235:4241   */\n      dup3\n        /* \"#utility.yul\":4224:4233   */\n      dup9\n        /* \"#utility.yul\":4220:4242   */\n      add\n        /* \"#utility.yul\":4201:4252   */\n      tag_47\n      jump\t// in\n    tag_124:\n        /* \"#utility.yul\":4191:4252   */\n      swap3\n      pop\n        /* \"#utility.yul\":4146:4262   */\n      pop\n        /* \"#utility.yul\":4301:4303   */\n      0x60\n        /* \"#utility.yul\":4327:4388   */\n      tag_125\n        /* \"#utility.yul\":4380:4387   */\n      dup8\n        /* \"#utility.yul\":4371:4377   */\n      dup3\n        /* \"#utility.yul\":4360:4369   */\n      dup9\n        /* \"#utility.yul\":4356:4378   */\n      add\n        /* \"#utility.yul\":4327:4388   */\n      tag_51\n      jump\t// in\n    tag_125:\n        /* \"#utility.yul\":4317:4388   */\n      swap2\n      pop\n        /* \"#utility.yul\":4272:4398   */\n      pop\n        /* \"#utility.yul\":3452:4405   */\n      swap3\n      swap6\n      swap2\n      swap5\n      pop\n      swap3\n      pop\n      jump\t// out\n        /* \"#utility.yul\":4411:4545   */\n    tag_52:\n        /* \"#utility.yul\":4498:4504   */\n      0x00\n        /* \"#utility.yul\":4532:4537   */\n      dup2\n        /* \"#utility.yul\":4526:4538   */\n      mload\n        /* \"#utility.yul\":4516:4538   */\n      swap1\n      pop\n        /* \"#utility.yul\":4411:4545   */\n      swap2\n      swap1\n      pop\n      jump\t// out\n        /* \"#utility.yul\":4551:4735   */\n    tag_53:\n        /* \"#utility.yul\":4650:4661   */\n      0x00\n        /* \"#utility.yul\":4684:4690   */\n      dup3\n        /* \"#utility.yul\":4679:4682   */\n      dup3\n        /* \"#utility.yul\":4672:4691   */\n      mstore\n        /* \"#utility.yul\":4724:4728   */\n      0x20\n        /* \"#utility.yul\":4719:4722   */\n      dup3\n        /* \"#utility.yul\":4715:4729   */\n      add\n        /* \"#utility.yul\":4700:4729   */\n      swap1\n      pop\n        /* \"#utility.yul\":4551:4735   */\n      swap3\n      swap2\n      pop\n      pop\n      jump\t// out\n        /* \"#utility.yul\":4741:4893   */\n    tag_54:\n        /* \"#utility.yul\":4828:4832   */\n      0x00\n        /* \"#utility.yul\":4851:4854   */\n      dup2\n        /* \"#utility.yul\":4843:4854   */\n      swap1\n      pop\n        /* \"#utility.yul\":4881:4885   */\n      0x20\n        /* \"#utility.yul\":4876:4879   */\n      dup3\n        /* \"#utility.yul\":4872:4886   */\n      add\n        /* \"#utility.yul\":4864:4886   */\n      swap1\n      pop\n        /* \"#utility.yul\":4741:4893   */\n      swap2\n      swap1\n      pop\n      jump\t// out\n        /* \"#utility.yul\":4899:4959   */\n    tag_55:\n        /* \"#utility.yul\":4927:4930   */\n      0x00\n        /* \"#utility.yul\":4948:4953   */\n      dup2\n        /* \"#utility.yul\":4941:4953   */\n      swap1\n      pop\n        /* \"#utility.yul\":4899:4959   */\n      swap2\n      swap1\n      pop\n      jump\t// out\n        /* \"#utility.yul\":4965:5107   */\n    tag_56:\n        /* \"#utility.yul\":5015:5024   */\n      0x00\n        /* \"#utility.yul\":5048:5101   */\n      tag_131\n        /* \"#utility.yul\":5066:5100   */\n      tag_132\n        /* \"#utility.yul\":5075:5099   */\n      tag_133\n        /* \"#utility.yul\":5093:5098   */\n      dup5\n        /* \"#utility.yul\":5075:5099   */\n      tag_48\n      jump\t// in\n    tag_133:\n        /* \"#utility.yul\":5066:5100   */\n      tag_55\n      jump\t// in\n    tag_132:\n        /* \"#utility.yul\":5048:5101   */\n      tag_48\n      jump\t// in\n    tag_131:\n        /* \"#utility.yul\":5035:5101   */\n      swap1\n      pop\n        /* \"#utility.yul\":4965:5107   */\n      swap2\n      swap1\n      pop\n      jump\t// out\n        /* \"#utility.yul\":5113:5239   */\n    tag_57:\n        /* \"#utility.yul\":5163:5172   */\n      0x00\n        /* \"#utility.yul\":5196:5233   */\n      tag_135\n        /* \"#utility.yul\":5227:5232   */\n      dup3\n        /* \"#utility.yul\":5196:5233   */\n      tag_56\n      jump\t// in\n    tag_135:\n        /* \"#utility.yul\":5183:5233   */\n      swap1\n      pop\n        /* \"#utility.yul\":5113:5239   */\n      swap2\n      swap1\n      pop\n      jump\t// out\n        /* \"#utility.yul\":5245:5391   */\n    tag_58:\n        /* \"#utility.yul\":5315:5324   */\n      0x00\n        /* \"#utility.yul\":5348:5385   */\n      tag_137\n        /* \"#utility.yul\":5379:5384   */\n      dup3\n        /* \"#utility.yul\":5348:5385   */\n      tag_57\n      jump\t// in\n    tag_137:\n        /* \"#utility.yul\":5335:5385   */\n      swap1\n      pop\n        /* \"#utility.yul\":5245:5391   */\n      swap2\n      swap1\n      pop\n      jump\t// out\n        /* \"#utility.yul\":5397:5558   */\n    tag_59:\n        /* \"#utility.yul\":5494:5551   */\n      tag_139\n        /* \"#utility.yul\":5545:5550   */\n      dup2\n        /* \"#utility.yul\":5494:5551   */\n      tag_58\n      jump\t// in\n    tag_139:\n        /* \"#utility.yul\":5489:5492   */\n      dup3\n        /* \"#utility.yul\":5482:5552   */\n      mstore\n        /* \"#utility.yul\":5397:5558   */\n      pop\n      pop\n      jump\t// out\n        /* \"#utility.yul\":5564:5783   */\n    tag_60:\n        /* \"#utility.yul\":5653:5663   */\n      0x00\n        /* \"#utility.yul\":5674:5740   */\n      tag_141\n        /* \"#utility.yul\":5736:5739   */\n      dup4\n        /* \"#utility.yul\":5728:5734   */\n      dup4\n        /* \"#utility.yul\":5674:5740   */\n      tag_59\n      jump\t// in\n    tag_141:\n        /* \"#utility.yul\":5772:5776   */\n      0x20\n        /* \"#utility.yul\":5767:5770   */\n      dup4\n        /* \"#utility.yul\":5763:5777   */\n      add\n        /* \"#utility.yul\":5749:5777   */\n      swap1\n      pop\n        /* \"#utility.yul\":5564:5783   */\n      swap3\n      swap2\n      pop\n      pop\n      jump\t// out\n        /* \"#utility.yul\":5789:5922   */\n    tag_61:\n        /* \"#utility.yul\":5879:5883   */\n      0x00\n        /* \"#utility.yul\":5911:5915   */\n      0x20\n        /* \"#utility.yul\":5906:5909   */\n      dup3\n        /* \"#utility.yul\":5902:5916   */\n      add\n        /* \"#utility.yul\":5894:5916   */\n      swap1\n      pop\n        /* \"#utility.yul\":5789:5922   */\n      swap2\n      swap1\n      pop\n      jump\t// out\n        /* \"#utility.yul\":5972:6804   */\n    tag_62:\n        /* \"#utility.yul\":6111:6114   */\n      0x00\n        /* \"#utility.yul\":6140:6214   */\n      tag_144\n        /* \"#utility.yul\":6208:6213   */\n      dup3\n        /* \"#utility.yul\":6140:6214   */\n      tag_52\n      jump\t// in\n    tag_144:\n        /* \"#utility.yul\":6230:6316   */\n      tag_145\n        /* \"#utility.yul\":6309:6315   */\n      dup2\n        /* \"#utility.yul\":6304:6307   */\n      dup6\n        /* \"#utility.yul\":6230:6316   */\n      tag_53\n      jump\t// in\n    tag_145:\n        /* \"#utility.yul\":6223:6316   */\n      swap4\n      pop\n        /* \"#utility.yul\":6340:6416   */\n      tag_146\n        /* \"#utility.yul\":6410:6415   */\n      dup4\n        /* \"#utility.yul\":6340:6416   */\n      tag_54\n      jump\t// in\n    tag_146:\n        /* \"#utility.yul\":6439:6446   */\n      dup1\n        /* \"#utility.yul\":6470:6471   */\n      0x00\n        /* \"#utility.yul\":6455:6779   */\n    tag_147:\n        /* \"#utility.yul\":6480:6486   */\n      dup4\n        /* \"#utility.yul\":6477:6478   */\n      dup2\n        /* \"#utility.yul\":6474:6487   */\n      lt\n        /* \"#utility.yul\":6455:6779   */\n      iszero\n      tag_149\n      jumpi\n        /* \"#utility.yul\":6556:6562   */\n      dup2\n        /* \"#utility.yul\":6550:6563   */\n      mload\n        /* \"#utility.yul\":6583:6666   */\n      tag_150\n        /* \"#utility.yul\":6662:6665   */\n      dup9\n        /* \"#utility.yul\":6647:6660   */\n      dup3\n        /* \"#utility.yul\":6583:6666   */\n      tag_60\n      jump\t// in\n    tag_150:\n        /* \"#utility.yul\":6576:6666   */\n      swap8\n      pop\n        /* \"#utility.yul\":6689:6769   */\n      tag_151\n        /* \"#utility.yul\":6762:6768   */\n      dup4\n        /* \"#utility.yul\":6689:6769   */\n      tag_61\n      jump\t// in\n    tag_151:\n        /* \"#utility.yul\":6679:6769   */\n      swap3\n      pop\n        /* \"#utility.yul\":6515:6779   */\n      pop\n        /* \"#utility.yul\":6502:6503   */\n      0x01\n        /* \"#utility.yul\":6499:6500   */\n      dup2\n        /* \"#utility.yul\":6495:6504   */\n      add\n        /* \"#utility.yul\":6490:6504   */\n      swap1\n      pop\n        /* \"#utility.yul\":6455:6779   */\n      jump(tag_147)\n    tag_149:\n        /* \"#utility.yul\":6459:6473   */\n      pop\n        /* \"#utility.yul\":6795:6798   */\n      dup6\n        /* \"#utility.yul\":6788:6798   */\n      swap4\n      pop\n        /* \"#utility.yul\":6116:6804   */\n      pop\n      pop\n      pop\n        /* \"#utility.yul\":5972:6804   */\n      swap3\n      swap2\n      pop\n      pop\n      jump\t// out\n        /* \"#utility.yul\":6810:7223   */\n    tag_13:\n        /* \"#utility.yul\":6973:6977   */\n      0x00\n        /* \"#utility.yul\":7011:7013   */\n      0x20\n        /* \"#utility.yul\":7000:7009   */\n      dup3\n        /* \"#utility.yul\":6996:7014   */\n      add\n        /* \"#utility.yul\":6988:7014   */\n      swap1\n      pop\n        /* \"#utility.yul\":7060:7069   */\n      dup2\n        /* \"#utility.yul\":7054:7058   */\n      dup2\n        /* \"#utility.yul\":7050:7070   */\n      sub\n        /* \"#utility.yul\":7046:7047   */\n      0x00\n        /* \"#utility.yul\":7035:7044   */\n      dup4\n        /* \"#utility.yul\":7031:7048   */\n      add\n        /* \"#utility.yul\":7024:7071   */\n      mstore\n        /* \"#utility.yul\":7088:7216   */\n      tag_153\n        /* \"#utility.yul\":7211:7215   */\n      dup2\n        /* \"#utility.yul\":7202:7208   */\n      dup5\n        /* \"#utility.yul\":7088:7216   */\n      tag_62\n      jump\t// in\n    tag_153:\n        /* \"#utility.yul\":7080:7216   */\n      swap1\n      pop\n        /* \"#utility.yul\":6810:7223   */\n      swap3\n      swap2\n      pop\n      pop\n      jump\t// out\n        /* \"#utility.yul\":7229:7306   */\n    tag_63:\n        /* \"#utility.yul\":7266:7273   */\n      0x00\n        /* \"#utility.yul\":7295:7300   */\n      dup2\n        /* \"#utility.yul\":7284:7300   */\n      swap1\n      pop\n        /* \"#utility.yul\":7229:7306   */\n      swap2\n      swap1\n      pop\n      jump\t// out\n        /* \"#utility.yul\":7312:7434   */\n    tag_64:\n        /* \"#utility.yul\":7385:7409   */\n      tag_156\n        /* \"#utility.yul\":7403:7408   */\n      dup2\n        /* \"#utility.yul\":7385:7409   */\n      tag_63\n      jump\t// in\n    tag_156:\n        /* \"#utility.yul\":7378:7383   */\n      dup2\n        /* \"#utility.yul\":7375:7410   */\n      eq\n        /* \"#utility.yul\":7365:7428   */\n      tag_157\n      jumpi\n        /* \"#utility.yul\":7424:7425   */\n      0x00\n        /* \"#utility.yul\":7421:7422   */\n      dup1\n        /* \"#utility.yul\":7414:7426   */\n      revert\n        /* \"#utility.yul\":7365:7428   */\n    tag_157:\n        /* \"#utility.yul\":7312:7434   */\n      pop\n      jump\t// out\n        /* \"#utility.yul\":7440:7579   */\n    tag_65:\n        /* \"#utility.yul\":7486:7491   */\n      0x00\n        /* \"#utility.yul\":7524:7530   */\n      dup2\n        /* \"#utility.yul\":7511:7531   */\n      calldataload\n        /* \"#utility.yul\":7502:7531   */\n      swap1\n      pop\n        /* \"#utility.yul\":7540:7573   */\n      tag_159\n        /* \"#utility.yul\":7567:7572   */\n      dup2\n        /* \"#utility.yul\":7540:7573   */\n      tag_64\n      jump\t// in\n    tag_159:\n        /* \"#utility.yul\":7440:7579   */\n      swap3\n      swap2\n      pop\n      pop\n      jump\t// out\n        /* \"#utility.yul\":7585:7914   */\n    tag_16:\n        /* \"#utility.yul\":7644:7650   */\n      0x00\n        /* \"#utility.yul\":7693:7695   */\n      0x20\n        /* \"#utility.yul\":7681:7690   */\n      dup3\n        /* \"#utility.yul\":7672:7679   */\n      dup5\n        /* \"#utility.yul\":7668:7691   */\n      sub\n        /* \"#utility.yul\":7664:7696   */\n      slt\n        /* \"#utility.yul\":7661:7780   */\n      iszero\n      tag_161\n      jumpi\n        /* \"#utility.yul\":7699:7778   */\n      tag_162\n      tag_33\n      jump\t// in\n    tag_162:\n        /* \"#utility.yul\":7661:7780   */\n    tag_161:\n        /* \"#utility.yul\":7819:7820   */\n      0x00\n        /* \"#utility.yul\":7844:7897   */\n      tag_163\n        /* \"#utility.yul\":7889:7896   */\n      dup5\n        /* \"#utility.yul\":7880:7886   */\n      dup3\n        /* \"#utility.yul\":7869:7878   */\n      dup6\n        /* \"#utility.yul\":7865:7887   */\n      add\n        /* \"#utility.yul\":7844:7897   */\n      tag_65\n      jump\t// in\n    tag_163:\n        /* \"#utility.yul\":7834:7897   */\n      swap2\n      pop\n        /* \"#utility.yul\":7790:7907   */\n      pop\n        /* \"#utility.yul\":7585:7914   */\n      swap3\n      swap2\n      pop\n      pop\n      jump\t// out\n        /* \"#utility.yul\":7920:8091   */\n    tag_66:\n        /* \"#utility.yul\":8027:8084   */\n      tag_165\n        /* \"#utility.yul\":8078:8083   */\n      dup2\n        /* \"#utility.yul\":8027:8084   */\n      tag_58\n      jump\t// in\n    tag_165:\n        /* \"#utility.yul\":8022:8025   */\n      dup3\n        /* \"#utility.yul\":8015:8085   */\n      mstore\n        /* \"#utility.yul\":7920:8091   */\n      pop\n      pop\n      jump\t// out\n        /* \"#utility.yul\":8097:8359   */\n    tag_19:\n        /* \"#utility.yul\":8210:8214   */\n      0x00\n        /* \"#utility.yul\":8248:8250   */\n      0x20\n        /* \"#utility.yul\":8237:8246   */\n      dup3\n        /* \"#utility.yul\":8233:8251   */\n      add\n        /* \"#utility.yul\":8225:8251   */\n      swap1\n      pop\n        /* \"#utility.yul\":8261:8352   */\n      tag_167\n        /* \"#utility.yul\":8349:8350   */\n      0x00\n        /* \"#utility.yul\":8338:8347   */\n      dup4\n        /* \"#utility.yul\":8334:8351   */\n      add\n        /* \"#utility.yul\":8325:8331   */\n      dup5\n        /* \"#utility.yul\":8261:8352   */\n      tag_66\n      jump\t// in\n    tag_167:\n        /* \"#utility.yul\":8097:8359   */\n      swap3\n      swap2\n      pop\n      pop\n      jump\t// out\n        /* \"#utility.yul\":8365:8464   */\n    tag_67:\n        /* \"#utility.yul\":8417:8423   */\n      0x00\n        /* \"#utility.yul\":8451:8456   */\n      dup2\n        /* \"#utility.yul\":8445:8457   */\n      mload\n        /* \"#utility.yul\":8435:8457   */\n      swap1\n      pop\n        /* \"#utility.yul\":8365:8464   */\n      swap2\n      swap1\n      pop\n      jump\t// out\n        /* \"#utility.yul\":8470:8639   */\n    tag_68:\n        /* \"#utility.yul\":8554:8565   */\n      0x00\n        /* \"#utility.yul\":8588:8594   */\n      dup3\n        /* \"#utility.yul\":8583:8586   */\n      dup3\n        /* \"#utility.yul\":8576:8595   */\n      mstore\n        /* \"#utility.yul\":8628:8632   */\n      0x20\n        /* \"#utility.yul\":8623:8626   */\n      dup3\n        /* \"#utility.yul\":8619:8633   */\n      add\n        /* \"#utility.yul\":8604:8633   */\n      swap1\n      pop\n        /* \"#utility.yul\":8470:8639   */\n      swap3\n      swap2\n      pop\n      pop\n      jump\t// out\n        /* \"#utility.yul\":8645:8952   */\n    tag_69:\n        /* \"#utility.yul\":8713:8714   */\n      0x00\n        /* \"#utility.yul\":8723:8836   */\n    tag_171:\n        /* \"#utility.yul\":8737:8743   */\n      dup4\n        /* \"#utility.yul\":8734:8735   */\n      dup2\n        /* \"#utility.yul\":8731:8744   */\n      lt\n        /* \"#utility.yul\":8723:8836   */\n      iszero\n      tag_173\n      jumpi\n        /* \"#utility.yul\":8822:8823   */\n      dup1\n        /* \"#utility.yul\":8817:8820   */\n      dup3\n        /* \"#utility.yul\":8813:8824   */\n      add\n        /* \"#utility.yul\":8807:8825   */\n      mload\n        /* \"#utility.yul\":8803:8804   */\n      dup2\n        /* \"#utility.yul\":8798:8801   */\n      dup5\n        /* \"#utility.yul\":8794:8805   */\n      add\n        /* \"#utility.yul\":8787:8826   */\n      mstore\n        /* \"#utility.yul\":8759:8761   */\n      0x20\n        /* \"#utility.yul\":8756:8757   */\n      dup2\n        /* \"#utility.yul\":8752:8762   */\n      add\n        /* \"#utility.yul\":8747:8762   */\n      swap1\n      pop\n        /* \"#utility.yul\":8723:8836   */\n      jump(tag_171)\n    tag_173:\n        /* \"#utility.yul\":8854:8860   */\n      dup4\n        /* \"#utility.yul\":8851:8852   */\n      dup2\n        /* \"#utility.yul\":8848:8861   */\n      gt\n        /* \"#utility.yul\":8845:8946   */\n      iszero\n      tag_174\n      jumpi\n        /* \"#utility.yul\":8934:8935   */\n      0x00\n        /* \"#utility.yul\":8925:8931   */\n      dup5\n        /* \"#utility.yul\":8920:8923   */\n      dup5\n        /* \"#utility.yul\":8916:8932   */\n      add\n        /* \"#utility.yul\":8909:8936   */\n      mstore\n        /* \"#utility.yul\":8845:8946   */\n    tag_174:\n        /* \"#utility.yul\":8694:8952   */\n      pop\n        /* \"#utility.yul\":8645:8952   */\n      pop\n      pop\n      pop\n      jump\t// out\n        /* \"#utility.yul\":8958:9322   */\n    tag_70:\n        /* \"#utility.yul\":9046:9049   */\n      0x00\n        /* \"#utility.yul\":9074:9113   */\n      tag_176\n        /* \"#utility.yul\":9107:9112   */\n      dup3\n        /* \"#utility.yul\":9074:9113   */\n      tag_67\n      jump\t// in\n    tag_176:\n        /* \"#utility.yul\":9129:9200   */\n      tag_177\n        /* \"#utility.yul\":9193:9199   */\n      dup2\n        /* \"#utility.yul\":9188:9191   */\n      dup6\n        /* \"#utility.yul\":9129:9200   */\n      tag_68\n      jump\t// in\n    tag_177:\n        /* \"#utility.yul\":9122:9200   */\n      swap4\n      pop\n        /* \"#utility.yul\":9209:9261   */\n      tag_178\n        /* \"#utility.yul\":9254:9260   */\n      dup2\n        /* \"#utility.yul\":9249:9252   */\n      dup6\n        /* \"#utility.yul\":9242:9246   */\n      0x20\n        /* \"#utility.yul\":9235:9240   */\n      dup7\n        /* \"#utility.yul\":9231:9247   */\n      add\n        /* \"#utility.yul\":9209:9261   */\n      tag_69\n      jump\t// in\n    tag_178:\n        /* \"#utility.yul\":9286:9315   */\n      tag_179\n        /* \"#utility.yul\":9308:9314   */\n      dup2\n        /* \"#utility.yul\":9286:9315   */\n      tag_37\n      jump\t// in\n    tag_179:\n        /* \"#utility.yul\":9281:9284   */\n      dup5\n        /* \"#utility.yul\":9277:9316   */\n      add\n        /* \"#utility.yul\":9270:9316   */\n      swap2\n      pop\n        /* \"#utility.yul\":9050:9322   */\n      pop\n        /* \"#utility.yul\":8958:9322   */\n      swap3\n      swap2\n      pop\n      pop\n      jump\t// out\n        /* \"#utility.yul\":9328:9440   */\n    tag_71:\n        /* \"#utility.yul\":9411:9433   */\n      tag_181\n        /* \"#utility.yul\":9427:9432   */\n      dup2\n        /* \"#utility.yul\":9411:9433   */\n      tag_45\n      jump\t// in\n    tag_181:\n        /* \"#utility.yul\":9406:9409   */\n      dup3\n        /* \"#utility.yul\":9399:9434   */\n      mstore\n        /* \"#utility.yul\":9328:9440   */\n      pop\n      pop\n      jump\t// out\n        /* \"#utility.yul\":9446:9588   */\n    tag_72:\n        /* \"#utility.yul\":9549:9581   */\n      tag_183\n        /* \"#utility.yul\":9575:9580   */\n      dup2\n        /* \"#utility.yul\":9549:9581   */\n      tag_49\n      jump\t// in\n    tag_183:\n        /* \"#utility.yul\":9544:9547   */\n      dup3\n        /* \"#utility.yul\":9537:9582   */\n      mstore\n        /* \"#utility.yul\":9446:9588   */\n      pop\n      pop\n      jump\t// out\n        /* \"#utility.yul\":9594:10254   */\n    tag_24:\n        /* \"#utility.yul\":9799:9803   */\n      0x00\n        /* \"#utility.yul\":9837:9840   */\n      0x80\n        /* \"#utility.yul\":9826:9835   */\n      dup3\n        /* \"#utility.yul\":9822:9841   */\n      add\n        /* \"#utility.yul\":9814:9841   */\n      swap1\n      pop\n        /* \"#utility.yul\":9887:9896   */\n      dup2\n        /* \"#utility.yul\":9881:9885   */\n      dup2\n        /* \"#utility.yul\":9877:9897   */\n      sub\n        /* \"#utility.yul\":9873:9874   */\n      0x00\n        /* \"#utility.yul\":9862:9871   */\n      dup4\n        /* \"#utility.yul\":9858:9875   */\n      add\n        /* \"#utility.yul\":9851:9898   */\n      mstore\n        /* \"#utility.yul\":9915:9993   */\n      tag_185\n        /* \"#utility.yul\":9988:9992   */\n      dup2\n        /* \"#utility.yul\":9979:9985   */\n      dup8\n        /* \"#utility.yul\":9915:9993   */\n      tag_70\n      jump\t// in\n    tag_185:\n        /* \"#utility.yul\":9907:9993   */\n      swap1\n      pop\n        /* \"#utility.yul\":10003:10071   */\n      tag_186\n        /* \"#utility.yul\":10067:10069   */\n      0x20\n        /* \"#utility.yul\":10056:10065   */\n      dup4\n        /* \"#utility.yul\":10052:10070   */\n      add\n        /* \"#utility.yul\":10043:10049   */\n      dup7\n        /* \"#utility.yul\":10003:10071   */\n      tag_71\n      jump\t// in\n    tag_186:\n        /* \"#utility.yul\":10081:10149   */\n      tag_187\n        /* \"#utility.yul\":10145:10147   */\n      0x40\n        /* \"#utility.yul\":10134:10143   */\n      dup4\n        /* \"#utility.yul\":10130:10148   */\n      add\n        /* \"#utility.yul\":10121:10127   */\n      dup6\n        /* \"#utility.yul\":10081:10149   */\n      tag_71\n      jump\t// in\n    tag_187:\n        /* \"#utility.yul\":10159:10247   */\n      tag_188\n        /* \"#utility.yul\":10243:10245   */\n      0x60\n        /* \"#utility.yul\":10232:10241   */\n      dup4\n        /* \"#utility.yul\":10228:10246   */\n      add\n        /* \"#utility.yul\":10219:10225   */\n      dup5\n        /* \"#utility.yul\":10159:10247   */\n      tag_72\n      jump\t// in\n    tag_188:\n        /* \"#utility.yul\":9594:10254   */\n      swap6\n      swap5\n      pop\n      pop\n      pop\n      pop\n      pop\n      jump\t// out\n    stop\n\n    sub_0: assembly {\n            /* \"VotingSystem.sol\":599:5043  contract VotingSystem{... */\n          mstore(0x40, 0x80)\n            /* \"VotingSystem.sol\":1954:2277  constructor(string memory _name, uint8 _level, uint8 _electionType, address payable _address) {... */\n          callvalue\n          dup1\n          iszero\n          tag_1\n          jumpi\n          0x00\n          dup1\n          revert\n        tag_1:\n          pop\n          mload(0x40)\n          sub(codesize, bytecodeSize)\n          dup1\n          bytecodeSize\n          dup4\n          codecopy\n          dup2\n          dup2\n          add\n          0x40\n          mstore\n          dup2\n          add\n          swap1\n          tag_2\n          swap2\n          swap1\n          tag_3\n          jump\t// in\n        tag_2:\n            /* \"VotingSystem.sol\":2075:2083  _address */\n          dup1\n            /* \"VotingSystem.sol\":2059:2072  administrator */\n          0x00\n          dup1\n            /* \"VotingSystem.sol\":2059:2083  administrator = _address */\n          0x0100\n          exp\n          dup2\n          sload\n          dup2\n          0xffffffffffffffffffffffffffffffffffffffff\n          mul\n          not\n          and\n          swap1\n          dup4\n          0xffffffffffffffffffffffffffffffffffffffff\n          and\n          mul\n          or\n          swap1\n          sstore\n          pop\n            /* \"VotingSystem.sol\":2112:2113  2 */\n          0x02\n            /* \"VotingSystem.sol\":2102:2108  _level */\n          dup4\n            /* \"VotingSystem.sol\":2102:2113  _level <= 2 */\n          0xff\n          and\n          gt\n          iszero\n            /* \"VotingSystem.sol\":2094:2130  require(_level <= 2, \"Out of bound\") */\n          tag_6\n          jumpi\n          mload(0x40)\n          0x08c379a000000000000000000000000000000000000000000000000000000000\n          dup2\n          mstore\n          0x04\n          add\n          tag_7\n          swap1\n          tag_8\n          jump\t// in\n        tag_7:\n          mload(0x40)\n          dup1\n          swap2\n          sub\n          swap1\n          revert\n        tag_6:\n            /* \"VotingSystem.sol\":2166:2167  1 */\n          0x01\n            /* \"VotingSystem.sol\":2149:2162  _electionType */\n          dup3\n            /* \"VotingSystem.sol\":2149:2167  _electionType <= 1 */\n          0xff\n          and\n          gt\n          iszero\n            /* \"VotingSystem.sol\":2141:2184  require(_electionType <= 1, \"Out of bound\") */\n          tag_9\n          jumpi\n          mload(0x40)\n          0x08c379a000000000000000000000000000000000000000000000000000000000\n          dup2\n          mstore\n          0x04\n          add\n          tag_10\n          swap1\n          tag_8\n          jump\t// in\n        tag_10:\n          mload(0x40)\n          dup1\n          swap2\n          sub\n          swap1\n          revert\n        tag_9:\n            /* \"VotingSystem.sol\":2210:2269  Election(_name, Level(_level), ElectionType(_electionType)) */\n          mload(0x40)\n          dup1\n          0x60\n          add\n          0x40\n          mstore\n          dup1\n            /* \"VotingSystem.sol\":2219:2224  _name */\n          dup6\n            /* \"VotingSystem.sol\":2210:2269  Election(_name, Level(_level), ElectionType(_electionType)) */\n          dup2\n          mstore\n          0x20\n          add\n            /* \"VotingSystem.sol\":2232:2238  _level */\n          dup5\n            /* \"VotingSystem.sol\":2226:2239  Level(_level) */\n          0xff\n          and\n          0x02\n          dup2\n          gt\n          iszero\n          tag_11\n          jumpi\n          tag_12\n          tag_13\n          jump\t// in\n        tag_12:\n        tag_11:\n            /* \"VotingSystem.sol\":2210:2269  Election(_name, Level(_level), ElectionType(_electionType)) */\n          0x02\n          dup2\n          gt\n          iszero\n          tag_14\n          jumpi\n          tag_15\n          tag_13\n          jump\t// in\n        tag_15:\n        tag_14:\n          dup2\n          mstore\n          0x20\n          add\n            /* \"VotingSystem.sol\":2254:2267  _electionType */\n          dup4\n            /* \"VotingSystem.sol\":2241:2268  ElectionType(_electionType) */\n          0xff\n          and\n          0x01\n          dup2\n          gt\n          iszero\n          tag_16\n          jumpi\n          tag_17\n          tag_13\n          jump\t// in\n        tag_17:\n        tag_16:\n            /* \"VotingSystem.sol\":2210:2269  Election(_name, Level(_level), ElectionType(_electionType)) */\n          0x01\n          dup2\n          gt\n          iszero\n          tag_18\n          jumpi\n          tag_19\n          tag_13\n          jump\t// in\n        tag_19:\n        tag_18:\n          dup2\n          mstore\n          pop\n            /* \"VotingSystem.sol\":2195:2207  electionInfo */\n          0x01\n            /* \"VotingSystem.sol\":2195:2269  electionInfo = Election(_name, Level(_level), ElectionType(_electionType)) */\n          0x00\n          dup3\n          add\n          mload\n          dup2\n          0x00\n          add\n          swap1\n          dup1\n          mload\n          swap1\n          0x20\n          add\n          swap1\n          tag_20\n          swap3\n          swap2\n          swap1\n          tag_21\n          jump\t// in\n        tag_20:\n          pop\n          0x20\n          dup3\n          add\n          mload\n          dup2\n          0x01\n          add\n          exp(0x0100, 0x00)\n          dup2\n          sload\n          dup2\n          0xff\n          mul\n          not\n          and\n          swap1\n          dup4\n          0x02\n          dup2\n          gt\n          iszero\n          tag_22\n          jumpi\n          tag_23\n          tag_13\n          jump\t// in\n        tag_23:\n        tag_22:\n          mul\n          or\n          swap1\n          sstore\n          pop\n          0x40\n          dup3\n          add\n          mload\n          dup2\n          0x01\n          add\n          exp(0x0100, 0x01)\n          dup2\n          sload\n          dup2\n          0xff\n          mul\n          not\n          and\n          swap1\n          dup4\n          0x01\n          dup2\n          gt\n          iszero\n          tag_24\n          jumpi\n          tag_25\n          tag_13\n          jump\t// in\n        tag_25:\n        tag_24:\n          mul\n          or\n          swap1\n          sstore\n          pop\n          swap1\n          pop\n          pop\n            /* \"VotingSystem.sol\":1954:2277  constructor(string memory _name, uint8 _level, uint8 _electionType, address payable _address) {... */\n          pop\n          pop\n          pop\n          pop\n            /* \"VotingSystem.sol\":599:5043  contract VotingSystem{... */\n          jump(tag_26)\n        tag_21:\n          dup3\n          dup1\n          sload\n          tag_27\n          swap1\n          tag_28\n          jump\t// in\n        tag_27:\n          swap1\n          0x00\n          mstore\n          keccak256(0x00, 0x20)\n          swap1\n          0x1f\n          add\n          0x20\n          swap1\n          div\n          dup2\n          add\n          swap3\n          dup3\n          tag_30\n          jumpi\n          0x00\n          dup6\n          sstore\n          jump(tag_29)\n        tag_30:\n          dup3\n          0x1f\n          lt\n          tag_31\n          jumpi\n          dup1\n          mload\n          not(0xff)\n          and\n          dup4\n          dup1\n          add\n          or\n          dup6\n          sstore\n          jump(tag_29)\n        tag_31:\n          dup3\n          dup1\n          add\n          0x01\n          add\n          dup6\n          sstore\n          dup3\n          iszero\n          tag_29\n          jumpi\n          swap2\n          dup3\n          add\n        tag_32:\n          dup3\n          dup2\n          gt\n          iszero\n          tag_33\n          jumpi\n          dup3\n          mload\n          dup3\n          sstore\n          swap2\n          0x20\n          add\n          swap2\n          swap1\n          0x01\n          add\n          swap1\n          jump(tag_32)\n        tag_33:\n        tag_29:\n          pop\n          swap1\n          pop\n          tag_34\n          swap2\n          swap1\n          tag_35\n          jump\t// in\n        tag_34:\n          pop\n          swap1\n          jump\t// out\n        tag_35:\n        tag_36:\n          dup1\n          dup3\n          gt\n          iszero\n          tag_37\n          jumpi\n          0x00\n          dup2\n          0x00\n          swap1\n          sstore\n          pop\n          0x01\n          add\n          jump(tag_36)\n        tag_37:\n          pop\n          swap1\n          jump\t// out\n            /* \"#utility.yul\":7:82   */\n        tag_38:\n            /* \"#utility.yul\":40:46   */\n          0x00\n            /* \"#utility.yul\":73:75   */\n          0x40\n            /* \"#utility.yul\":67:76   */\n          mload\n            /* \"#utility.yul\":57:76   */\n          swap1\n          pop\n            /* \"#utility.yul\":7:82   */\n          swap1\n          jump\t// out\n            /* \"#utility.yul\":88:205   */\n        tag_39:\n            /* \"#utility.yul\":197:198   */\n          0x00\n            /* \"#utility.yul\":194:195   */\n          dup1\n            /* \"#utility.yul\":187:199   */\n          revert\n            /* \"#utility.yul\":211:328   */\n        tag_40:\n            /* \"#utility.yul\":320:321   */\n          0x00\n            /* \"#utility.yul\":317:318   */\n          dup1\n            /* \"#utility.yul\":310:322   */\n          revert\n            /* \"#utility.yul\":334:451   */\n        tag_41:\n            /* \"#utility.yul\":443:444   */\n          0x00\n            /* \"#utility.yul\":440:441   */\n          dup1\n            /* \"#utility.yul\":433:445   */\n          revert\n            /* \"#utility.yul\":457:574   */\n        tag_42:\n            /* \"#utility.yul\":566:567   */\n          0x00\n            /* \"#utility.yul\":563:564   */\n          dup1\n            /* \"#utility.yul\":556:568   */\n          revert\n            /* \"#utility.yul\":580:682   */\n        tag_43:\n            /* \"#utility.yul\":621:627   */\n          0x00\n            /* \"#utility.yul\":672:674   */\n          0x1f\n            /* \"#utility.yul\":668:675   */\n          not\n            /* \"#utility.yul\":663:665   */\n          0x1f\n            /* \"#utility.yul\":656:661   */\n          dup4\n            /* \"#utility.yul\":652:666   */\n          add\n            /* \"#utility.yul\":648:676   */\n          and\n            /* \"#utility.yul\":638:676   */\n          swap1\n          pop\n            /* \"#utility.yul\":580:682   */\n          swap2\n          swap1\n          pop\n          jump\t// out\n            /* \"#utility.yul\":688:868   */\n        tag_44:\n            /* \"#utility.yul\":736:813   */\n          0x4e487b7100000000000000000000000000000000000000000000000000000000\n            /* \"#utility.yul\":733:734   */\n          0x00\n            /* \"#utility.yul\":726:814   */\n          mstore\n            /* \"#utility.yul\":833:837   */\n          0x41\n            /* \"#utility.yul\":830:831   */\n          0x04\n            /* \"#utility.yul\":823:838   */\n          mstore\n            /* \"#utility.yul\":857:861   */\n          0x24\n            /* \"#utility.yul\":854:855   */\n          0x00\n            /* \"#utility.yul\":847:862   */\n          revert\n            /* \"#utility.yul\":874:1155   */\n        tag_45:\n            /* \"#utility.yul\":957:984   */\n          tag_71\n            /* \"#utility.yul\":979:983   */\n          dup3\n            /* \"#utility.yul\":957:984   */\n          tag_43\n          jump\t// in\n        tag_71:\n            /* \"#utility.yul\":949:955   */\n          dup2\n            /* \"#utility.yul\":945:985   */\n          add\n            /* \"#utility.yul\":1087:1093   */\n          dup2\n            /* \"#utility.yul\":1075:1085   */\n          dup2\n            /* \"#utility.yul\":1072:1094   */\n          lt\n            /* \"#utility.yul\":1051:1069   */\n          0xffffffffffffffff\n            /* \"#utility.yul\":1039:1049   */\n          dup3\n            /* \"#utility.yul\":1036:1070   */\n          gt\n            /* \"#utility.yul\":1033:1095   */\n          or\n            /* \"#utility.yul\":1030:1118   */\n          iszero\n          tag_72\n          jumpi\n            /* \"#utility.yul\":1098:1116   */\n          tag_73\n          tag_44\n          jump\t// in\n        tag_73:\n            /* \"#utility.yul\":1030:1118   */\n        tag_72:\n            /* \"#utility.yul\":1138:1148   */\n          dup1\n            /* \"#utility.yul\":1134:1136   */\n          0x40\n            /* \"#utility.yul\":1127:1149   */\n          mstore\n            /* \"#utility.yul\":917:1155   */\n          pop\n            /* \"#utility.yul\":874:1155   */\n          pop\n          pop\n          jump\t// out\n            /* \"#utility.yul\":1161:1290   */\n        tag_46:\n            /* \"#utility.yul\":1195:1201   */\n          0x00\n            /* \"#utility.yul\":1222:1242   */\n          tag_75\n          tag_38\n          jump\t// in\n        tag_75:\n            /* \"#utility.yul\":1212:1242   */\n          swap1\n          pop\n            /* \"#utility.yul\":1251:1284   */\n          tag_76\n            /* \"#utility.yul\":1279:1283   */\n          dup3\n            /* \"#utility.yul\":1271:1277   */\n          dup3\n            /* \"#utility.yul\":1251:1284   */\n          tag_45\n          jump\t// in\n        tag_76:\n            /* \"#utility.yul\":1161:1290   */\n          swap2\n          swap1\n          pop\n          jump\t// out\n            /* \"#utility.yul\":1296:1604   */\n        tag_47:\n            /* \"#utility.yul\":1358:1362   */\n          0x00\n            /* \"#utility.yul\":1448:1466   */\n          0xffffffffffffffff\n            /* \"#utility.yul\":1440:1446   */\n          dup3\n            /* \"#utility.yul\":1437:1467   */\n          gt\n            /* \"#utility.yul\":1434:1490   */\n          iszero\n          tag_78\n          jumpi\n            /* \"#utility.yul\":1470:1488   */\n          tag_79\n          tag_44\n          jump\t// in\n        tag_79:\n            /* \"#utility.yul\":1434:1490   */\n        tag_78:\n            /* \"#utility.yul\":1508:1537   */\n          tag_80\n            /* \"#utility.yul\":1530:1536   */\n          dup3\n            /* \"#utility.yul\":1508:1537   */\n          tag_43\n          jump\t// in\n        tag_80:\n            /* \"#utility.yul\":1500:1537   */\n          swap1\n          pop\n            /* \"#utility.yul\":1592:1596   */\n          0x20\n            /* \"#utility.yul\":1586:1590   */\n          dup2\n            /* \"#utility.yul\":1582:1597   */\n          add\n            /* \"#utility.yul\":1574:1597   */\n          swap1\n          pop\n            /* \"#utility.yul\":1296:1604   */\n          swap2\n          swap1\n          pop\n          jump\t// out\n            /* \"#utility.yul\":1610:1917   */\n        tag_48:\n            /* \"#utility.yul\":1678:1679   */\n          0x00\n            /* \"#utility.yul\":1688:1801   */\n        tag_82:\n            /* \"#utility.yul\":1702:1708   */\n          dup4\n            /* \"#utility.yul\":1699:1700   */\n          dup2\n            /* \"#utility.yul\":1696:1709   */\n          lt\n            /* \"#utility.yul\":1688:1801   */\n          iszero\n          tag_84\n          jumpi\n            /* \"#utility.yul\":1787:1788   */\n          dup1\n            /* \"#utility.yul\":1782:1785   */\n          dup3\n            /* \"#utility.yul\":1778:1789   */\n          add\n            /* \"#utility.yul\":1772:1790   */\n          mload\n            /* \"#utility.yul\":1768:1769   */\n          dup2\n            /* \"#utility.yul\":1763:1766   */\n          dup5\n            /* \"#utility.yul\":1759:1770   */\n          add\n            /* \"#utility.yul\":1752:1791   */\n          mstore\n            /* \"#utility.yul\":1724:1726   */\n          0x20\n            /* \"#utility.yul\":1721:1722   */\n          dup2\n            /* \"#utility.yul\":1717:1727   */\n          add\n            /* \"#utility.yul\":1712:1727   */\n          swap1\n          pop\n            /* \"#utility.yul\":1688:1801   */\n          jump(tag_82)\n        tag_84:\n            /* \"#utility.yul\":1819:1825   */\n          dup4\n            /* \"#utility.yul\":1816:1817   */\n          dup2\n            /* \"#utility.yul\":1813:1826   */\n          gt\n            /* \"#utility.yul\":1810:1911   */\n          iszero\n          tag_85\n          jumpi\n            /* \"#utility.yul\":1899:1900   */\n          0x00\n            /* \"#utility.yul\":1890:1896   */\n          dup5\n            /* \"#utility.yul\":1885:1888   */\n          dup5\n            /* \"#utility.yul\":1881:1897   */\n          add\n            /* \"#utility.yul\":1874:1901   */\n          mstore\n            /* \"#utility.yul\":1810:1911   */\n        tag_85:\n            /* \"#utility.yul\":1659:1917   */\n          pop\n            /* \"#utility.yul\":1610:1917   */\n          pop\n          pop\n          pop\n          jump\t// out\n            /* \"#utility.yul\":1923:2344   */\n        tag_49:\n            /* \"#utility.yul\":2012:2017   */\n          0x00\n            /* \"#utility.yul\":2037:2103   */\n          tag_87\n            /* \"#utility.yul\":2053:2102   */\n          tag_88\n            /* \"#utility.yul\":2095:2101   */\n          dup5\n            /* \"#utility.yul\":2053:2102   */\n          tag_47\n          jump\t// in\n        tag_88:\n            /* \"#utility.yul\":2037:2103   */\n          tag_46\n          jump\t// in\n        tag_87:\n            /* \"#utility.yul\":2028:2103   */\n          swap1\n          pop\n            /* \"#utility.yul\":2126:2132   */\n          dup3\n            /* \"#utility.yul\":2119:2124   */\n          dup2\n            /* \"#utility.yul\":2112:2133   */\n          mstore\n            /* \"#utility.yul\":2164:2168   */\n          0x20\n            /* \"#utility.yul\":2157:2162   */\n          dup2\n            /* \"#utility.yul\":2153:2169   */\n          add\n            /* \"#utility.yul\":2202:2205   */\n          dup5\n            /* \"#utility.yul\":2193:2199   */\n          dup5\n            /* \"#utility.yul\":2188:2191   */\n          dup5\n            /* \"#utility.yul\":2184:2200   */\n          add\n            /* \"#utility.yul\":2181:2206   */\n          gt\n            /* \"#utility.yul\":2178:2290   */\n          iszero\n          tag_89\n          jumpi\n            /* \"#utility.yul\":2209:2288   */\n          tag_90\n          tag_42\n          jump\t// in\n        tag_90:\n            /* \"#utility.yul\":2178:2290   */\n        tag_89:\n            /* \"#utility.yul\":2299:2338   */\n          tag_91\n            /* \"#utility.yul\":2331:2337   */\n          dup5\n            /* \"#utility.yul\":2326:2329   */\n          dup3\n            /* \"#utility.yul\":2321:2324   */\n          dup6\n            /* \"#utility.yul\":2299:2338   */\n          tag_48\n          jump\t// in\n        tag_91:\n            /* \"#utility.yul\":2018:2344   */\n          pop\n            /* \"#utility.yul\":1923:2344   */\n          swap4\n          swap3\n          pop\n          pop\n          pop\n          jump\t// out\n            /* \"#utility.yul\":2364:2719   */\n        tag_50:\n            /* \"#utility.yul\":2431:2436   */\n          0x00\n            /* \"#utility.yul\":2480:2483   */\n          dup3\n            /* \"#utility.yul\":2473:2477   */\n          0x1f\n            /* \"#utility.yul\":2465:2471   */\n          dup4\n            /* \"#utility.yul\":2461:2478   */\n          add\n            /* \"#utility.yul\":2457:2484   */\n          slt\n            /* \"#utility.yul\":2447:2569   */\n          tag_93\n          jumpi\n            /* \"#utility.yul\":2488:2567   */\n          tag_94\n          tag_41\n          jump\t// in\n        tag_94:\n            /* \"#utility.yul\":2447:2569   */\n        tag_93:\n            /* \"#utility.yul\":2598:2604   */\n          dup2\n            /* \"#utility.yul\":2592:2605   */\n          mload\n            /* \"#utility.yul\":2623:2713   */\n          tag_95\n            /* \"#utility.yul\":2709:2712   */\n          dup5\n            /* \"#utility.yul\":2701:2707   */\n          dup3\n            /* \"#utility.yul\":2694:2698   */\n          0x20\n            /* \"#utility.yul\":2686:2692   */\n          dup7\n            /* \"#utility.yul\":2682:2699   */\n          add\n            /* \"#utility.yul\":2623:2713   */\n          tag_49\n          jump\t// in\n        tag_95:\n            /* \"#utility.yul\":2614:2713   */\n          swap2\n          pop\n            /* \"#utility.yul\":2437:2719   */\n          pop\n            /* \"#utility.yul\":2364:2719   */\n          swap3\n          swap2\n          pop\n          pop\n          jump\t// out\n            /* \"#utility.yul\":2725:2811   */\n        tag_51:\n            /* \"#utility.yul\":2760:2767   */\n          0x00\n            /* \"#utility.yul\":2800:2804   */\n          0xff\n            /* \"#utility.yul\":2793:2798   */\n          dup3\n            /* \"#utility.yul\":2789:2805   */\n          and\n            /* \"#utility.yul\":2778:2805   */\n          swap1\n          pop\n            /* \"#utility.yul\":2725:2811   */\n          swap2\n          swap1\n          pop\n          jump\t// out\n            /* \"#utility.yul\":2817:2935   */\n        tag_52:\n            /* \"#utility.yul\":2888:2910   */\n          tag_98\n            /* \"#utility.yul\":2904:2909   */\n          dup2\n            /* \"#utility.yul\":2888:2910   */\n          tag_51\n          jump\t// in\n        tag_98:\n            /* \"#utility.yul\":2881:2886   */\n          dup2\n            /* \"#utility.yul\":2878:2911   */\n          eq\n            /* \"#utility.yul\":2868:2929   */\n          tag_99\n          jumpi\n            /* \"#utility.yul\":2925:2926   */\n          0x00\n            /* \"#utility.yul\":2922:2923   */\n          dup1\n            /* \"#utility.yul\":2915:2927   */\n          revert\n            /* \"#utility.yul\":2868:2929   */\n        tag_99:\n            /* \"#utility.yul\":2817:2935   */\n          pop\n          jump\t// out\n            /* \"#utility.yul\":2941:3080   */\n        tag_53:\n            /* \"#utility.yul\":2996:3001   */\n          0x00\n            /* \"#utility.yul\":3027:3033   */\n          dup2\n            /* \"#utility.yul\":3021:3034   */\n          mload\n            /* \"#utility.yul\":3012:3034   */\n          swap1\n          pop\n            /* \"#utility.yul\":3043:3074   */\n          tag_101\n            /* \"#utility.yul\":3068:3073   */\n          dup2\n            /* \"#utility.yul\":3043:3074   */\n          tag_52\n          jump\t// in\n        tag_101:\n            /* \"#utility.yul\":2941:3080   */\n          swap3\n          swap2\n          pop\n          pop\n          jump\t// out\n            /* \"#utility.yul\":3086:3212   */\n        tag_54:\n            /* \"#utility.yul\":3123:3130   */\n          0x00\n            /* \"#utility.yul\":3163:3205   */\n          0xffffffffffffffffffffffffffffffffffffffff\n            /* \"#utility.yul\":3156:3161   */\n          dup3\n            /* \"#utility.yul\":3152:3206   */\n          and\n            /* \"#utility.yul\":3141:3206   */\n          swap1\n          pop\n            /* \"#utility.yul\":3086:3212   */\n          swap2\n          swap1\n          pop\n          jump\t// out\n            /* \"#utility.yul\":3218:3322   */\n        tag_55:\n            /* \"#utility.yul\":3263:3270   */\n          0x00\n            /* \"#utility.yul\":3292:3316   */\n          tag_104\n            /* \"#utility.yul\":3310:3315   */\n          dup3\n            /* \"#utility.yul\":3292:3316   */\n          tag_54\n          jump\t// in\n        tag_104:\n            /* \"#utility.yul\":3281:3316   */\n          swap1\n          pop\n            /* \"#utility.yul\":3218:3322   */\n          swap2\n          swap1\n          pop\n          jump\t// out\n            /* \"#utility.yul\":3328:3466   */\n        tag_56:\n            /* \"#utility.yul\":3409:3441   */\n          tag_106\n            /* \"#utility.yul\":3435:3440   */\n          dup2\n            /* \"#utility.yul\":3409:3441   */\n          tag_55\n          jump\t// in\n        tag_106:\n            /* \"#utility.yul\":3402:3407   */\n          dup2\n            /* \"#utility.yul\":3399:3442   */\n          eq\n            /* \"#utility.yul\":3389:3460   */\n          tag_107\n          jumpi\n            /* \"#utility.yul\":3456:3457   */\n          0x00\n            /* \"#utility.yul\":3453:3454   */\n          dup1\n            /* \"#utility.yul\":3446:3458   */\n          revert\n            /* \"#utility.yul\":3389:3460   */\n        tag_107:\n            /* \"#utility.yul\":3328:3466   */\n          pop\n          jump\t// out\n            /* \"#utility.yul\":3472:3631   */\n        tag_57:\n            /* \"#utility.yul\":3537:3542   */\n          0x00\n            /* \"#utility.yul\":3568:3574   */\n          dup2\n            /* \"#utility.yul\":3562:3575   */\n          mload\n            /* \"#utility.yul\":3553:3575   */\n          swap1\n          pop\n            /* \"#utility.yul\":3584:3625   */\n          tag_109\n            /* \"#utility.yul\":3619:3624   */\n          dup2\n            /* \"#utility.yul\":3584:3625   */\n          tag_56\n          jump\t// in\n        tag_109:\n            /* \"#utility.yul\":3472:3631   */\n          swap3\n          swap2\n          pop\n          pop\n          jump\t// out\n            /* \"#utility.yul\":3637:4638   */\n        tag_3:\n            /* \"#utility.yul\":3748:3754   */\n          0x00\n            /* \"#utility.yul\":3756:3762   */\n          dup1\n            /* \"#utility.yul\":3764:3770   */\n          0x00\n            /* \"#utility.yul\":3772:3778   */\n          dup1\n            /* \"#utility.yul\":3821:3824   */\n          0x80\n            /* \"#utility.yul\":3809:3818   */\n          dup6\n            /* \"#utility.yul\":3800:3807   */\n          dup8\n            /* \"#utility.yul\":3796:3819   */\n          sub\n            /* \"#utility.yul\":3792:3825   */\n          slt\n            /* \"#utility.yul\":3789:3909   */\n          iszero\n          tag_111\n          jumpi\n            /* \"#utility.yul\":3828:3907   */\n          tag_112\n          tag_39\n          jump\t// in\n        tag_112:\n            /* \"#utility.yul\":3789:3909   */\n        tag_111:\n            /* \"#utility.yul\":3969:3970   */\n          0x00\n            /* \"#utility.yul\":3958:3967   */\n          dup6\n            /* \"#utility.yul\":3954:3971   */\n          add\n            /* \"#utility.yul\":3948:3972   */\n          mload\n            /* \"#utility.yul\":3999:4017   */\n          0xffffffffffffffff\n            /* \"#utility.yul\":3991:3997   */\n          dup2\n            /* \"#utility.yul\":3988:4018   */\n          gt\n            /* \"#utility.yul\":3985:4102   */\n          iszero\n          tag_113\n          jumpi\n            /* \"#utility.yul\":4021:4100   */\n          tag_114\n          tag_40\n          jump\t// in\n        tag_114:\n            /* \"#utility.yul\":3985:4102   */\n        tag_113:\n            /* \"#utility.yul\":4126:4200   */\n          tag_115\n            /* \"#utility.yul\":4192:4199   */\n          dup8\n            /* \"#utility.yul\":4183:4189   */\n          dup3\n            /* \"#utility.yul\":4172:4181   */\n          dup9\n            /* \"#utility.yul\":4168:4190   */\n          add\n            /* \"#utility.yul\":4126:4200   */\n          tag_50\n          jump\t// in\n        tag_115:\n            /* \"#utility.yul\":4116:4200   */\n          swap5\n          pop\n            /* \"#utility.yul\":3919:4210   */\n          pop\n            /* \"#utility.yul\":4249:4251   */\n          0x20\n            /* \"#utility.yul\":4275:4337   */\n          tag_116\n            /* \"#utility.yul\":4329:4336   */\n          dup8\n            /* \"#utility.yul\":4320:4326   */\n          dup3\n            /* \"#utility.yul\":4309:4318   */\n          dup9\n            /* \"#utility.yul\":4305:4327   */\n          add\n            /* \"#utility.yul\":4275:4337   */\n          tag_53\n          jump\t// in\n        tag_116:\n            /* \"#utility.yul\":4265:4337   */\n          swap4\n          pop\n            /* \"#utility.yul\":4220:4347   */\n          pop\n            /* \"#utility.yul\":4386:4388   */\n          0x40\n            /* \"#utility.yul\":4412:4474   */\n          tag_117\n            /* \"#utility.yul\":4466:4473   */\n          dup8\n            /* \"#utility.yul\":4457:4463   */\n          dup3\n            /* \"#utility.yul\":4446:4455   */\n          dup9\n            /* \"#utility.yul\":4442:4464   */\n          add\n            /* \"#utility.yul\":4412:4474   */\n          tag_53\n          jump\t// in\n        tag_117:\n            /* \"#utility.yul\":4402:4474   */\n          swap3\n          pop\n            /* \"#utility.yul\":4357:4484   */\n          pop\n            /* \"#utility.yul\":4523:4525   */\n          0x60\n            /* \"#utility.yul\":4549:4621   */\n          tag_118\n            /* \"#utility.yul\":4613:4620   */\n          dup8\n            /* \"#utility.yul\":4604:4610   */\n          dup3\n            /* \"#utility.yul\":4593:4602   */\n          dup9\n            /* \"#utility.yul\":4589:4611   */\n          add\n            /* \"#utility.yul\":4549:4621   */\n          tag_57\n          jump\t// in\n        tag_118:\n            /* \"#utility.yul\":4539:4621   */\n          swap2\n          pop\n            /* \"#utility.yul\":4494:4631   */\n          pop\n            /* \"#utility.yul\":3637:4638   */\n          swap3\n          swap6\n          swap2\n          swap5\n          pop\n          swap3\n          pop\n          jump\t// out\n            /* \"#utility.yul\":4644:4813   */\n        tag_58:\n            /* \"#utility.yul\":4728:4739   */\n          0x00\n            /* \"#utility.yul\":4762:4768   */\n          dup3\n            /* \"#utility.yul\":4757:4760   */\n          dup3\n            /* \"#utility.yul\":4750:4769   */\n          mstore\n            /* \"#utility.yul\":4802:4806   */\n          0x20\n            /* \"#utility.yul\":4797:4800   */\n          dup3\n            /* \"#utility.yul\":4793:4807   */\n          add\n            /* \"#utility.yul\":4778:4807   */\n          swap1\n          pop\n            /* \"#utility.yul\":4644:4813   */\n          swap3\n          swap2\n          pop\n          pop\n          jump\t// out\n            /* \"#utility.yul\":4819:4981   */\n        tag_59:\n            /* \"#utility.yul\":4959:4973   */\n          0x4f7574206f6620626f756e640000000000000000000000000000000000000000\n            /* \"#utility.yul\":4955:4956   */\n          0x00\n            /* \"#utility.yul\":4947:4953   */\n          dup3\n            /* \"#utility.yul\":4943:4957   */\n          add\n            /* \"#utility.yul\":4936:4974   */\n          mstore\n            /* \"#utility.yul\":4819:4981   */\n          pop\n          jump\t// out\n            /* \"#utility.yul\":4987:5353   */\n        tag_60:\n            /* \"#utility.yul\":5129:5132   */\n          0x00\n            /* \"#utility.yul\":5150:5217   */\n          tag_122\n            /* \"#utility.yul\":5214:5216   */\n          0x0c\n            /* \"#utility.yul\":5209:5212   */\n          dup4\n            /* \"#utility.yul\":5150:5217   */\n          tag_58\n          jump\t// in\n        tag_122:\n            /* \"#utility.yul\":5143:5217   */\n          swap2\n          pop\n            /* \"#utility.yul\":5226:5319   */\n          tag_123\n            /* \"#utility.yul\":5315:5318   */\n          dup3\n            /* \"#utility.yul\":5226:5319   */\n          tag_59\n          jump\t// in\n        tag_123:\n            /* \"#utility.yul\":5344:5346   */\n          0x20\n            /* \"#utility.yul\":5339:5342   */\n          dup3\n            /* \"#utility.yul\":5335:5347   */\n          add\n            /* \"#utility.yul\":5328:5347   */\n          swap1\n          pop\n            /* \"#utility.yul\":4987:5353   */\n          swap2\n          swap1\n          pop\n          jump\t// out\n            /* \"#utility.yul\":5359:5778   */\n        tag_8:\n            /* \"#utility.yul\":5525:5529   */\n          0x00\n            /* \"#utility.yul\":5563:5565   */\n          0x20\n            /* \"#utility.yul\":5552:5561   */\n          dup3\n            /* \"#utility.yul\":5548:5566   */\n          add\n            /* \"#utility.yul\":5540:5566   */\n          swap1\n          pop\n            /* \"#utility.yul\":5612:5621   */\n          dup2\n            /* \"#utility.yul\":5606:5610   */\n          dup2\n            /* \"#utility.yul\":5602:5622   */\n          sub\n            /* \"#utility.yul\":5598:5599   */\n          0x00\n            /* \"#utility.yul\":5587:5596   */\n          dup4\n            /* \"#utility.yul\":5583:5600   */\n          add\n            /* \"#utility.yul\":5576:5623   */\n          mstore\n            /* \"#utility.yul\":5640:5771   */\n          tag_125\n            /* \"#utility.yul\":5766:5770   */\n          dup2\n            /* \"#utility.yul\":5640:5771   */\n          tag_60\n          jump\t// in\n        tag_125:\n            /* \"#utility.yul\":5632:5771   */\n          swap1\n          pop\n            /* \"#utility.yul\":5359:5778   */\n          swap2\n          swap1\n          pop\n          jump\t// out\n            /* \"#utility.yul\":5784:5964   */\n        tag_13:\n            /* \"#utility.yul\":5832:5909   */\n          0x4e487b7100000000000000000000000000000000000000000000000000000000\n            /* \"#utility.yul\":5829:5830   */\n          0x00\n            /* \"#utility.yul\":5822:5910   */\n          mstore\n            /* \"#utility.yul\":5929:5933   */\n          0x21\n            /* \"#utility.yul\":5926:5927   */\n          0x04\n            /* \"#utility.yul\":5919:5934   */\n          mstore\n            /* \"#utility.yul\":5953:5957   */\n          0x24\n            /* \"#utility.yul\":5950:5951   */\n          0x00\n            /* \"#utility.yul\":5943:5958   */\n          revert\n            /* \"#utility.yul\":5970:6150   */\n        tag_61:\n            /* \"#utility.yul\":6018:6095   */\n          0x4e487b7100000000000000000000000000000000000000000000000000000000\n            /* \"#utility.yul\":6015:6016   */\n          0x00\n            /* \"#utility.yul\":6008:6096   */\n          mstore\n            /* \"#utility.yul\":6115:6119   */\n          0x22\n            /* \"#utility.yul\":6112:6113   */\n          0x04\n            /* \"#utility.yul\":6105:6120   */\n          mstore\n            /* \"#utility.yul\":6139:6143   */\n          0x24\n            /* \"#utility.yul\":6136:6137   */\n          0x00\n            /* \"#utility.yul\":6129:6144   */\n          revert\n            /* \"#utility.yul\":6156:6476   */\n        tag_28:\n            /* \"#utility.yul\":6200:6206   */\n          0x00\n            /* \"#utility.yul\":6237:6238   */\n          0x02\n            /* \"#utility.yul\":6231:6235   */\n          dup3\n            /* \"#utility.yul\":6227:6239   */\n          div\n            /* \"#utility.yul\":6217:6239   */\n          swap1\n          pop\n            /* \"#utility.yul\":6284:6285   */\n          0x01\n            /* \"#utility.yul\":6278:6282   */\n          dup3\n            /* \"#utility.yul\":6274:6286   */\n          and\n            /* \"#utility.yul\":6305:6323   */\n          dup1\n            /* \"#utility.yul\":6295:6376   */\n          tag_129\n          jumpi\n            /* \"#utility.yul\":6361:6365   */\n          0x7f\n            /* \"#utility.yul\":6353:6359   */\n          dup3\n            /* \"#utility.yul\":6349:6366   */\n          and\n            /* \"#utility.yul\":6339:6366   */\n          swap2\n          pop\n            /* \"#utility.yul\":6295:6376   */\n        tag_129:\n            /* \"#utility.yul\":6423:6425   */\n          0x20\n            /* \"#utility.yul\":6415:6421   */\n          dup3\n            /* \"#utility.yul\":6412:6426   */\n          lt\n            /* \"#utility.yul\":6392:6410   */\n          dup2\n            /* \"#utility.yul\":6389:6427   */\n          sub\n            /* \"#utility.yul\":6386:6470   */\n          tag_130\n          jumpi\n            /* \"#utility.yul\":6442:6460   */\n          tag_131\n          tag_61\n          jump\t// in\n        tag_131:\n            /* \"#utility.yul\":6386:6470   */\n        tag_130:\n            /* \"#utility.yul\":6207:6476   */\n          pop\n            /* \"#utility.yul\":6156:6476   */\n          swap2\n          swap1\n          pop\n          jump\t// out\n            /* \"VotingSystem.sol\":599:5043  contract VotingSystem{... */\n        tag_26:\n          dataSize(sub_0)\n          dup1\n          dataOffset(sub_0)\n          0x00\n          codecopy\n          0x00\n          return\n        stop\n\n        sub_0: assembly {\n                /* \"VotingSystem.sol\":599:5043  contract VotingSystem{... */\n              mstore(0x40, 0x80)\n              jumpi(tag_1, lt(calldatasize, 0x04))\n              shr(0xe0, calldataload(0x00))\n              dup1\n              0x07be7e91\n              eq\n              tag_2\n              jumpi\n              dup1\n              0x119d4ddb\n              eq\n              tag_3\n              jumpi\n              dup1\n              0x18abf078\n              eq\n              tag_4\n              jumpi\n              dup1\n              0x81f539ff\n              eq\n              tag_5\n              jumpi\n              dup1\n              0x92434d7c\n              eq\n              tag_6\n              jumpi\n              dup1\n              0xb3f98adc\n              eq\n              tag_7\n              jumpi\n            tag_1:\n              0x00\n              dup1\n              revert\n                /* \"VotingSystem.sol\":3312:3697  function approveCandidate(address _address) public {... */\n            tag_2:\n              callvalue\n              dup1\n              iszero\n              tag_8\n              jumpi\n              0x00\n              dup1\n              revert\n            tag_8:\n              pop\n              tag_9\n              0x04\n              dup1\n              calldatasize\n              sub\n              dup2\n              add\n              swap1\n              tag_10\n              swap2\n              swap1\n              tag_11\n              jump\t// in\n            tag_10:\n              tag_12\n              jump\t// in\n            tag_9:\n              stop\n                /* \"VotingSystem.sol\":4351:4688  function approveVoter(address votersAddress) public onlyAdmin{... */\n            tag_3:\n              callvalue\n              dup1\n              iszero\n              tag_13\n              jumpi\n              0x00\n              dup1\n              revert\n            tag_13:\n              pop\n              tag_14\n              0x04\n              dup1\n              calldatasize\n              sub\n              dup2\n              add\n              swap1\n              tag_15\n              swap2\n              swap1\n              tag_11\n              jump\t// in\n            tag_15:\n              tag_16\n              jump\t// in\n            tag_14:\n              stop\n                /* \"VotingSystem.sol\":2621:2860  function registerVoter(string memory _name, uint8 _age, uint _aadharNumber, uint _phone) public {... */\n            tag_4:\n              callvalue\n              dup1\n              iszero\n              tag_17\n              jumpi\n              0x00\n              dup1\n              revert\n            tag_17:\n              pop\n              tag_18\n              0x04\n              dup1\n              calldatasize\n              sub\n              dup2\n              add\n              swap1\n              tag_19\n              swap2\n              swap1\n              tag_20\n              jump\t// in\n            tag_19:\n              tag_21\n              jump\t// in\n            tag_18:\n              stop\n                /* \"VotingSystem.sol\":4696:4952  function getPersonalInfo() public view returns(string memory, uint8, uint, uint, Status) {... */\n            tag_5:\n              callvalue\n              dup1\n              iszero\n              tag_22\n              jumpi\n              0x00\n              dup1\n              revert\n            tag_22:\n              pop\n              tag_23\n              tag_24\n              jump\t// in\n            tag_23:\n              mload(0x40)\n              tag_25\n              swap6\n              swap5\n              swap4\n              swap3\n              swap2\n              swap1\n              tag_26\n              jump\t// in\n            tag_25:\n              mload(0x40)\n              dup1\n              swap2\n              sub\n              swap1\n              return\n                /* \"VotingSystem.sol\":2894:3303  function registerCandidate(string memory _name, string memory _party, uint8 _age, uint _aadharNumber) public payable {... */\n            tag_6:\n              tag_27\n              0x04\n              dup1\n              calldatasize\n              sub\n              dup2\n              add\n              swap1\n              tag_28\n              swap2\n              swap1\n              tag_29\n              jump\t// in\n            tag_28:\n              tag_30\n              jump\t// in\n            tag_27:\n              stop\n                /* \"VotingSystem.sol\":2285:2547  function vote(uint8 index) public {... */\n            tag_7:\n              callvalue\n              dup1\n              iszero\n              tag_31\n              jumpi\n              0x00\n              dup1\n              revert\n            tag_31:\n              pop\n              tag_32\n              0x04\n              dup1\n              calldatasize\n              sub\n              dup2\n              add\n              swap1\n              tag_33\n              swap2\n              swap1\n              tag_34\n              jump\t// in\n            tag_33:\n              tag_35\n              jump\t// in\n            tag_32:\n              stop\n                /* \"VotingSystem.sol\":3312:3697  function approveCandidate(address _address) public {... */\n            tag_12:\n                /* \"VotingSystem.sol\":3500:3517  Status.registered */\n              0x00\n                /* \"VotingSystem.sol\":3460:3517  candidates[_address].candidateStatus == Status.registered */\n              0x02\n              dup2\n              gt\n              iszero\n              tag_37\n              jumpi\n              tag_38\n              tag_39\n              jump\t// in\n            tag_38:\n            tag_37:\n                /* \"VotingSystem.sol\":3460:3470  candidates */\n              0x05\n                /* \"VotingSystem.sol\":3460:3480  candidates[_address] */\n              0x00\n                /* \"VotingSystem.sol\":3471:3479  _address */\n              dup4\n                /* \"VotingSystem.sol\":3460:3480  candidates[_address] */\n              0xffffffffffffffffffffffffffffffffffffffff\n              and\n              0xffffffffffffffffffffffffffffffffffffffff\n              and\n              dup2\n              mstore\n              0x20\n              add\n              swap1\n              dup2\n              mstore\n              0x20\n              add\n              0x00\n              keccak256\n                /* \"VotingSystem.sol\":3460:3496  candidates[_address].candidateStatus */\n              0x04\n              add\n              0x00\n              swap1\n              sload\n              swap1\n              0x0100\n              exp\n              swap1\n              div\n              0xff\n              and\n                /* \"VotingSystem.sol\":3460:3517  candidates[_address].candidateStatus == Status.registered */\n              0x02\n              dup2\n              gt\n              iszero\n              tag_40\n              jumpi\n              tag_41\n              tag_39\n              jump\t// in\n            tag_41:\n            tag_40:\n              eq\n                /* \"VotingSystem.sol\":3452:3545  require(candidates[_address].candidateStatus == Status.registered,\"Candidate not registered\") */\n              tag_42\n              jumpi\n              mload(0x40)\n              0x08c379a000000000000000000000000000000000000000000000000000000000\n              dup2\n              mstore\n              0x04\n              add\n              tag_43\n              swap1\n              tag_44\n              jump\t// in\n            tag_43:\n              mload(0x40)\n              dup1\n              swap2\n              sub\n              swap1\n              revert\n            tag_42:\n                /* \"VotingSystem.sol\":3592:3594  30 */\n              0x1e\n                /* \"VotingSystem.sol\":3564:3574  candidates */\n              0x05\n                /* \"VotingSystem.sol\":3564:3584  candidates[_address] */\n              0x00\n                /* \"VotingSystem.sol\":3575:3583  _address */\n              dup4\n                /* \"VotingSystem.sol\":3564:3584  candidates[_address] */\n              0xffffffffffffffffffffffffffffffffffffffff\n              and\n              0xffffffffffffffffffffffffffffffffffffffff\n              and\n              dup2\n              mstore\n              0x20\n              add\n              swap1\n              dup2\n              mstore\n              0x20\n              add\n              0x00\n              keccak256\n                /* \"VotingSystem.sol\":3564:3588  candidates[_address].age */\n              0x02\n              add\n              0x00\n              swap1\n              sload\n              swap1\n              0x0100\n              exp\n              swap1\n              div\n              0xff\n              and\n                /* \"VotingSystem.sol\":3564:3594  candidates[_address].age >= 30 */\n              0xff\n              and\n              lt\n              iszero\n                /* \"VotingSystem.sol\":3556:3624  require(candidates[_address].age >= 30, \"Candidate is not eligible\") */\n              tag_45\n              jumpi\n              mload(0x40)\n              0x08c379a000000000000000000000000000000000000000000000000000000000\n              dup2\n              mstore\n              0x04\n              add\n              tag_46\n              swap1\n              tag_47\n              jump\t// in\n            tag_46:\n              mload(0x40)\n              dup1\n              swap2\n              sub\n              swap1\n              revert\n            tag_45:\n                /* \"VotingSystem.sol\":3674:3689  Status.approved */\n              0x01\n                /* \"VotingSystem.sol\":3635:3645  candidates */\n              0x05\n                /* \"VotingSystem.sol\":3635:3655  candidates[_address] */\n              0x00\n                /* \"VotingSystem.sol\":3646:3654  _address */\n              dup4\n                /* \"VotingSystem.sol\":3635:3655  candidates[_address] */\n              0xffffffffffffffffffffffffffffffffffffffff\n              and\n              0xffffffffffffffffffffffffffffffffffffffff\n              and\n              dup2\n              mstore\n              0x20\n              add\n              swap1\n              dup2\n              mstore\n              0x20\n              add\n              0x00\n              keccak256\n                /* \"VotingSystem.sol\":3635:3671  candidates[_address].candidateStatus */\n              0x04\n              add\n              0x00\n                /* \"VotingSystem.sol\":3635:3689  candidates[_address].candidateStatus = Status.approved */\n              0x0100\n              exp\n              dup2\n              sload\n              dup2\n              0xff\n              mul\n              not\n              and\n              swap1\n              dup4\n              0x02\n              dup2\n              gt\n              iszero\n              tag_48\n              jumpi\n              tag_49\n              tag_39\n              jump\t// in\n            tag_49:\n            tag_48:\n              mul\n              or\n              swap1\n              sstore\n              pop\n                /* \"VotingSystem.sol\":3312:3697  function approveCandidate(address _address) public {... */\n              pop\n              jump\t// out\n                /* \"VotingSystem.sol\":4351:4688  function approveVoter(address votersAddress) public onlyAdmin{... */\n            tag_16:\n                /* \"VotingSystem.sol\":1798:1808  msg.sender */\n              caller\n                /* \"VotingSystem.sol\":1781:1808  administrator == msg.sender */\n              0xffffffffffffffffffffffffffffffffffffffff\n              and\n                /* \"VotingSystem.sol\":1781:1794  administrator */\n              0x00\n              dup1\n              sload\n              swap1\n              0x0100\n              exp\n              swap1\n              div\n              0xffffffffffffffffffffffffffffffffffffffff\n              and\n                /* \"VotingSystem.sol\":1781:1808  administrator == msg.sender */\n              0xffffffffffffffffffffffffffffffffffffffff\n              and\n              eq\n                /* \"VotingSystem.sol\":1773:1863  require(administrator == msg.sender, \"Only administrators have the access to this action\") */\n              tag_51\n              jumpi\n              mload(0x40)\n              0x08c379a000000000000000000000000000000000000000000000000000000000\n              dup2\n              mstore\n              0x04\n              add\n              tag_52\n              swap1\n              tag_53\n              jump\t// in\n            tag_52:\n              mload(0x40)\n              dup1\n              swap2\n              sub\n              swap1\n              revert\n            tag_51:\n                /* \"VotingSystem.sol\":4467:4484  Status.registered */\n              0x00\n                /* \"VotingSystem.sol\":4431:4484  voters[votersAddress].currStatus == Status.registered */\n              0x02\n              dup2\n              gt\n              iszero\n              tag_55\n              jumpi\n              tag_56\n              tag_39\n              jump\t// in\n            tag_56:\n            tag_55:\n                /* \"VotingSystem.sol\":4431:4437  voters */\n              0x03\n                /* \"VotingSystem.sol\":4431:4452  voters[votersAddress] */\n              0x00\n                /* \"VotingSystem.sol\":4438:4451  votersAddress */\n              dup4\n                /* \"VotingSystem.sol\":4431:4452  voters[votersAddress] */\n              0xffffffffffffffffffffffffffffffffffffffff\n              and\n              0xffffffffffffffffffffffffffffffffffffffff\n              and\n              dup2\n              mstore\n              0x20\n              add\n              swap1\n              dup2\n              mstore\n              0x20\n              add\n              0x00\n              keccak256\n                /* \"VotingSystem.sol\":4431:4463  voters[votersAddress].currStatus */\n              0x04\n              add\n              0x00\n              swap1\n              sload\n              swap1\n              0x0100\n              exp\n              swap1\n              div\n              0xff\n              and\n                /* \"VotingSystem.sol\":4431:4484  voters[votersAddress].currStatus == Status.registered */\n              0x02\n              dup2\n              gt\n              iszero\n              tag_57\n              jumpi\n              tag_58\n              tag_39\n              jump\t// in\n            tag_58:\n            tag_57:\n              eq\n                /* \"VotingSystem.sol\":4423:4543  require(voters[votersAddress].currStatus == Status.registered, \"Either the voter is not registered or already approved\") */\n              tag_59\n              jumpi\n              mload(0x40)\n              0x08c379a000000000000000000000000000000000000000000000000000000000\n              dup2\n              mstore\n              0x04\n              add\n              tag_60\n              swap1\n              tag_61\n              jump\t// in\n            tag_60:\n              mload(0x40)\n              dup1\n              swap2\n              sub\n              swap1\n              revert\n            tag_59:\n                /* \"VotingSystem.sol\":4591:4593  18 */\n              0x12\n                /* \"VotingSystem.sol\":4562:4568  voters */\n              0x03\n                /* \"VotingSystem.sol\":4562:4583  voters[votersAddress] */\n              0x00\n                /* \"VotingSystem.sol\":4569:4582  votersAddress */\n              dup4\n                /* \"VotingSystem.sol\":4562:4583  voters[votersAddress] */\n              0xffffffffffffffffffffffffffffffffffffffff\n              and\n              0xffffffffffffffffffffffffffffffffffffffff\n              and\n              dup2\n              mstore\n              0x20\n              add\n              swap1\n              dup2\n              mstore\n              0x20\n              add\n              0x00\n              keccak256\n                /* \"VotingSystem.sol\":4562:4587  voters[votersAddress].age */\n              0x01\n              add\n              0x00\n              swap1\n              sload\n              swap1\n              0x0100\n              exp\n              swap1\n              div\n              0xff\n              and\n                /* \"VotingSystem.sol\":4562:4593  voters[votersAddress].age >= 18 */\n              0xff\n              and\n              lt\n              iszero\n                /* \"VotingSystem.sol\":4554:4619  require(voters[votersAddress].age >= 18, \"Not an eligible voter\") */\n              tag_62\n              jumpi\n              mload(0x40)\n              0x08c379a000000000000000000000000000000000000000000000000000000000\n              dup2\n              mstore\n              0x04\n              add\n              tag_63\n              swap1\n              tag_64\n              jump\t// in\n            tag_63:\n              mload(0x40)\n              dup1\n              swap2\n              sub\n              swap1\n              revert\n            tag_62:\n                /* \"VotingSystem.sol\":4665:4680  Status.approved */\n              0x01\n                /* \"VotingSystem.sol\":4630:4636  voters */\n              0x03\n                /* \"VotingSystem.sol\":4630:4651  voters[votersAddress] */\n              0x00\n                /* \"VotingSystem.sol\":4637:4650  votersAddress */\n              dup4\n                /* \"VotingSystem.sol\":4630:4651  voters[votersAddress] */\n              0xffffffffffffffffffffffffffffffffffffffff\n              and\n              0xffffffffffffffffffffffffffffffffffffffff\n              and\n              dup2\n              mstore\n              0x20\n              add\n              swap1\n              dup2\n              mstore\n              0x20\n              add\n              0x00\n              keccak256\n                /* \"VotingSystem.sol\":4630:4662  voters[votersAddress].currStatus */\n              0x04\n              add\n              0x00\n                /* \"VotingSystem.sol\":4630:4680  voters[votersAddress].currStatus = Status.approved */\n              0x0100\n              exp\n              dup2\n              sload\n              dup2\n              0xff\n              mul\n              not\n              and\n              swap1\n              dup4\n              0x02\n              dup2\n              gt\n              iszero\n              tag_65\n              jumpi\n              tag_66\n              tag_39\n              jump\t// in\n            tag_66:\n            tag_65:\n              mul\n              or\n              swap1\n              sstore\n              pop\n                /* \"VotingSystem.sol\":4351:4688  function approveVoter(address votersAddress) public onlyAdmin{... */\n              pop\n              jump\t// out\n                /* \"VotingSystem.sol\":2621:2860  function registerVoter(string memory _name, uint8 _age, uint _aadharNumber, uint _phone) public {... */\n            tag_21:\n                /* \"VotingSystem.sol\":2728:2749  Voter memory newVoter */\n              0x00\n                /* \"VotingSystem.sol\":2752:2812  Voter(_name, _age, _aadharNumber, _phone, Status.registered) */\n              mload(0x40)\n              dup1\n              0xa0\n              add\n              0x40\n              mstore\n              dup1\n                /* \"VotingSystem.sol\":2758:2763  _name */\n              dup7\n                /* \"VotingSystem.sol\":2752:2812  Voter(_name, _age, _aadharNumber, _phone, Status.registered) */\n              dup2\n              mstore\n              0x20\n              add\n                /* \"VotingSystem.sol\":2765:2769  _age */\n              dup6\n                /* \"VotingSystem.sol\":2752:2812  Voter(_name, _age, _aadharNumber, _phone, Status.registered) */\n              0xff\n              and\n              dup2\n              mstore\n              0x20\n              add\n                /* \"VotingSystem.sol\":2771:2784  _aadharNumber */\n              dup5\n                /* \"VotingSystem.sol\":2752:2812  Voter(_name, _age, _aadharNumber, _phone, Status.registered) */\n              dup2\n              mstore\n              0x20\n              add\n                /* \"VotingSystem.sol\":2786:2792  _phone */\n              dup4\n                /* \"VotingSystem.sol\":2752:2812  Voter(_name, _age, _aadharNumber, _phone, Status.registered) */\n              dup2\n              mstore\n              0x20\n              add\n                /* \"VotingSystem.sol\":2794:2811  Status.registered */\n              0x00\n                /* \"VotingSystem.sol\":2752:2812  Voter(_name, _age, _aadharNumber, _phone, Status.registered) */\n              0x02\n              dup2\n              gt\n              iszero\n              tag_68\n              jumpi\n              tag_69\n              tag_39\n              jump\t// in\n            tag_69:\n            tag_68:\n              dup2\n              mstore\n              pop\n                /* \"VotingSystem.sol\":2728:2812  Voter memory newVoter = Voter(_name, _age, _aadharNumber, _phone, Status.registered) */\n              swap1\n              pop\n                /* \"VotingSystem.sol\":2844:2852  newVoter */\n              dup1\n                /* \"VotingSystem.sol\":2823:2829  voters */\n              0x03\n                /* \"VotingSystem.sol\":2823:2841  voters[msg.sender] */\n              0x00\n                /* \"VotingSystem.sol\":2830:2840  msg.sender */\n              caller\n                /* \"VotingSystem.sol\":2823:2841  voters[msg.sender] */\n              0xffffffffffffffffffffffffffffffffffffffff\n              and\n              0xffffffffffffffffffffffffffffffffffffffff\n              and\n              dup2\n              mstore\n              0x20\n              add\n              swap1\n              dup2\n              mstore\n              0x20\n              add\n              0x00\n              keccak256\n                /* \"VotingSystem.sol\":2823:2852  voters[msg.sender] = newVoter */\n              0x00\n              dup3\n              add\n              mload\n              dup2\n              0x00\n              add\n              swap1\n              dup1\n              mload\n              swap1\n              0x20\n              add\n              swap1\n              tag_70\n              swap3\n              swap2\n              swap1\n              tag_71\n              jump\t// in\n            tag_70:\n              pop\n              0x20\n              dup3\n              add\n              mload\n              dup2\n              0x01\n              add\n              exp(0x0100, 0x00)\n              dup2\n              sload\n              dup2\n              0xff\n              mul\n              not\n              and\n              swap1\n              dup4\n              0xff\n              and\n              mul\n              or\n              swap1\n              sstore\n              pop\n              0x40\n              dup3\n              add\n              mload\n              dup2\n              0x02\n              add\n              sstore\n              0x60\n              dup3\n              add\n              mload\n              dup2\n              0x03\n              add\n              sstore\n              0x80\n              dup3\n              add\n              mload\n              dup2\n              0x04\n              add\n              exp(0x0100, 0x00)\n              dup2\n              sload\n              dup2\n              0xff\n              mul\n              not\n              and\n              swap1\n              dup4\n              0x02\n              dup2\n              gt\n              iszero\n              tag_72\n              jumpi\n              tag_73\n              tag_39\n              jump\t// in\n            tag_73:\n            tag_72:\n              mul\n              or\n              swap1\n              sstore\n              pop\n              swap1\n              pop\n              pop\n                /* \"VotingSystem.sol\":2717:2860  {... */\n              pop\n                /* \"VotingSystem.sol\":2621:2860  function registerVoter(string memory _name, uint8 _age, uint _aadharNumber, uint _phone) public {... */\n              pop\n              pop\n              pop\n              pop\n              jump\t// out\n                /* \"VotingSystem.sol\":4696:4952  function getPersonalInfo() public view returns(string memory, uint8, uint, uint, Status) {... */\n            tag_24:\n                /* \"VotingSystem.sol\":4743:4756  string memory */\n              0x60\n                /* \"VotingSystem.sol\":4758:4763  uint8 */\n              0x00\n                /* \"VotingSystem.sol\":4765:4769  uint */\n              dup1\n                /* \"VotingSystem.sol\":4771:4775  uint */\n              0x00\n                /* \"VotingSystem.sol\":4777:4783  Status */\n              dup1\n                /* \"VotingSystem.sol\":4796:4816  Voter memory prsInfo */\n              0x00\n                /* \"VotingSystem.sol\":4819:4825  voters */\n              0x03\n                /* \"VotingSystem.sol\":4819:4837  voters[msg.sender] */\n              0x00\n                /* \"VotingSystem.sol\":4826:4836  msg.sender */\n              caller\n                /* \"VotingSystem.sol\":4819:4837  voters[msg.sender] */\n              0xffffffffffffffffffffffffffffffffffffffff\n              and\n              0xffffffffffffffffffffffffffffffffffffffff\n              and\n              dup2\n              mstore\n              0x20\n              add\n              swap1\n              dup2\n              mstore\n              0x20\n              add\n              0x00\n              keccak256\n                /* \"VotingSystem.sol\":4796:4837  Voter memory prsInfo = voters[msg.sender] */\n              mload(0x40)\n              dup1\n              0xa0\n              add\n              0x40\n              mstore\n              swap1\n              dup2\n              0x00\n              dup3\n              add\n              dup1\n              sload\n              tag_75\n              swap1\n              tag_76\n              jump\t// in\n            tag_75:\n              dup1\n              0x1f\n              add\n              0x20\n              dup1\n              swap2\n              div\n              mul\n              0x20\n              add\n              mload(0x40)\n              swap1\n              dup2\n              add\n              0x40\n              mstore\n              dup1\n              swap3\n              swap2\n              swap1\n              dup2\n              dup2\n              mstore\n              0x20\n              add\n              dup3\n              dup1\n              sload\n              tag_77\n              swap1\n              tag_76\n              jump\t// in\n            tag_77:\n              dup1\n              iszero\n              tag_78\n              jumpi\n              dup1\n              0x1f\n              lt\n              tag_79\n              jumpi\n              0x0100\n              dup1\n              dup4\n              sload\n              div\n              mul\n              dup4\n              mstore\n              swap2\n              0x20\n              add\n              swap2\n              jump(tag_78)\n            tag_79:\n              dup3\n              add\n              swap2\n              swap1\n              0x00\n              mstore\n              keccak256(0x00, 0x20)\n              swap1\n            tag_80:\n              dup2\n              sload\n              dup2\n              mstore\n              swap1\n              0x01\n              add\n              swap1\n              0x20\n              add\n              dup1\n              dup4\n              gt\n              tag_80\n              jumpi\n              dup3\n              swap1\n              sub\n              0x1f\n              and\n              dup3\n              add\n              swap2\n            tag_78:\n              pop\n              pop\n              pop\n              pop\n              pop\n              dup2\n              mstore\n              0x20\n              add\n              0x01\n              dup3\n              add\n              0x00\n              swap1\n              sload\n              swap1\n              0x0100\n              exp\n              swap1\n              div\n              0xff\n              and\n              0xff\n              and\n              0xff\n              and\n              dup2\n              mstore\n              0x20\n              add\n              0x02\n              dup3\n              add\n              sload\n              dup2\n              mstore\n              0x20\n              add\n              0x03\n              dup3\n              add\n              sload\n              dup2\n              mstore\n              0x20\n              add\n              0x04\n              dup3\n              add\n              0x00\n              swap1\n              sload\n              swap1\n              0x0100\n              exp\n              swap1\n              div\n              0xff\n              and\n              0x02\n              dup2\n              gt\n              iszero\n              tag_81\n              jumpi\n              tag_82\n              tag_39\n              jump\t// in\n            tag_82:\n            tag_81:\n              0x02\n              dup2\n              gt\n              iszero\n              tag_83\n              jumpi\n              tag_84\n              tag_39\n              jump\t// in\n            tag_84:\n            tag_83:\n              dup2\n              mstore\n              pop\n              pop\n              swap1\n              pop\n                /* \"VotingSystem.sol\":4855:4862  prsInfo */\n              dup1\n                /* \"VotingSystem.sol\":4855:4867  prsInfo.name */\n              0x00\n              add\n              mload\n                /* \"VotingSystem.sol\":4869:4876  prsInfo */\n              dup2\n                /* \"VotingSystem.sol\":4869:4880  prsInfo.age */\n              0x20\n              add\n              mload\n                /* \"VotingSystem.sol\":4882:4889  prsInfo */\n              dup3\n                /* \"VotingSystem.sol\":4882:4902  prsInfo.aadharNumber */\n              0x40\n              add\n              mload\n                /* \"VotingSystem.sol\":4904:4911  prsInfo */\n              dup4\n                /* \"VotingSystem.sol\":4904:4923  prsInfo.phoneNumber */\n              0x60\n              add\n              mload\n                /* \"VotingSystem.sol\":4925:4932  prsInfo */\n              dup5\n                /* \"VotingSystem.sol\":4925:4943  prsInfo.currStatus */\n              0x80\n              add\n              mload\n                /* \"VotingSystem.sol\":4848:4944  return(prsInfo.name, prsInfo.age, prsInfo.aadharNumber, prsInfo.phoneNumber, prsInfo.currStatus) */\n              swap6\n              pop\n              swap6\n              pop\n              swap6\n              pop\n              swap6\n              pop\n              swap6\n              pop\n              pop\n                /* \"VotingSystem.sol\":4696:4952  function getPersonalInfo() public view returns(string memory, uint8, uint, uint, Status) {... */\n              swap1\n              swap2\n              swap3\n              swap4\n              swap5\n              jump\t// out\n                /* \"VotingSystem.sol\":2894:3303  function registerCandidate(string memory _name, string memory _party, uint8 _age, uint _aadharNumber) public payable {... */\n            tag_30:\n                /* \"VotingSystem.sol\":3022:3051  Candidate memory newCandidate */\n              0x00\n                /* \"VotingSystem.sol\":3054:3118  Candidate(_name, _party, _age, _aadharNumber, Status.registered) */\n              mload(0x40)\n              dup1\n              0xa0\n              add\n              0x40\n              mstore\n              dup1\n                /* \"VotingSystem.sol\":3064:3069  _name */\n              dup7\n                /* \"VotingSystem.sol\":3054:3118  Candidate(_name, _party, _age, _aadharNumber, Status.registered) */\n              dup2\n              mstore\n              0x20\n              add\n                /* \"VotingSystem.sol\":3071:3077  _party */\n              dup6\n                /* \"VotingSystem.sol\":3054:3118  Candidate(_name, _party, _age, _aadharNumber, Status.registered) */\n              dup2\n              mstore\n              0x20\n              add\n                /* \"VotingSystem.sol\":3079:3083  _age */\n              dup5\n                /* \"VotingSystem.sol\":3054:3118  Candidate(_name, _party, _age, _aadharNumber, Status.registered) */\n              0xff\n              and\n              dup2\n              mstore\n              0x20\n              add\n                /* \"VotingSystem.sol\":3085:3098  _aadharNumber */\n              dup4\n                /* \"VotingSystem.sol\":3054:3118  Candidate(_name, _party, _age, _aadharNumber, Status.registered) */\n              dup2\n              mstore\n              0x20\n              add\n                /* \"VotingSystem.sol\":3100:3117  Status.registered */\n              0x00\n                /* \"VotingSystem.sol\":3054:3118  Candidate(_name, _party, _age, _aadharNumber, Status.registered) */\n              0x02\n              dup2\n              gt\n              iszero\n              tag_86\n              jumpi\n              tag_87\n              tag_39\n              jump\t// in\n            tag_87:\n            tag_86:\n              dup2\n              mstore\n              pop\n                /* \"VotingSystem.sol\":3022:3118  Candidate memory newCandidate = Candidate(_name, _party, _age, _aadharNumber, Status.registered) */\n              swap1\n              pop\n                /* \"VotingSystem.sol\":3154:3166  newCandidate */\n              dup1\n                /* \"VotingSystem.sol\":3129:3139  candidates */\n              0x05\n                /* \"VotingSystem.sol\":3129:3151  candidates[msg.sender] */\n              0x00\n                /* \"VotingSystem.sol\":3140:3150  msg.sender */\n              caller\n                /* \"VotingSystem.sol\":3129:3151  candidates[msg.sender] */\n              0xffffffffffffffffffffffffffffffffffffffff\n              and\n              0xffffffffffffffffffffffffffffffffffffffff\n              and\n              dup2\n              mstore\n              0x20\n              add\n              swap1\n              dup2\n              mstore\n              0x20\n              add\n              0x00\n              keccak256\n                /* \"VotingSystem.sol\":3129:3166  candidates[msg.sender] = newCandidate */\n              0x00\n              dup3\n              add\n              mload\n              dup2\n              0x00\n              add\n              swap1\n              dup1\n              mload\n              swap1\n              0x20\n              add\n              swap1\n              tag_88\n              swap3\n              swap2\n              swap1\n              tag_71\n              jump\t// in\n            tag_88:\n              pop\n              0x20\n              dup3\n              add\n              mload\n              dup2\n              0x01\n              add\n              swap1\n              dup1\n              mload\n              swap1\n              0x20\n              add\n              swap1\n              tag_89\n              swap3\n              swap2\n              swap1\n              tag_71\n              jump\t// in\n            tag_89:\n              pop\n              0x40\n              dup3\n              add\n              mload\n              dup2\n              0x02\n              add\n              exp(0x0100, 0x00)\n              dup2\n              sload\n              dup2\n              0xff\n              mul\n              not\n              and\n              swap1\n              dup4\n              0xff\n              and\n              mul\n              or\n              swap1\n              sstore\n              pop\n              0x60\n              dup3\n              add\n              mload\n              dup2\n              0x03\n              add\n              sstore\n              0x80\n              dup3\n              add\n              mload\n              dup2\n              0x04\n              add\n              exp(0x0100, 0x00)\n              dup2\n              sload\n              dup2\n              0xff\n              mul\n              not\n              and\n              swap1\n              dup4\n              0x02\n              dup2\n              gt\n              iszero\n              tag_90\n              jumpi\n              tag_91\n              tag_39\n              jump\t// in\n            tag_91:\n            tag_90:\n              mul\n              or\n              swap1\n              sstore\n              pop\n              swap1\n              pop\n              pop\n                /* \"VotingSystem.sol\":3198:3205  1 ether */\n              0x0de0b6b3a7640000\n                /* \"VotingSystem.sol\":3185:3194  msg.value */\n              callvalue\n                /* \"VotingSystem.sol\":3185:3205  msg.value == 1 ether */\n              eq\n                /* \"VotingSystem.sol\":3177:3251  require(msg.value == 1 ether, \"Amount should be exactly equal to 1 ETHER\") */\n              tag_92\n              jumpi\n              mload(0x40)\n              0x08c379a000000000000000000000000000000000000000000000000000000000\n              dup2\n              mstore\n              0x04\n              add\n              tag_93\n              swap1\n              tag_94\n              jump\t// in\n            tag_93:\n              mload(0x40)\n              dup1\n              swap2\n              sub\n              swap1\n              revert\n            tag_92:\n                /* \"VotingSystem.sol\":3262:3275  administrator */\n              0x00\n              dup1\n              sload\n              swap1\n              0x0100\n              exp\n              swap1\n              div\n              0xffffffffffffffffffffffffffffffffffffffff\n              and\n                /* \"VotingSystem.sol\":3262:3284  administrator.transfer */\n              0xffffffffffffffffffffffffffffffffffffffff\n              and\n                /* \"VotingSystem.sol\":3262:3295  administrator.transfer(msg.value) */\n              0x08fc\n                /* \"VotingSystem.sol\":3285:3294  msg.value */\n              callvalue\n                /* \"VotingSystem.sol\":3262:3295  administrator.transfer(msg.value) */\n              swap1\n              dup2\n              iszero\n              mul\n              swap1\n              mload(0x40)\n              0x00\n              mload(0x40)\n              dup1\n              dup4\n              sub\n              dup2\n              dup6\n              dup9\n              dup9\n              call\n              swap4\n              pop\n              pop\n              pop\n              pop\n              iszero\n              dup1\n              iszero\n              tag_96\n              jumpi\n              returndatasize\n              0x00\n              dup1\n              returndatacopy\n              revert(0x00, returndatasize)\n            tag_96:\n              pop\n                /* \"VotingSystem.sol\":3011:3303  {... */\n              pop\n                /* \"VotingSystem.sol\":2894:3303  function registerCandidate(string memory _name, string memory _party, uint8 _age, uint _aadharNumber) public payable {... */\n              pop\n              pop\n              pop\n              pop\n              jump\t// out\n                /* \"VotingSystem.sol\":2285:2547  function vote(uint8 index) public {... */\n            tag_35:\n                /* \"VotingSystem.sol\":2371:2386  Status.approved */\n              0x01\n                /* \"VotingSystem.sol\":2338:2386  voters[msg.sender].currStatus == Status.approved */\n              0x02\n              dup2\n              gt\n              iszero\n              tag_98\n              jumpi\n              tag_99\n              tag_39\n              jump\t// in\n            tag_99:\n            tag_98:\n                /* \"VotingSystem.sol\":2338:2344  voters */\n              0x03\n                /* \"VotingSystem.sol\":2338:2356  voters[msg.sender] */\n              0x00\n                /* \"VotingSystem.sol\":2345:2355  msg.sender */\n              caller\n                /* \"VotingSystem.sol\":2338:2356  voters[msg.sender] */\n              0xffffffffffffffffffffffffffffffffffffffff\n              and\n              0xffffffffffffffffffffffffffffffffffffffff\n              and\n              dup2\n              mstore\n              0x20\n              add\n              swap1\n              dup2\n              mstore\n              0x20\n              add\n              0x00\n              keccak256\n                /* \"VotingSystem.sol\":2338:2367  voters[msg.sender].currStatus */\n              0x04\n              add\n              0x00\n              swap1\n              sload\n              swap1\n              0x0100\n              exp\n              swap1\n              div\n              0xff\n              and\n                /* \"VotingSystem.sol\":2338:2386  voters[msg.sender].currStatus == Status.approved */\n              0x02\n              dup2\n              gt\n              iszero\n              tag_100\n              jumpi\n              tag_101\n              tag_39\n              jump\t// in\n            tag_101:\n            tag_100:\n              eq\n                /* \"VotingSystem.sol\":2330:2433  require(voters[msg.sender].currStatus == Status.approved, \"Either you not registered or already voted\") */\n              tag_102\n              jumpi\n              mload(0x40)\n              0x08c379a000000000000000000000000000000000000000000000000000000000\n              dup2\n              mstore\n              0x04\n              add\n              tag_103\n              swap1\n              tag_104\n              jump\t// in\n            tag_103:\n              mload(0x40)\n              dup1\n              swap2\n              sub\n              swap1\n              revert\n            tag_102:\n                /* \"VotingSystem.sol\":2444:2453  voteCount */\n              0x04\n                /* \"VotingSystem.sol\":2444:2460  voteCount[index] */\n              0x00\n                /* \"VotingSystem.sol\":2454:2459  index */\n              dup3\n                /* \"VotingSystem.sol\":2444:2460  voteCount[index] */\n              0xff\n              and\n              0xff\n              and\n              dup2\n              mstore\n              0x20\n              add\n              swap1\n              dup2\n              mstore\n              0x20\n              add\n              0x00\n              keccak256\n              0x00\n                /* \"VotingSystem.sol\":2444:2462  voteCount[index]++ */\n              dup2\n              sload\n              dup1\n              swap3\n              swap2\n              swap1\n              tag_105\n              swap1\n              tag_106\n              jump\t// in\n            tag_105:\n              swap2\n              swap1\n              pop\n              sstore\n              pop\n                /* \"VotingSystem.sol\":2473:2482  totalVote */\n              0x06\n              0x00\n                /* \"VotingSystem.sol\":2473:2484  totalVote++ */\n              dup2\n              sload\n              dup1\n              swap3\n              swap2\n              swap1\n              tag_107\n              swap1\n              tag_106\n              jump\t// in\n            tag_107:\n              swap2\n              swap1\n              pop\n              sstore\n              pop\n                /* \"VotingSystem.sol\":2527:2539  Status.voted */\n              0x02\n                /* \"VotingSystem.sol\":2495:2501  voters */\n              0x03\n                /* \"VotingSystem.sol\":2495:2513  voters[msg.sender] */\n              0x00\n                /* \"VotingSystem.sol\":2502:2512  msg.sender */\n              caller\n                /* \"VotingSystem.sol\":2495:2513  voters[msg.sender] */\n              0xffffffffffffffffffffffffffffffffffffffff\n              and\n              0xffffffffffffffffffffffffffffffffffffffff\n              and\n              dup2\n              mstore\n              0x20\n              add\n              swap1\n              dup2\n              mstore\n              0x20\n              add\n              0x00\n              keccak256\n                /* \"VotingSystem.sol\":2495:2524  voters[msg.sender].currStatus */\n              0x04\n              add\n              0x00\n                /* \"VotingSystem.sol\":2495:2539  voters[msg.sender].currStatus = Status.voted */\n              0x0100\n              exp\n              dup2\n              sload\n              dup2\n              0xff\n              mul\n              not\n              and\n              swap1\n              dup4\n              0x02\n              dup2\n              gt\n              iszero\n              tag_108\n              jumpi\n              tag_109\n              tag_39\n              jump\t// in\n            tag_109:\n            tag_108:\n              mul\n              or\n              swap1\n              sstore\n              pop\n                /* \"VotingSystem.sol\":2285:2547  function vote(uint8 index) public {... */\n              pop\n              jump\t// out\n            tag_71:\n              dup3\n              dup1\n              sload\n              tag_110\n              swap1\n              tag_76\n              jump\t// in\n            tag_110:\n              swap1\n              0x00\n              mstore\n              keccak256(0x00, 0x20)\n              swap1\n              0x1f\n              add\n              0x20\n              swap1\n              div\n              dup2\n              add\n              swap3\n              dup3\n              tag_112\n              jumpi\n              0x00\n              dup6\n              sstore\n              jump(tag_111)\n            tag_112:\n              dup3\n              0x1f\n              lt\n              tag_113\n              jumpi\n              dup1\n              mload\n              not(0xff)\n              and\n              dup4\n              dup1\n              add\n              or\n              dup6\n              sstore\n              jump(tag_111)\n            tag_113:\n              dup3\n              dup1\n              add\n              0x01\n              add\n              dup6\n              sstore\n              dup3\n              iszero\n              tag_111\n              jumpi\n              swap2\n              dup3\n              add\n            tag_114:\n              dup3\n              dup2\n              gt\n              iszero\n              tag_115\n              jumpi\n              dup3\n              mload\n              dup3\n              sstore\n              swap2\n              0x20\n              add\n              swap2\n              swap1\n              0x01\n              add\n              swap1\n              jump(tag_114)\n            tag_115:\n            tag_111:\n              pop\n              swap1\n              pop\n              tag_116\n              swap2\n              swap1\n              tag_117\n              jump\t// in\n            tag_116:\n              pop\n              swap1\n              jump\t// out\n            tag_117:\n            tag_118:\n              dup1\n              dup3\n              gt\n              iszero\n              tag_119\n              jumpi\n              0x00\n              dup2\n              0x00\n              swap1\n              sstore\n              pop\n              0x01\n              add\n              jump(tag_118)\n            tag_119:\n              pop\n              swap1\n              jump\t// out\n                /* \"#utility.yul\":7:82   */\n            tag_120:\n                /* \"#utility.yul\":40:46   */\n              0x00\n                /* \"#utility.yul\":73:75   */\n              0x40\n                /* \"#utility.yul\":67:76   */\n              mload\n                /* \"#utility.yul\":57:76   */\n              swap1\n              pop\n                /* \"#utility.yul\":7:82   */\n              swap1\n              jump\t// out\n                /* \"#utility.yul\":88:205   */\n            tag_121:\n                /* \"#utility.yul\":197:198   */\n              0x00\n                /* \"#utility.yul\":194:195   */\n              dup1\n                /* \"#utility.yul\":187:199   */\n              revert\n                /* \"#utility.yul\":211:328   */\n            tag_122:\n                /* \"#utility.yul\":320:321   */\n              0x00\n                /* \"#utility.yul\":317:318   */\n              dup1\n                /* \"#utility.yul\":310:322   */\n              revert\n                /* \"#utility.yul\":334:460   */\n            tag_123:\n                /* \"#utility.yul\":371:378   */\n              0x00\n                /* \"#utility.yul\":411:453   */\n              0xffffffffffffffffffffffffffffffffffffffff\n                /* \"#utility.yul\":404:409   */\n              dup3\n                /* \"#utility.yul\":400:454   */\n              and\n                /* \"#utility.yul\":389:454   */\n              swap1\n              pop\n                /* \"#utility.yul\":334:460   */\n              swap2\n              swap1\n              pop\n              jump\t// out\n                /* \"#utility.yul\":466:562   */\n            tag_124:\n                /* \"#utility.yul\":503:510   */\n              0x00\n                /* \"#utility.yul\":532:556   */\n              tag_175\n                /* \"#utility.yul\":550:555   */\n              dup3\n                /* \"#utility.yul\":532:556   */\n              tag_123\n              jump\t// in\n            tag_175:\n                /* \"#utility.yul\":521:556   */\n              swap1\n              pop\n                /* \"#utility.yul\":466:562   */\n              swap2\n              swap1\n              pop\n              jump\t// out\n                /* \"#utility.yul\":568:690   */\n            tag_125:\n                /* \"#utility.yul\":641:665   */\n              tag_177\n                /* \"#utility.yul\":659:664   */\n              dup2\n                /* \"#utility.yul\":641:665   */\n              tag_124\n              jump\t// in\n            tag_177:\n                /* \"#utility.yul\":634:639   */\n              dup2\n                /* \"#utility.yul\":631:666   */\n              eq\n                /* \"#utility.yul\":621:684   */\n              tag_178\n              jumpi\n                /* \"#utility.yul\":680:681   */\n              0x00\n                /* \"#utility.yul\":677:678   */\n              dup1\n                /* \"#utility.yul\":670:682   */\n              revert\n                /* \"#utility.yul\":621:684   */\n            tag_178:\n                /* \"#utility.yul\":568:690   */\n              pop\n              jump\t// out\n                /* \"#utility.yul\":696:835   */\n            tag_126:\n                /* \"#utility.yul\":742:747   */\n              0x00\n                /* \"#utility.yul\":780:786   */\n              dup2\n                /* \"#utility.yul\":767:787   */\n              calldataload\n                /* \"#utility.yul\":758:787   */\n              swap1\n              pop\n                /* \"#utility.yul\":796:829   */\n              tag_180\n                /* \"#utility.yul\":823:828   */\n              dup2\n                /* \"#utility.yul\":796:829   */\n              tag_125\n              jump\t// in\n            tag_180:\n                /* \"#utility.yul\":696:835   */\n              swap3\n              swap2\n              pop\n              pop\n              jump\t// out\n                /* \"#utility.yul\":841:1170   */\n            tag_11:\n                /* \"#utility.yul\":900:906   */\n              0x00\n                /* \"#utility.yul\":949:951   */\n              0x20\n                /* \"#utility.yul\":937:946   */\n              dup3\n                /* \"#utility.yul\":928:935   */\n              dup5\n                /* \"#utility.yul\":924:947   */\n              sub\n                /* \"#utility.yul\":920:952   */\n              slt\n                /* \"#utility.yul\":917:1036   */\n              iszero\n              tag_182\n              jumpi\n                /* \"#utility.yul\":955:1034   */\n              tag_183\n              tag_121\n              jump\t// in\n            tag_183:\n                /* \"#utility.yul\":917:1036   */\n            tag_182:\n                /* \"#utility.yul\":1075:1076   */\n              0x00\n                /* \"#utility.yul\":1100:1153   */\n              tag_184\n                /* \"#utility.yul\":1145:1152   */\n              dup5\n                /* \"#utility.yul\":1136:1142   */\n              dup3\n                /* \"#utility.yul\":1125:1134   */\n              dup6\n                /* \"#utility.yul\":1121:1143   */\n              add\n                /* \"#utility.yul\":1100:1153   */\n              tag_126\n              jump\t// in\n            tag_184:\n                /* \"#utility.yul\":1090:1153   */\n              swap2\n              pop\n                /* \"#utility.yul\":1046:1163   */\n              pop\n                /* \"#utility.yul\":841:1170   */\n              swap3\n              swap2\n              pop\n              pop\n              jump\t// out\n                /* \"#utility.yul\":1176:1293   */\n            tag_127:\n                /* \"#utility.yul\":1285:1286   */\n              0x00\n                /* \"#utility.yul\":1282:1283   */\n              dup1\n                /* \"#utility.yul\":1275:1287   */\n              revert\n                /* \"#utility.yul\":1299:1416   */\n            tag_128:\n                /* \"#utility.yul\":1408:1409   */\n              0x00\n                /* \"#utility.yul\":1405:1406   */\n              dup1\n                /* \"#utility.yul\":1398:1410   */\n              revert\n                /* \"#utility.yul\":1422:1524   */\n            tag_129:\n                /* \"#utility.yul\":1463:1469   */\n              0x00\n                /* \"#utility.yul\":1514:1516   */\n              0x1f\n                /* \"#utility.yul\":1510:1517   */\n              not\n                /* \"#utility.yul\":1505:1507   */\n              0x1f\n                /* \"#utility.yul\":1498:1503   */\n              dup4\n                /* \"#utility.yul\":1494:1508   */\n              add\n                /* \"#utility.yul\":1490:1518   */\n              and\n                /* \"#utility.yul\":1480:1518   */\n              swap1\n              pop\n                /* \"#utility.yul\":1422:1524   */\n              swap2\n              swap1\n              pop\n              jump\t// out\n                /* \"#utility.yul\":1530:1710   */\n            tag_130:\n                /* \"#utility.yul\":1578:1655   */\n              0x4e487b7100000000000000000000000000000000000000000000000000000000\n                /* \"#utility.yul\":1575:1576   */\n              0x00\n                /* \"#utility.yul\":1568:1656   */\n              mstore\n                /* \"#utility.yul\":1675:1679   */\n              0x41\n                /* \"#utility.yul\":1672:1673   */\n              0x04\n                /* \"#utility.yul\":1665:1680   */\n              mstore\n                /* \"#utility.yul\":1699:1703   */\n              0x24\n                /* \"#utility.yul\":1696:1697   */\n              0x00\n                /* \"#utility.yul\":1689:1704   */\n              revert\n                /* \"#utility.yul\":1716:1997   */\n            tag_131:\n                /* \"#utility.yul\":1799:1826   */\n              tag_190\n                /* \"#utility.yul\":1821:1825   */\n              dup3\n                /* \"#utility.yul\":1799:1826   */\n              tag_129\n              jump\t// in\n            tag_190:\n                /* \"#utility.yul\":1791:1797   */\n              dup2\n                /* \"#utility.yul\":1787:1827   */\n              add\n                /* \"#utility.yul\":1929:1935   */\n              dup2\n                /* \"#utility.yul\":1917:1927   */\n              dup2\n                /* \"#utility.yul\":1914:1936   */\n              lt\n                /* \"#utility.yul\":1893:1911   */\n              0xffffffffffffffff\n                /* \"#utility.yul\":1881:1891   */\n              dup3\n                /* \"#utility.yul\":1878:1912   */\n              gt\n                /* \"#utility.yul\":1875:1937   */\n              or\n                /* \"#utility.yul\":1872:1960   */\n              iszero\n              tag_191\n              jumpi\n                /* \"#utility.yul\":1940:1958   */\n              tag_192\n              tag_130\n              jump\t// in\n            tag_192:\n                /* \"#utility.yul\":1872:1960   */\n            tag_191:\n                /* \"#utility.yul\":1980:1990   */\n              dup1\n                /* \"#utility.yul\":1976:1978   */\n              0x40\n                /* \"#utility.yul\":1969:1991   */\n              mstore\n                /* \"#utility.yul\":1759:1997   */\n              pop\n                /* \"#utility.yul\":1716:1997   */\n              pop\n              pop\n              jump\t// out\n                /* \"#utility.yul\":2003:2132   */\n            tag_132:\n                /* \"#utility.yul\":2037:2043   */\n              0x00\n                /* \"#utility.yul\":2064:2084   */\n              tag_194\n              tag_120\n              jump\t// in\n            tag_194:\n                /* \"#utility.yul\":2054:2084   */\n              swap1\n              pop\n                /* \"#utility.yul\":2093:2126   */\n              tag_195\n                /* \"#utility.yul\":2121:2125   */\n              dup3\n                /* \"#utility.yul\":2113:2119   */\n              dup3\n                /* \"#utility.yul\":2093:2126   */\n              tag_131\n              jump\t// in\n            tag_195:\n                /* \"#utility.yul\":2003:2132   */\n              swap2\n              swap1\n              pop\n              jump\t// out\n                /* \"#utility.yul\":2138:2446   */\n            tag_133:\n                /* \"#utility.yul\":2200:2204   */\n              0x00\n                /* \"#utility.yul\":2290:2308   */\n              0xffffffffffffffff\n                /* \"#utility.yul\":2282:2288   */\n              dup3\n                /* \"#utility.yul\":2279:2309   */\n              gt\n                /* \"#utility.yul\":2276:2332   */\n              iszero\n              tag_197\n              jumpi\n                /* \"#utility.yul\":2312:2330   */\n              tag_198\n              tag_130\n              jump\t// in\n            tag_198:\n                /* \"#utility.yul\":2276:2332   */\n            tag_197:\n                /* \"#utility.yul\":2350:2379   */\n              tag_199\n                /* \"#utility.yul\":2372:2378   */\n              dup3\n                /* \"#utility.yul\":2350:2379   */\n              tag_129\n              jump\t// in\n            tag_199:\n                /* \"#utility.yul\":2342:2379   */\n              swap1\n              pop\n                /* \"#utility.yul\":2434:2438   */\n              0x20\n                /* \"#utility.yul\":2428:2432   */\n              dup2\n                /* \"#utility.yul\":2424:2439   */\n              add\n                /* \"#utility.yul\":2416:2439   */\n              swap1\n              pop\n                /* \"#utility.yul\":2138:2446   */\n              swap2\n              swap1\n              pop\n              jump\t// out\n                /* \"#utility.yul\":2452:2606   */\n            tag_134:\n                /* \"#utility.yul\":2536:2542   */\n              dup3\n                /* \"#utility.yul\":2531:2534   */\n              dup2\n                /* \"#utility.yul\":2526:2529   */\n              dup4\n                /* \"#utility.yul\":2513:2543   */\n              calldatacopy\n                /* \"#utility.yul\":2598:2599   */\n              0x00\n                /* \"#utility.yul\":2589:2595   */\n              dup4\n                /* \"#utility.yul\":2584:2587   */\n              dup4\n                /* \"#utility.yul\":2580:2596   */\n              add\n                /* \"#utility.yul\":2573:2600   */\n              mstore\n                /* \"#utility.yul\":2452:2606   */\n              pop\n              pop\n              pop\n              jump\t// out\n                /* \"#utility.yul\":2612:3024   */\n            tag_135:\n                /* \"#utility.yul\":2690:2695   */\n              0x00\n                /* \"#utility.yul\":2715:2781   */\n              tag_202\n                /* \"#utility.yul\":2731:2780   */\n              tag_203\n                /* \"#utility.yul\":2773:2779   */\n              dup5\n                /* \"#utility.yul\":2731:2780   */\n              tag_133\n              jump\t// in\n            tag_203:\n                /* \"#utility.yul\":2715:2781   */\n              tag_132\n              jump\t// in\n            tag_202:\n                /* \"#utility.yul\":2706:2781   */\n              swap1\n              pop\n                /* \"#utility.yul\":2804:2810   */\n              dup3\n                /* \"#utility.yul\":2797:2802   */\n              dup2\n                /* \"#utility.yul\":2790:2811   */\n              mstore\n                /* \"#utility.yul\":2842:2846   */\n              0x20\n                /* \"#utility.yul\":2835:2840   */\n              dup2\n                /* \"#utility.yul\":2831:2847   */\n              add\n                /* \"#utility.yul\":2880:2883   */\n              dup5\n                /* \"#utility.yul\":2871:2877   */\n              dup5\n                /* \"#utility.yul\":2866:2869   */\n              dup5\n                /* \"#utility.yul\":2862:2878   */\n              add\n                /* \"#utility.yul\":2859:2884   */\n              gt\n                /* \"#utility.yul\":2856:2968   */\n              iszero\n              tag_204\n              jumpi\n                /* \"#utility.yul\":2887:2966   */\n              tag_205\n              tag_128\n              jump\t// in\n            tag_205:\n                /* \"#utility.yul\":2856:2968   */\n            tag_204:\n                /* \"#utility.yul\":2977:3018   */\n              tag_206\n                /* \"#utility.yul\":3011:3017   */\n              dup5\n                /* \"#utility.yul\":3006:3009   */\n              dup3\n                /* \"#utility.yul\":3001:3004   */\n              dup6\n                /* \"#utility.yul\":2977:3018   */\n              tag_134\n              jump\t// in\n            tag_206:\n                /* \"#utility.yul\":2696:3024   */\n              pop\n                /* \"#utility.yul\":2612:3024   */\n              swap4\n              swap3\n              pop\n              pop\n              pop\n              jump\t// out\n                /* \"#utility.yul\":3044:3384   */\n            tag_136:\n                /* \"#utility.yul\":3100:3105   */\n              0x00\n                /* \"#utility.yul\":3149:3152   */\n              dup3\n                /* \"#utility.yul\":3142:3146   */\n              0x1f\n                /* \"#utility.yul\":3134:3140   */\n              dup4\n                /* \"#utility.yul\":3130:3147   */\n              add\n                /* \"#utility.yul\":3126:3153   */\n              slt\n                /* \"#utility.yul\":3116:3238   */\n              tag_208\n              jumpi\n                /* \"#utility.yul\":3157:3236   */\n              tag_209\n              tag_127\n              jump\t// in\n            tag_209:\n                /* \"#utility.yul\":3116:3238   */\n            tag_208:\n                /* \"#utility.yul\":3274:3280   */\n              dup2\n                /* \"#utility.yul\":3261:3281   */\n              calldataload\n                /* \"#utility.yul\":3299:3378   */\n              tag_210\n                /* \"#utility.yul\":3374:3377   */\n              dup5\n                /* \"#utility.yul\":3366:3372   */\n              dup3\n                /* \"#utility.yul\":3359:3363   */\n              0x20\n                /* \"#utility.yul\":3351:3357   */\n              dup7\n                /* \"#utility.yul\":3347:3364   */\n              add\n                /* \"#utility.yul\":3299:3378   */\n              tag_135\n              jump\t// in\n            tag_210:\n                /* \"#utility.yul\":3290:3378   */\n              swap2\n              pop\n                /* \"#utility.yul\":3106:3384   */\n              pop\n                /* \"#utility.yul\":3044:3384   */\n              swap3\n              swap2\n              pop\n              pop\n              jump\t// out\n                /* \"#utility.yul\":3390:3476   */\n            tag_137:\n                /* \"#utility.yul\":3425:3432   */\n              0x00\n                /* \"#utility.yul\":3465:3469   */\n              0xff\n                /* \"#utility.yul\":3458:3463   */\n              dup3\n                /* \"#utility.yul\":3454:3470   */\n              and\n                /* \"#utility.yul\":3443:3470   */\n              swap1\n              pop\n                /* \"#utility.yul\":3390:3476   */\n              swap2\n              swap1\n              pop\n              jump\t// out\n                /* \"#utility.yul\":3482:3600   */\n            tag_138:\n                /* \"#utility.yul\":3553:3575   */\n              tag_213\n                /* \"#utility.yul\":3569:3574   */\n              dup2\n                /* \"#utility.yul\":3553:3575   */\n              tag_137\n              jump\t// in\n            tag_213:\n                /* \"#utility.yul\":3546:3551   */\n              dup2\n                /* \"#utility.yul\":3543:3576   */\n              eq\n                /* \"#utility.yul\":3533:3594   */\n              tag_214\n              jumpi\n                /* \"#utility.yul\":3590:3591   */\n              0x00\n                /* \"#utility.yul\":3587:3588   */\n              dup1\n                /* \"#utility.yul\":3580:3592   */\n              revert\n                /* \"#utility.yul\":3533:3594   */\n            tag_214:\n                /* \"#utility.yul\":3482:3600   */\n              pop\n              jump\t// out\n                /* \"#utility.yul\":3606:3741   */\n            tag_139:\n                /* \"#utility.yul\":3650:3655   */\n              0x00\n                /* \"#utility.yul\":3688:3694   */\n              dup2\n                /* \"#utility.yul\":3675:3695   */\n              calldataload\n                /* \"#utility.yul\":3666:3695   */\n              swap1\n              pop\n                /* \"#utility.yul\":3704:3735   */\n              tag_216\n                /* \"#utility.yul\":3729:3734   */\n              dup2\n                /* \"#utility.yul\":3704:3735   */\n              tag_138\n              jump\t// in\n            tag_216:\n                /* \"#utility.yul\":3606:3741   */\n              swap3\n              swap2\n              pop\n              pop\n              jump\t// out\n                /* \"#utility.yul\":3747:3824   */\n            tag_140:\n                /* \"#utility.yul\":3784:3791   */\n              0x00\n                /* \"#utility.yul\":3813:3818   */\n              dup2\n                /* \"#utility.yul\":3802:3818   */\n              swap1\n              pop\n                /* \"#utility.yul\":3747:3824   */\n              swap2\n              swap1\n              pop\n              jump\t// out\n                /* \"#utility.yul\":3830:3952   */\n            tag_141:\n                /* \"#utility.yul\":3903:3927   */\n              tag_219\n                /* \"#utility.yul\":3921:3926   */\n              dup2\n                /* \"#utility.yul\":3903:3927   */\n              tag_140\n              jump\t// in\n            tag_219:\n                /* \"#utility.yul\":3896:3901   */\n              dup2\n                /* \"#utility.yul\":3893:3928   */\n              eq\n                /* \"#utility.yul\":3883:3946   */\n              tag_220\n              jumpi\n                /* \"#utility.yul\":3942:3943   */\n              0x00\n                /* \"#utility.yul\":3939:3940   */\n              dup1\n                /* \"#utility.yul\":3932:3944   */\n              revert\n                /* \"#utility.yul\":3883:3946   */\n            tag_220:\n                /* \"#utility.yul\":3830:3952   */\n              pop\n              jump\t// out\n                /* \"#utility.yul\":3958:4097   */\n            tag_142:\n                /* \"#utility.yul\":4004:4009   */\n              0x00\n                /* \"#utility.yul\":4042:4048   */\n              dup2\n                /* \"#utility.yul\":4029:4049   */\n              calldataload\n                /* \"#utility.yul\":4020:4049   */\n              swap1\n              pop\n                /* \"#utility.yul\":4058:4091   */\n              tag_222\n                /* \"#utility.yul\":4085:4090   */\n              dup2\n                /* \"#utility.yul\":4058:4091   */\n              tag_141\n              jump\t// in\n            tag_222:\n                /* \"#utility.yul\":3958:4097   */\n              swap3\n              swap2\n              pop\n              pop\n              jump\t// out\n                /* \"#utility.yul\":4103:5044   */\n            tag_20:\n                /* \"#utility.yul\":4197:4203   */\n              0x00\n                /* \"#utility.yul\":4205:4211   */\n              dup1\n                /* \"#utility.yul\":4213:4219   */\n              0x00\n                /* \"#utility.yul\":4221:4227   */\n              dup1\n                /* \"#utility.yul\":4270:4273   */\n              0x80\n                /* \"#utility.yul\":4258:4267   */\n              dup6\n                /* \"#utility.yul\":4249:4256   */\n              dup8\n                /* \"#utility.yul\":4245:4268   */\n              sub\n                /* \"#utility.yul\":4241:4274   */\n              slt\n                /* \"#utility.yul\":4238:4358   */\n              iszero\n              tag_224\n              jumpi\n                /* \"#utility.yul\":4277:4356   */\n              tag_225\n              tag_121\n              jump\t// in\n            tag_225:\n                /* \"#utility.yul\":4238:4358   */\n            tag_224:\n                /* \"#utility.yul\":4425:4426   */\n              0x00\n                /* \"#utility.yul\":4414:4423   */\n              dup6\n                /* \"#utility.yul\":4410:4427   */\n              add\n                /* \"#utility.yul\":4397:4428   */\n              calldataload\n                /* \"#utility.yul\":4455:4473   */\n              0xffffffffffffffff\n                /* \"#utility.yul\":4447:4453   */\n              dup2\n                /* \"#utility.yul\":4444:4474   */\n              gt\n                /* \"#utility.yul\":4441:4558   */\n              iszero\n              tag_226\n              jumpi\n                /* \"#utility.yul\":4477:4556   */\n              tag_227\n              tag_122\n              jump\t// in\n            tag_227:\n                /* \"#utility.yul\":4441:4558   */\n            tag_226:\n                /* \"#utility.yul\":4582:4645   */\n              tag_228\n                /* \"#utility.yul\":4637:4644   */\n              dup8\n                /* \"#utility.yul\":4628:4634   */\n              dup3\n                /* \"#utility.yul\":4617:4626   */\n              dup9\n                /* \"#utility.yul\":4613:4635   */\n              add\n                /* \"#utility.yul\":4582:4645   */\n              tag_136\n              jump\t// in\n            tag_228:\n                /* \"#utility.yul\":4572:4645   */\n              swap5\n              pop\n                /* \"#utility.yul\":4368:4655   */\n              pop\n                /* \"#utility.yul\":4694:4696   */\n              0x20\n                /* \"#utility.yul\":4720:4771   */\n              tag_229\n                /* \"#utility.yul\":4763:4770   */\n              dup8\n                /* \"#utility.yul\":4754:4760   */\n              dup3\n                /* \"#utility.yul\":4743:4752   */\n              dup9\n                /* \"#utility.yul\":4739:4761   */\n              add\n                /* \"#utility.yul\":4720:4771   */\n              tag_139\n              jump\t// in\n            tag_229:\n                /* \"#utility.yul\":4710:4771   */\n              swap4\n              pop\n                /* \"#utility.yul\":4665:4781   */\n              pop\n                /* \"#utility.yul\":4820:4822   */\n              0x40\n                /* \"#utility.yul\":4846:4899   */\n              tag_230\n                /* \"#utility.yul\":4891:4898   */\n              dup8\n                /* \"#utility.yul\":4882:4888   */\n              dup3\n                /* \"#utility.yul\":4871:4880   */\n              dup9\n                /* \"#utility.yul\":4867:4889   */\n              add\n                /* \"#utility.yul\":4846:4899   */\n              tag_142\n              jump\t// in\n            tag_230:\n                /* \"#utility.yul\":4836:4899   */\n              swap3\n              pop\n                /* \"#utility.yul\":4791:4909   */\n              pop\n                /* \"#utility.yul\":4948:4950   */\n              0x60\n                /* \"#utility.yul\":4974:5027   */\n              tag_231\n                /* \"#utility.yul\":5019:5026   */\n              dup8\n                /* \"#utility.yul\":5010:5016   */\n              dup3\n                /* \"#utility.yul\":4999:5008   */\n              dup9\n                /* \"#utility.yul\":4995:5017   */\n              add\n                /* \"#utility.yul\":4974:5027   */\n              tag_142\n              jump\t// in\n            tag_231:\n                /* \"#utility.yul\":4964:5027   */\n              swap2\n              pop\n                /* \"#utility.yul\":4919:5037   */\n              pop\n                /* \"#utility.yul\":4103:5044   */\n              swap3\n              swap6\n              swap2\n              swap5\n              pop\n              swap3\n              pop\n              jump\t// out\n                /* \"#utility.yul\":5050:5149   */\n            tag_143:\n                /* \"#utility.yul\":5102:5108   */\n              0x00\n                /* \"#utility.yul\":5136:5141   */\n              dup2\n                /* \"#utility.yul\":5130:5142   */\n              mload\n                /* \"#utility.yul\":5120:5142   */\n              swap1\n              pop\n                /* \"#utility.yul\":5050:5149   */\n              swap2\n              swap1\n              pop\n              jump\t// out\n                /* \"#utility.yul\":5155:5324   */\n            tag_144:\n                /* \"#utility.yul\":5239:5250   */\n              0x00\n                /* \"#utility.yul\":5273:5279   */\n              dup3\n                /* \"#utility.yul\":5268:5271   */\n              dup3\n                /* \"#utility.yul\":5261:5280   */\n              mstore\n                /* \"#utility.yul\":5313:5317   */\n              0x20\n                /* \"#utility.yul\":5308:5311   */\n              dup3\n                /* \"#utility.yul\":5304:5318   */\n              add\n                /* \"#utility.yul\":5289:5318   */\n              swap1\n              pop\n                /* \"#utility.yul\":5155:5324   */\n              swap3\n              swap2\n              pop\n              pop\n              jump\t// out\n                /* \"#utility.yul\":5330:5637   */\n            tag_145:\n                /* \"#utility.yul\":5398:5399   */\n              0x00\n                /* \"#utility.yul\":5408:5521   */\n            tag_235:\n                /* \"#utility.yul\":5422:5428   */\n              dup4\n                /* \"#utility.yul\":5419:5420   */\n              dup2\n                /* \"#utility.yul\":5416:5429   */\n              lt\n                /* \"#utility.yul\":5408:5521   */\n              iszero\n              tag_237\n              jumpi\n                /* \"#utility.yul\":5507:5508   */\n              dup1\n                /* \"#utility.yul\":5502:5505   */\n              dup3\n                /* \"#utility.yul\":5498:5509   */\n              add\n                /* \"#utility.yul\":5492:5510   */\n              mload\n                /* \"#utility.yul\":5488:5489   */\n              dup2\n                /* \"#utility.yul\":5483:5486   */\n              dup5\n                /* \"#utility.yul\":5479:5490   */\n              add\n                /* \"#utility.yul\":5472:5511   */\n              mstore\n                /* \"#utility.yul\":5444:5446   */\n              0x20\n                /* \"#utility.yul\":5441:5442   */\n              dup2\n                /* \"#utility.yul\":5437:5447   */\n              add\n                /* \"#utility.yul\":5432:5447   */\n              swap1\n              pop\n                /* \"#utility.yul\":5408:5521   */\n              jump(tag_235)\n            tag_237:\n                /* \"#utility.yul\":5539:5545   */\n              dup4\n                /* \"#utility.yul\":5536:5537   */\n              dup2\n                /* \"#utility.yul\":5533:5546   */\n              gt\n                /* \"#utility.yul\":5530:5631   */\n              iszero\n              tag_238\n              jumpi\n                /* \"#utility.yul\":5619:5620   */\n              0x00\n                /* \"#utility.yul\":5610:5616   */\n              dup5\n                /* \"#utility.yul\":5605:5608   */\n              dup5\n                /* \"#utility.yul\":5601:5617   */\n              add\n                /* \"#utility.yul\":5594:5621   */\n              mstore\n                /* \"#utility.yul\":5530:5631   */\n            tag_238:\n                /* \"#utility.yul\":5379:5637   */\n              pop\n                /* \"#utility.yul\":5330:5637   */\n              pop\n              pop\n              pop\n              jump\t// out\n                /* \"#utility.yul\":5643:6007   */\n            tag_146:\n                /* \"#utility.yul\":5731:5734   */\n              0x00\n                /* \"#utility.yul\":5759:5798   */\n              tag_240\n                /* \"#utility.yul\":5792:5797   */\n              dup3\n                /* \"#utility.yul\":5759:5798   */\n              tag_143\n              jump\t// in\n            tag_240:\n                /* \"#utility.yul\":5814:5885   */\n              tag_241\n                /* \"#utility.yul\":5878:5884   */\n              dup2\n                /* \"#utility.yul\":5873:5876   */\n              dup6\n                /* \"#utility.yul\":5814:5885   */\n              tag_144\n              jump\t// in\n            tag_241:\n                /* \"#utility.yul\":5807:5885   */\n              swap4\n              pop\n                /* \"#utility.yul\":5894:5946   */\n              tag_242\n                /* \"#utility.yul\":5939:5945   */\n              dup2\n                /* \"#utility.yul\":5934:5937   */\n              dup6\n                /* \"#utility.yul\":5927:5931   */\n              0x20\n                /* \"#utility.yul\":5920:5925   */\n              dup7\n                /* \"#utility.yul\":5916:5932   */\n              add\n                /* \"#utility.yul\":5894:5946   */\n              tag_145\n              jump\t// in\n            tag_242:\n                /* \"#utility.yul\":5971:6000   */\n              tag_243\n                /* \"#utility.yul\":5993:5999   */\n              dup2\n                /* \"#utility.yul\":5971:6000   */\n              tag_129\n              jump\t// in\n            tag_243:\n                /* \"#utility.yul\":5966:5969   */\n              dup5\n                /* \"#utility.yul\":5962:6001   */\n              add\n                /* \"#utility.yul\":5955:6001   */\n              swap2\n              pop\n                /* \"#utility.yul\":5735:6007   */\n              pop\n                /* \"#utility.yul\":5643:6007   */\n              swap3\n              swap2\n              pop\n              pop\n              jump\t// out\n                /* \"#utility.yul\":6013:6125   */\n            tag_147:\n                /* \"#utility.yul\":6096:6118   */\n              tag_245\n                /* \"#utility.yul\":6112:6117   */\n              dup2\n                /* \"#utility.yul\":6096:6118   */\n              tag_137\n              jump\t// in\n            tag_245:\n                /* \"#utility.yul\":6091:6094   */\n              dup3\n                /* \"#utility.yul\":6084:6119   */\n              mstore\n                /* \"#utility.yul\":6013:6125   */\n              pop\n              pop\n              jump\t// out\n                /* \"#utility.yul\":6131:6249   */\n            tag_148:\n                /* \"#utility.yul\":6218:6242   */\n              tag_247\n                /* \"#utility.yul\":6236:6241   */\n              dup2\n                /* \"#utility.yul\":6218:6242   */\n              tag_140\n              jump\t// in\n            tag_247:\n                /* \"#utility.yul\":6213:6216   */\n              dup3\n                /* \"#utility.yul\":6206:6243   */\n              mstore\n                /* \"#utility.yul\":6131:6249   */\n              pop\n              pop\n              jump\t// out\n                /* \"#utility.yul\":6255:6435   */\n            tag_39:\n                /* \"#utility.yul\":6303:6380   */\n              0x4e487b7100000000000000000000000000000000000000000000000000000000\n                /* \"#utility.yul\":6300:6301   */\n              0x00\n                /* \"#utility.yul\":6293:6381   */\n              mstore\n                /* \"#utility.yul\":6400:6404   */\n              0x21\n                /* \"#utility.yul\":6397:6398   */\n              0x04\n                /* \"#utility.yul\":6390:6405   */\n              mstore\n                /* \"#utility.yul\":6424:6428   */\n              0x24\n                /* \"#utility.yul\":6421:6422   */\n              0x00\n                /* \"#utility.yul\":6414:6429   */\n              revert\n                /* \"#utility.yul\":6441:6555   */\n            tag_149:\n                /* \"#utility.yul\":6523:6524   */\n              0x03\n                /* \"#utility.yul\":6516:6521   */\n              dup2\n                /* \"#utility.yul\":6513:6525   */\n              lt\n                /* \"#utility.yul\":6503:6549   */\n              tag_250\n              jumpi\n                /* \"#utility.yul\":6529:6547   */\n              tag_251\n              tag_39\n              jump\t// in\n            tag_251:\n                /* \"#utility.yul\":6503:6549   */\n            tag_250:\n                /* \"#utility.yul\":6441:6555   */\n              pop\n              jump\t// out\n                /* \"#utility.yul\":6561:6690   */\n            tag_150:\n                /* \"#utility.yul\":6607:6614   */\n              0x00\n                /* \"#utility.yul\":6636:6641   */\n              dup2\n                /* \"#utility.yul\":6625:6641   */\n              swap1\n              pop\n                /* \"#utility.yul\":6642:6684   */\n              tag_253\n                /* \"#utility.yul\":6678:6683   */\n              dup3\n                /* \"#utility.yul\":6642:6684   */\n              tag_149\n              jump\t// in\n            tag_253:\n                /* \"#utility.yul\":6561:6690   */\n              swap2\n              swap1\n              pop\n              jump\t// out\n                /* \"#utility.yul\":6696:6825   */\n            tag_151:\n                /* \"#utility.yul\":6753:6762   */\n              0x00\n                /* \"#utility.yul\":6786:6819   */\n              tag_255\n                /* \"#utility.yul\":6813:6818   */\n              dup3\n                /* \"#utility.yul\":6786:6819   */\n              tag_150\n              jump\t// in\n            tag_255:\n                /* \"#utility.yul\":6773:6819   */\n              swap1\n              pop\n                /* \"#utility.yul\":6696:6825   */\n              swap2\n              swap1\n              pop\n              jump\t// out\n                /* \"#utility.yul\":6831:6976   */\n            tag_152:\n                /* \"#utility.yul\":6925:6969   */\n              tag_257\n                /* \"#utility.yul\":6963:6968   */\n              dup2\n                /* \"#utility.yul\":6925:6969   */\n              tag_151\n              jump\t// in\n            tag_257:\n                /* \"#utility.yul\":6920:6923   */\n              dup3\n                /* \"#utility.yul\":6913:6970   */\n              mstore\n                /* \"#utility.yul\":6831:6976   */\n              pop\n              pop\n              jump\t// out\n                /* \"#utility.yul\":6982:7743   */\n            tag_26:\n                /* \"#utility.yul\":7210:7214   */\n              0x00\n                /* \"#utility.yul\":7248:7251   */\n              0xa0\n                /* \"#utility.yul\":7237:7246   */\n              dup3\n                /* \"#utility.yul\":7233:7252   */\n              add\n                /* \"#utility.yul\":7225:7252   */\n              swap1\n              pop\n                /* \"#utility.yul\":7298:7307   */\n              dup2\n                /* \"#utility.yul\":7292:7296   */\n              dup2\n                /* \"#utility.yul\":7288:7308   */\n              sub\n                /* \"#utility.yul\":7284:7285   */\n              0x00\n                /* \"#utility.yul\":7273:7282   */\n              dup4\n                /* \"#utility.yul\":7269:7286   */\n              add\n                /* \"#utility.yul\":7262:7309   */\n              mstore\n                /* \"#utility.yul\":7326:7404   */\n              tag_259\n                /* \"#utility.yul\":7399:7403   */\n              dup2\n                /* \"#utility.yul\":7390:7396   */\n              dup9\n                /* \"#utility.yul\":7326:7404   */\n              tag_146\n              jump\t// in\n            tag_259:\n                /* \"#utility.yul\":7318:7404   */\n              swap1\n              pop\n                /* \"#utility.yul\":7414:7482   */\n              tag_260\n                /* \"#utility.yul\":7478:7480   */\n              0x20\n                /* \"#utility.yul\":7467:7476   */\n              dup4\n                /* \"#utility.yul\":7463:7481   */\n              add\n                /* \"#utility.yul\":7454:7460   */\n              dup8\n                /* \"#utility.yul\":7414:7482   */\n              tag_147\n              jump\t// in\n            tag_260:\n                /* \"#utility.yul\":7492:7564   */\n              tag_261\n                /* \"#utility.yul\":7560:7562   */\n              0x40\n                /* \"#utility.yul\":7549:7558   */\n              dup4\n                /* \"#utility.yul\":7545:7563   */\n              add\n                /* \"#utility.yul\":7536:7542   */\n              dup7\n                /* \"#utility.yul\":7492:7564   */\n              tag_148\n              jump\t// in\n            tag_261:\n                /* \"#utility.yul\":7574:7646   */\n              tag_262\n                /* \"#utility.yul\":7642:7644   */\n              0x60\n                /* \"#utility.yul\":7631:7640   */\n              dup4\n                /* \"#utility.yul\":7627:7645   */\n              add\n                /* \"#utility.yul\":7618:7624   */\n              dup6\n                /* \"#utility.yul\":7574:7646   */\n              tag_148\n              jump\t// in\n            tag_262:\n                /* \"#utility.yul\":7656:7736   */\n              tag_263\n                /* \"#utility.yul\":7731:7734   */\n              0x80\n                /* \"#utility.yul\":7720:7729   */\n              dup4\n                /* \"#utility.yul\":7716:7735   */\n              add\n                /* \"#utility.yul\":7707:7713   */\n              dup5\n                /* \"#utility.yul\":7656:7736   */\n              tag_152\n              jump\t// in\n            tag_263:\n                /* \"#utility.yul\":6982:7743   */\n              swap7\n              swap6\n              pop\n              pop\n              pop\n              pop\n              pop\n              pop\n              jump\t// out\n                /* \"#utility.yul\":7749:8870   */\n            tag_29:\n                /* \"#utility.yul\":7853:7859   */\n              0x00\n                /* \"#utility.yul\":7861:7867   */\n              dup1\n                /* \"#utility.yul\":7869:7875   */\n              0x00\n                /* \"#utility.yul\":7877:7883   */\n              dup1\n                /* \"#utility.yul\":7926:7929   */\n              0x80\n                /* \"#utility.yul\":7914:7923   */\n              dup6\n                /* \"#utility.yul\":7905:7912   */\n              dup8\n                /* \"#utility.yul\":7901:7924   */\n              sub\n                /* \"#utility.yul\":7897:7930   */\n              slt\n                /* \"#utility.yul\":7894:8014   */\n              iszero\n              tag_265\n              jumpi\n                /* \"#utility.yul\":7933:8012   */\n              tag_266\n              tag_121\n              jump\t// in\n            tag_266:\n                /* \"#utility.yul\":7894:8014   */\n            tag_265:\n                /* \"#utility.yul\":8081:8082   */\n              0x00\n                /* \"#utility.yul\":8070:8079   */\n              dup6\n                /* \"#utility.yul\":8066:8083   */\n              add\n                /* \"#utility.yul\":8053:8084   */\n              calldataload\n                /* \"#utility.yul\":8111:8129   */\n              0xffffffffffffffff\n                /* \"#utility.yul\":8103:8109   */\n              dup2\n                /* \"#utility.yul\":8100:8130   */\n              gt\n                /* \"#utility.yul\":8097:8214   */\n              iszero\n              tag_267\n              jumpi\n                /* \"#utility.yul\":8133:8212   */\n              tag_268\n              tag_122\n              jump\t// in\n            tag_268:\n                /* \"#utility.yul\":8097:8214   */\n            tag_267:\n                /* \"#utility.yul\":8238:8301   */\n              tag_269\n                /* \"#utility.yul\":8293:8300   */\n              dup8\n                /* \"#utility.yul\":8284:8290   */\n              dup3\n                /* \"#utility.yul\":8273:8282   */\n              dup9\n                /* \"#utility.yul\":8269:8291   */\n              add\n                /* \"#utility.yul\":8238:8301   */\n              tag_136\n              jump\t// in\n            tag_269:\n                /* \"#utility.yul\":8228:8301   */\n              swap5\n              pop\n                /* \"#utility.yul\":8024:8311   */\n              pop\n                /* \"#utility.yul\":8378:8380   */\n              0x20\n                /* \"#utility.yul\":8367:8376   */\n              dup6\n                /* \"#utility.yul\":8363:8381   */\n              add\n                /* \"#utility.yul\":8350:8382   */\n              calldataload\n                /* \"#utility.yul\":8409:8427   */\n              0xffffffffffffffff\n                /* \"#utility.yul\":8401:8407   */\n              dup2\n                /* \"#utility.yul\":8398:8428   */\n              gt\n                /* \"#utility.yul\":8395:8512   */\n              iszero\n              tag_270\n              jumpi\n                /* \"#utility.yul\":8431:8510   */\n              tag_271\n              tag_122\n              jump\t// in\n            tag_271:\n                /* \"#utility.yul\":8395:8512   */\n            tag_270:\n                /* \"#utility.yul\":8536:8599   */\n              tag_272\n                /* \"#utility.yul\":8591:8598   */\n              dup8\n                /* \"#utility.yul\":8582:8588   */\n              dup3\n                /* \"#utility.yul\":8571:8580   */\n              dup9\n                /* \"#utility.yul\":8567:8589   */\n              add\n                /* \"#utility.yul\":8536:8599   */\n              tag_136\n              jump\t// in\n            tag_272:\n                /* \"#utility.yul\":8526:8599   */\n              swap4\n              pop\n                /* \"#utility.yul\":8321:8609   */\n              pop\n                /* \"#utility.yul\":8648:8650   */\n              0x40\n                /* \"#utility.yul\":8674:8725   */\n              tag_273\n                /* \"#utility.yul\":8717:8724   */\n              dup8\n                /* \"#utility.yul\":8708:8714   */\n              dup3\n                /* \"#utility.yul\":8697:8706   */\n              dup9\n                /* \"#utility.yul\":8693:8715   */\n              add\n                /* \"#utility.yul\":8674:8725   */\n              tag_139\n              jump\t// in\n            tag_273:\n                /* \"#utility.yul\":8664:8725   */\n              swap3\n              pop\n                /* \"#utility.yul\":8619:8735   */\n              pop\n                /* \"#utility.yul\":8774:8776   */\n              0x60\n                /* \"#utility.yul\":8800:8853   */\n              tag_274\n                /* \"#utility.yul\":8845:8852   */\n              dup8\n                /* \"#utility.yul\":8836:8842   */\n              dup3\n                /* \"#utility.yul\":8825:8834   */\n              dup9\n                /* \"#utility.yul\":8821:8843   */\n              add\n                /* \"#utility.yul\":8800:8853   */\n              tag_142\n              jump\t// in\n            tag_274:\n                /* \"#utility.yul\":8790:8853   */\n              swap2\n              pop\n                /* \"#utility.yul\":8745:8863   */\n              pop\n                /* \"#utility.yul\":7749:8870   */\n              swap3\n              swap6\n              swap2\n              swap5\n              pop\n              swap3\n              pop\n              jump\t// out\n                /* \"#utility.yul\":8876:9201   */\n            tag_34:\n                /* \"#utility.yul\":8933:8939   */\n              0x00\n                /* \"#utility.yul\":8982:8984   */\n              0x20\n                /* \"#utility.yul\":8970:8979   */\n              dup3\n                /* \"#utility.yul\":8961:8968   */\n              dup5\n                /* \"#utility.yul\":8957:8980   */\n              sub\n                /* \"#utility.yul\":8953:8985   */\n              slt\n                /* \"#utility.yul\":8950:9069   */\n              iszero\n              tag_276\n              jumpi\n                /* \"#utility.yul\":8988:9067   */\n              tag_277\n              tag_121\n              jump\t// in\n            tag_277:\n                /* \"#utility.yul\":8950:9069   */\n            tag_276:\n                /* \"#utility.yul\":9108:9109   */\n              0x00\n                /* \"#utility.yul\":9133:9184   */\n              tag_278\n                /* \"#utility.yul\":9176:9183   */\n              dup5\n                /* \"#utility.yul\":9167:9173   */\n              dup3\n                /* \"#utility.yul\":9156:9165   */\n              dup6\n                /* \"#utility.yul\":9152:9174   */\n              add\n                /* \"#utility.yul\":9133:9184   */\n              tag_139\n              jump\t// in\n            tag_278:\n                /* \"#utility.yul\":9123:9184   */\n              swap2\n              pop\n                /* \"#utility.yul\":9079:9194   */\n              pop\n                /* \"#utility.yul\":8876:9201   */\n              swap3\n              swap2\n              pop\n              pop\n              jump\t// out\n                /* \"#utility.yul\":9207:9381   */\n            tag_153:\n                /* \"#utility.yul\":9347:9373   */\n              0x43616e646964617465206e6f7420726567697374657265640000000000000000\n                /* \"#utility.yul\":9343:9344   */\n              0x00\n                /* \"#utility.yul\":9335:9341   */\n              dup3\n                /* \"#utility.yul\":9331:9345   */\n              add\n                /* \"#utility.yul\":9324:9374   */\n              mstore\n                /* \"#utility.yul\":9207:9381   */\n              pop\n              jump\t// out\n                /* \"#utility.yul\":9387:9753   */\n            tag_154:\n                /* \"#utility.yul\":9529:9532   */\n              0x00\n                /* \"#utility.yul\":9550:9617   */\n              tag_281\n                /* \"#utility.yul\":9614:9616   */\n              0x18\n                /* \"#utility.yul\":9609:9612   */\n              dup4\n                /* \"#utility.yul\":9550:9617   */\n              tag_144\n              jump\t// in\n            tag_281:\n                /* \"#utility.yul\":9543:9617   */\n              swap2\n              pop\n                /* \"#utility.yul\":9626:9719   */\n              tag_282\n                /* \"#utility.yul\":9715:9718   */\n              dup3\n                /* \"#utility.yul\":9626:9719   */\n              tag_153\n              jump\t// in\n            tag_282:\n                /* \"#utility.yul\":9744:9746   */\n              0x20\n                /* \"#utility.yul\":9739:9742   */\n              dup3\n                /* \"#utility.yul\":9735:9747   */\n              add\n                /* \"#utility.yul\":9728:9747   */\n              swap1\n              pop\n                /* \"#utility.yul\":9387:9753   */\n              swap2\n              swap1\n              pop\n              jump\t// out\n                /* \"#utility.yul\":9759:10178   */\n            tag_44:\n                /* \"#utility.yul\":9925:9929   */\n              0x00\n                /* \"#utility.yul\":9963:9965   */\n              0x20\n                /* \"#utility.yul\":9952:9961   */\n              dup3\n                /* \"#utility.yul\":9948:9966   */\n              add\n                /* \"#utility.yul\":9940:9966   */\n              swap1\n              pop\n                /* \"#utility.yul\":10012:10021   */\n              dup2\n                /* \"#utility.yul\":10006:10010   */\n              dup2\n                /* \"#utility.yul\":10002:10022   */\n              sub\n                /* \"#utility.yul\":9998:9999   */\n              0x00\n                /* \"#utility.yul\":9987:9996   */\n              dup4\n                /* \"#utility.yul\":9983:10000   */\n              add\n                /* \"#utility.yul\":9976:10023   */\n              mstore\n                /* \"#utility.yul\":10040:10171   */\n              tag_284\n                /* \"#utility.yul\":10166:10170   */\n              dup2\n                /* \"#utility.yul\":10040:10171   */\n              tag_154\n              jump\t// in\n            tag_284:\n                /* \"#utility.yul\":10032:10171   */\n              swap1\n              pop\n                /* \"#utility.yul\":9759:10178   */\n              swap2\n              swap1\n              pop\n              jump\t// out\n                /* \"#utility.yul\":10184:10359   */\n            tag_155:\n                /* \"#utility.yul\":10324:10351   */\n              0x43616e646964617465206973206e6f7420656c696769626c6500000000000000\n                /* \"#utility.yul\":10320:10321   */\n              0x00\n                /* \"#utility.yul\":10312:10318   */\n              dup3\n                /* \"#utility.yul\":10308:10322   */\n              add\n                /* \"#utility.yul\":10301:10352   */\n              mstore\n                /* \"#utility.yul\":10184:10359   */\n              pop\n              jump\t// out\n                /* \"#utility.yul\":10365:10731   */\n            tag_156:\n                /* \"#utility.yul\":10507:10510   */\n              0x00\n                /* \"#utility.yul\":10528:10595   */\n              tag_287\n                /* \"#utility.yul\":10592:10594   */\n              0x19\n                /* \"#utility.yul\":10587:10590   */\n              dup4\n                /* \"#utility.yul\":10528:10595   */\n              tag_144\n              jump\t// in\n            tag_287:\n                /* \"#utility.yul\":10521:10595   */\n              swap2\n              pop\n                /* \"#utility.yul\":10604:10697   */\n              tag_288\n                /* \"#utility.yul\":10693:10696   */\n              dup3\n                /* \"#utility.yul\":10604:10697   */\n              tag_155\n              jump\t// in\n            tag_288:\n                /* \"#utility.yul\":10722:10724   */\n              0x20\n                /* \"#utility.yul\":10717:10720   */\n              dup3\n                /* \"#utility.yul\":10713:10725   */\n              add\n                /* \"#utility.yul\":10706:10725   */\n              swap1\n              pop\n                /* \"#utility.yul\":10365:10731   */\n              swap2\n              swap1\n              pop\n              jump\t// out\n                /* \"#utility.yul\":10737:11156   */\n            tag_47:\n                /* \"#utility.yul\":10903:10907   */\n              0x00\n                /* \"#utility.yul\":10941:10943   */\n              0x20\n                /* \"#utility.yul\":10930:10939   */\n              dup3\n                /* \"#utility.yul\":10926:10944   */\n              add\n                /* \"#utility.yul\":10918:10944   */\n              swap1\n              pop\n                /* \"#utility.yul\":10990:10999   */\n              dup2\n                /* \"#utility.yul\":10984:10988   */\n              dup2\n                /* \"#utility.yul\":10980:11000   */\n              sub\n                /* \"#utility.yul\":10976:10977   */\n              0x00\n                /* \"#utility.yul\":10965:10974   */\n              dup4\n                /* \"#utility.yul\":10961:10978   */\n              add\n                /* \"#utility.yul\":10954:11001   */\n              mstore\n                /* \"#utility.yul\":11018:11149   */\n              tag_290\n                /* \"#utility.yul\":11144:11148   */\n              dup2\n                /* \"#utility.yul\":11018:11149   */\n              tag_156\n              jump\t// in\n            tag_290:\n                /* \"#utility.yul\":11010:11149   */\n              swap1\n              pop\n                /* \"#utility.yul\":10737:11156   */\n              swap2\n              swap1\n              pop\n              jump\t// out\n                /* \"#utility.yul\":11162:11399   */\n            tag_157:\n                /* \"#utility.yul\":11302:11336   */\n              0x4f6e6c792061646d696e6973747261746f727320686176652074686520616363\n                /* \"#utility.yul\":11298:11299   */\n              0x00\n                /* \"#utility.yul\":11290:11296   */\n              dup3\n                /* \"#utility.yul\":11286:11300   */\n              add\n                /* \"#utility.yul\":11279:11337   */\n              mstore\n                /* \"#utility.yul\":11371:11391   */\n              0x65737320746f207468697320616374696f6e0000000000000000000000000000\n                /* \"#utility.yul\":11366:11368   */\n              0x20\n                /* \"#utility.yul\":11358:11364   */\n              dup3\n                /* \"#utility.yul\":11354:11369   */\n              add\n                /* \"#utility.yul\":11347:11392   */\n              mstore\n                /* \"#utility.yul\":11162:11399   */\n              pop\n              jump\t// out\n                /* \"#utility.yul\":11405:11771   */\n            tag_158:\n                /* \"#utility.yul\":11547:11550   */\n              0x00\n                /* \"#utility.yul\":11568:11635   */\n              tag_293\n                /* \"#utility.yul\":11632:11634   */\n              0x32\n                /* \"#utility.yul\":11627:11630   */\n              dup4\n                /* \"#utility.yul\":11568:11635   */\n              tag_144\n              jump\t// in\n            tag_293:\n                /* \"#utility.yul\":11561:11635   */\n              swap2\n              pop\n                /* \"#utility.yul\":11644:11737   */\n              tag_294\n                /* \"#utility.yul\":11733:11736   */\n              dup3\n                /* \"#utility.yul\":11644:11737   */\n              tag_157\n              jump\t// in\n            tag_294:\n                /* \"#utility.yul\":11762:11764   */\n              0x40\n                /* \"#utility.yul\":11757:11760   */\n              dup3\n                /* \"#utility.yul\":11753:11765   */\n              add\n                /* \"#utility.yul\":11746:11765   */\n              swap1\n              pop\n                /* \"#utility.yul\":11405:11771   */\n              swap2\n              swap1\n              pop\n              jump\t// out\n                /* \"#utility.yul\":11777:12196   */\n            tag_53:\n                /* \"#utility.yul\":11943:11947   */\n              0x00\n                /* \"#utility.yul\":11981:11983   */\n              0x20\n                /* \"#utility.yul\":11970:11979   */\n              dup3\n                /* \"#utility.yul\":11966:11984   */\n              add\n                /* \"#utility.yul\":11958:11984   */\n              swap1\n              pop\n                /* \"#utility.yul\":12030:12039   */\n              dup2\n                /* \"#utility.yul\":12024:12028   */\n              dup2\n                /* \"#utility.yul\":12020:12040   */\n              sub\n                /* \"#utility.yul\":12016:12017   */\n              0x00\n                /* \"#utility.yul\":12005:12014   */\n              dup4\n                /* \"#utility.yul\":12001:12018   */\n              add\n                /* \"#utility.yul\":11994:12041   */\n              mstore\n                /* \"#utility.yul\":12058:12189   */\n              tag_296\n                /* \"#utility.yul\":12184:12188   */\n              dup2\n                /* \"#utility.yul\":12058:12189   */\n              tag_158\n              jump\t// in\n            tag_296:\n                /* \"#utility.yul\":12050:12189   */\n              swap1\n              pop\n                /* \"#utility.yul\":11777:12196   */\n              swap2\n              swap1\n              pop\n              jump\t// out\n                /* \"#utility.yul\":12202:12443   */\n            tag_159:\n                /* \"#utility.yul\":12342:12376   */\n              0x4569746865722074686520766f746572206973206e6f74207265676973746572\n                /* \"#utility.yul\":12338:12339   */\n              0x00\n                /* \"#utility.yul\":12330:12336   */\n              dup3\n                /* \"#utility.yul\":12326:12340   */\n              add\n                /* \"#utility.yul\":12319:12377   */\n              mstore\n                /* \"#utility.yul\":12411:12435   */\n              0x6564206f7220616c726561647920617070726f76656400000000000000000000\n                /* \"#utility.yul\":12406:12408   */\n              0x20\n                /* \"#utility.yul\":12398:12404   */\n              dup3\n                /* \"#utility.yul\":12394:12409   */\n              add\n                /* \"#utility.yul\":12387:12436   */\n              mstore\n                /* \"#utility.yul\":12202:12443   */\n              pop\n              jump\t// out\n                /* \"#utility.yul\":12449:12815   */\n            tag_160:\n                /* \"#utility.yul\":12591:12594   */\n              0x00\n                /* \"#utility.yul\":12612:12679   */\n              tag_299\n                /* \"#utility.yul\":12676:12678   */\n              0x36\n                /* \"#utility.yul\":12671:12674   */\n              dup4\n                /* \"#utility.yul\":12612:12679   */\n              tag_144\n              jump\t// in\n            tag_299:\n                /* \"#utility.yul\":12605:12679   */\n              swap2\n              pop\n                /* \"#utility.yul\":12688:12781   */\n              tag_300\n                /* \"#utility.yul\":12777:12780   */\n              dup3\n                /* \"#utility.yul\":12688:12781   */\n              tag_159\n              jump\t// in\n            tag_300:\n                /* \"#utility.yul\":12806:12808   */\n              0x40\n                /* \"#utility.yul\":12801:12804   */\n              dup3\n                /* \"#utility.yul\":12797:12809   */\n              add\n                /* \"#utility.yul\":12790:12809   */\n              swap1\n              pop\n                /* \"#utility.yul\":12449:12815   */\n              swap2\n              swap1\n              pop\n              jump\t// out\n                /* \"#utility.yul\":12821:13240   */\n            tag_61:\n                /* \"#utility.yul\":12987:12991   */\n              0x00\n                /* \"#utility.yul\":13025:13027   */\n              0x20\n                /* \"#utility.yul\":13014:13023   */\n              dup3\n                /* \"#utility.yul\":13010:13028   */\n              add\n                /* \"#utility.yul\":13002:13028   */\n              swap1\n              pop\n                /* \"#utility.yul\":13074:13083   */\n              dup2\n                /* \"#utility.yul\":13068:13072   */\n              dup2\n                /* \"#utility.yul\":13064:13084   */\n              sub\n                /* \"#utility.yul\":13060:13061   */\n              0x00\n                /* \"#utility.yul\":13049:13058   */\n              dup4\n                /* \"#utility.yul\":13045:13062   */\n              add\n                /* \"#utility.yul\":13038:13085   */\n              mstore\n                /* \"#utility.yul\":13102:13233   */\n              tag_302\n                /* \"#utility.yul\":13228:13232   */\n              dup2\n                /* \"#utility.yul\":13102:13233   */\n              tag_160\n              jump\t// in\n            tag_302:\n                /* \"#utility.yul\":13094:13233   */\n              swap1\n              pop\n                /* \"#utility.yul\":12821:13240   */\n              swap2\n              swap1\n              pop\n              jump\t// out\n                /* \"#utility.yul\":13246:13417   */\n            tag_161:\n                /* \"#utility.yul\":13386:13409   */\n              0x4e6f7420616e20656c696769626c6520766f7465720000000000000000000000\n                /* \"#utility.yul\":13382:13383   */\n              0x00\n                /* \"#utility.yul\":13374:13380   */\n              dup3\n                /* \"#utility.yul\":13370:13384   */\n              add\n                /* \"#utility.yul\":13363:13410   */\n              mstore\n                /* \"#utility.yul\":13246:13417   */\n              pop\n              jump\t// out\n                /* \"#utility.yul\":13423:13789   */\n            tag_162:\n                /* \"#utility.yul\":13565:13568   */\n              0x00\n                /* \"#utility.yul\":13586:13653   */\n              tag_305\n                /* \"#utility.yul\":13650:13652   */\n              0x15\n                /* \"#utility.yul\":13645:13648   */\n              dup4\n                /* \"#utility.yul\":13586:13653   */\n              tag_144\n              jump\t// in\n            tag_305:\n                /* \"#utility.yul\":13579:13653   */\n              swap2\n              pop\n                /* \"#utility.yul\":13662:13755   */\n              tag_306\n                /* \"#utility.yul\":13751:13754   */\n              dup3\n                /* \"#utility.yul\":13662:13755   */\n              tag_161\n              jump\t// in\n            tag_306:\n                /* \"#utility.yul\":13780:13782   */\n              0x20\n                /* \"#utility.yul\":13775:13778   */\n              dup3\n                /* \"#utility.yul\":13771:13783   */\n              add\n                /* \"#utility.yul\":13764:13783   */\n              swap1\n              pop\n                /* \"#utility.yul\":13423:13789   */\n              swap2\n              swap1\n              pop\n              jump\t// out\n                /* \"#utility.yul\":13795:14214   */\n            tag_64:\n                /* \"#utility.yul\":13961:13965   */\n              0x00\n                /* \"#utility.yul\":13999:14001   */\n              0x20\n                /* \"#utility.yul\":13988:13997   */\n              dup3\n                /* \"#utility.yul\":13984:14002   */\n              add\n                /* \"#utility.yul\":13976:14002   */\n              swap1\n              pop\n                /* \"#utility.yul\":14048:14057   */\n              dup2\n                /* \"#utility.yul\":14042:14046   */\n              dup2\n                /* \"#utility.yul\":14038:14058   */\n              sub\n                /* \"#utility.yul\":14034:14035   */\n              0x00\n                /* \"#utility.yul\":14023:14032   */\n              dup4\n                /* \"#utility.yul\":14019:14036   */\n              add\n                /* \"#utility.yul\":14012:14059   */\n              mstore\n                /* \"#utility.yul\":14076:14207   */\n              tag_308\n                /* \"#utility.yul\":14202:14206   */\n              dup2\n                /* \"#utility.yul\":14076:14207   */\n              tag_162\n              jump\t// in\n            tag_308:\n                /* \"#utility.yul\":14068:14207   */\n              swap1\n              pop\n                /* \"#utility.yul\":13795:14214   */\n              swap2\n              swap1\n              pop\n              jump\t// out\n                /* \"#utility.yul\":14220:14400   */\n            tag_163:\n                /* \"#utility.yul\":14268:14345   */\n              0x4e487b7100000000000000000000000000000000000000000000000000000000\n                /* \"#utility.yul\":14265:14266   */\n              0x00\n                /* \"#utility.yul\":14258:14346   */\n              mstore\n                /* \"#utility.yul\":14365:14369   */\n              0x22\n                /* \"#utility.yul\":14362:14363   */\n              0x04\n                /* \"#utility.yul\":14355:14370   */\n              mstore\n                /* \"#utility.yul\":14389:14393   */\n              0x24\n                /* \"#utility.yul\":14386:14387   */\n              0x00\n                /* \"#utility.yul\":14379:14394   */\n              revert\n                /* \"#utility.yul\":14406:14726   */\n            tag_76:\n                /* \"#utility.yul\":14450:14456   */\n              0x00\n                /* \"#utility.yul\":14487:14488   */\n              0x02\n                /* \"#utility.yul\":14481:14485   */\n              dup3\n                /* \"#utility.yul\":14477:14489   */\n              div\n                /* \"#utility.yul\":14467:14489   */\n              swap1\n              pop\n                /* \"#utility.yul\":14534:14535   */\n              0x01\n                /* \"#utility.yul\":14528:14532   */\n              dup3\n                /* \"#utility.yul\":14524:14536   */\n              and\n                /* \"#utility.yul\":14555:14573   */\n              dup1\n                /* \"#utility.yul\":14545:14626   */\n              tag_311\n              jumpi\n                /* \"#utility.yul\":14611:14615   */\n              0x7f\n                /* \"#utility.yul\":14603:14609   */\n              dup3\n                /* \"#utility.yul\":14599:14616   */\n              and\n                /* \"#utility.yul\":14589:14616   */\n              swap2\n              pop\n                /* \"#utility.yul\":14545:14626   */\n            tag_311:\n                /* \"#utility.yul\":14673:14675   */\n              0x20\n                /* \"#utility.yul\":14665:14671   */\n              dup3\n                /* \"#utility.yul\":14662:14676   */\n              lt\n                /* \"#utility.yul\":14642:14660   */\n              dup2\n                /* \"#utility.yul\":14639:14677   */\n              sub\n                /* \"#utility.yul\":14636:14720   */\n              tag_312\n              jumpi\n                /* \"#utility.yul\":14692:14710   */\n              tag_313\n              tag_163\n              jump\t// in\n            tag_313:\n                /* \"#utility.yul\":14636:14720   */\n            tag_312:\n                /* \"#utility.yul\":14457:14726   */\n              pop\n                /* \"#utility.yul\":14406:14726   */\n              swap2\n              swap1\n              pop\n              jump\t// out\n                /* \"#utility.yul\":14732:14960   */\n            tag_164:\n                /* \"#utility.yul\":14872:14906   */\n              0x416d6f756e742073686f756c642062652065786163746c7920657175616c2074\n                /* \"#utility.yul\":14868:14869   */\n              0x00\n                /* \"#utility.yul\":14860:14866   */\n              dup3\n                /* \"#utility.yul\":14856:14870   */\n              add\n                /* \"#utility.yul\":14849:14907   */\n              mstore\n                /* \"#utility.yul\":14941:14952   */\n              0x6f20312045544845520000000000000000000000000000000000000000000000\n                /* \"#utility.yul\":14936:14938   */\n              0x20\n                /* \"#utility.yul\":14928:14934   */\n              dup3\n                /* \"#utility.yul\":14924:14939   */\n              add\n                /* \"#utility.yul\":14917:14953   */\n              mstore\n                /* \"#utility.yul\":14732:14960   */\n              pop\n              jump\t// out\n                /* \"#utility.yul\":14966:15332   */\n            tag_165:\n                /* \"#utility.yul\":15108:15111   */\n              0x00\n                /* \"#utility.yul\":15129:15196   */\n              tag_316\n                /* \"#utility.yul\":15193:15195   */\n              0x29\n                /* \"#utility.yul\":15188:15191   */\n              dup4\n                /* \"#utility.yul\":15129:15196   */\n              tag_144\n              jump\t// in\n            tag_316:\n                /* \"#utility.yul\":15122:15196   */\n              swap2\n              pop\n                /* \"#utility.yul\":15205:15298   */\n              tag_317\n                /* \"#utility.yul\":15294:15297   */\n              dup3\n                /* \"#utility.yul\":15205:15298   */\n              tag_164\n              jump\t// in\n            tag_317:\n                /* \"#utility.yul\":15323:15325   */\n              0x40\n                /* \"#utility.yul\":15318:15321   */\n              dup3\n                /* \"#utility.yul\":15314:15326   */\n              add\n                /* \"#utility.yul\":15307:15326   */\n              swap1\n              pop\n                /* \"#utility.yul\":14966:15332   */\n              swap2\n              swap1\n              pop\n              jump\t// out\n                /* \"#utility.yul\":15338:15757   */\n            tag_94:\n                /* \"#utility.yul\":15504:15508   */\n              0x00\n                /* \"#utility.yul\":15542:15544   */\n              0x20\n                /* \"#utility.yul\":15531:15540   */\n              dup3\n                /* \"#utility.yul\":15527:15545   */\n              add\n                /* \"#utility.yul\":15519:15545   */\n              swap1\n              pop\n                /* \"#utility.yul\":15591:15600   */\n              dup2\n                /* \"#utility.yul\":15585:15589   */\n              dup2\n                /* \"#utility.yul\":15581:15601   */\n              sub\n                /* \"#utility.yul\":15577:15578   */\n              0x00\n                /* \"#utility.yul\":15566:15575   */\n              dup4\n                /* \"#utility.yul\":15562:15579   */\n              add\n                /* \"#utility.yul\":15555:15602   */\n              mstore\n                /* \"#utility.yul\":15619:15750   */\n              tag_319\n                /* \"#utility.yul\":15745:15749   */\n              dup2\n                /* \"#utility.yul\":15619:15750   */\n              tag_165\n              jump\t// in\n            tag_319:\n                /* \"#utility.yul\":15611:15750   */\n              swap1\n              pop\n                /* \"#utility.yul\":15338:15757   */\n              swap2\n              swap1\n              pop\n              jump\t// out\n                /* \"#utility.yul\":15763:15992   */\n            tag_166:\n                /* \"#utility.yul\":15903:15937   */\n              0x45697468657220796f75206e6f742072656769737465726564206f7220616c72\n                /* \"#utility.yul\":15899:15900   */\n              0x00\n                /* \"#utility.yul\":15891:15897   */\n              dup3\n                /* \"#utility.yul\":15887:15901   */\n              add\n                /* \"#utility.yul\":15880:15938   */\n              mstore\n                /* \"#utility.yul\":15972:15984   */\n              0x6561647920766f74656400000000000000000000000000000000000000000000\n                /* \"#utility.yul\":15967:15969   */\n              0x20\n                /* \"#utility.yul\":15959:15965   */\n              dup3\n                /* \"#utility.yul\":15955:15970   */\n              add\n                /* \"#utility.yul\":15948:15985   */\n              mstore\n                /* \"#utility.yul\":15763:15992   */\n              pop\n              jump\t// out\n                /* \"#utility.yul\":15998:16364   */\n            tag_167:\n                /* \"#utility.yul\":16140:16143   */\n              0x00\n                /* \"#utility.yul\":16161:16228   */\n              tag_322\n                /* \"#utility.yul\":16225:16227   */\n              0x2a\n                /* \"#utility.yul\":16220:16223   */\n              dup4\n                /* \"#utility.yul\":16161:16228   */\n              tag_144\n              jump\t// in\n            tag_322:\n                /* \"#utility.yul\":16154:16228   */\n              swap2\n              pop\n                /* \"#utility.yul\":16237:16330   */\n              tag_323\n                /* \"#utility.yul\":16326:16329   */\n              dup3\n                /* \"#utility.yul\":16237:16330   */\n              tag_166\n              jump\t// in\n            tag_323:\n                /* \"#utility.yul\":16355:16357   */\n              0x40\n                /* \"#utility.yul\":16350:16353   */\n              dup3\n                /* \"#utility.yul\":16346:16358   */\n              add\n                /* \"#utility.yul\":16339:16358   */\n              swap1\n              pop\n                /* \"#utility.yul\":15998:16364   */\n              swap2\n              swap1\n              pop\n              jump\t// out\n                /* \"#utility.yul\":16370:16789   */\n            tag_104:\n                /* \"#utility.yul\":16536:16540   */\n              0x00\n                /* \"#utility.yul\":16574:16576   */\n              0x20\n                /* \"#utility.yul\":16563:16572   */\n              dup3\n                /* \"#utility.yul\":16559:16577   */\n              add\n                /* \"#utility.yul\":16551:16577   */\n              swap1\n              pop\n                /* \"#utility.yul\":16623:16632   */\n              dup2\n                /* \"#utility.yul\":16617:16621   */\n              dup2\n                /* \"#utility.yul\":16613:16633   */\n              sub\n                /* \"#utility.yul\":16609:16610   */\n              0x00\n                /* \"#utility.yul\":16598:16607   */\n              dup4\n                /* \"#utility.yul\":16594:16611   */\n              add\n                /* \"#utility.yul\":16587:16634   */\n              mstore\n                /* \"#utility.yul\":16651:16782   */\n              tag_325\n                /* \"#utility.yul\":16777:16781   */\n              dup2\n                /* \"#utility.yul\":16651:16782   */\n              tag_167\n              jump\t// in\n            tag_325:\n                /* \"#utility.yul\":16643:16782   */\n              swap1\n              pop\n                /* \"#utility.yul\":16370:16789   */\n              swap2\n              swap1\n              pop\n              jump\t// out\n                /* \"#utility.yul\":16795:16975   */\n            tag_168:\n                /* \"#utility.yul\":16843:16920   */\n              0x4e487b7100000000000000000000000000000000000000000000000000000000\n                /* \"#utility.yul\":16840:16841   */\n              0x00\n                /* \"#utility.yul\":16833:16921   */\n              mstore\n                /* \"#utility.yul\":16940:16944   */\n              0x11\n                /* \"#utility.yul\":16937:16938   */\n              0x04\n                /* \"#utility.yul\":16930:16945   */\n              mstore\n                /* \"#utility.yul\":16964:16968   */\n              0x24\n                /* \"#utility.yul\":16961:16962   */\n              0x00\n                /* \"#utility.yul\":16954:16969   */\n              revert\n                /* \"#utility.yul\":16981:17214   */\n            tag_106:\n                /* \"#utility.yul\":17020:17023   */\n              0x00\n                /* \"#utility.yul\":17043:17067   */\n              tag_328\n                /* \"#utility.yul\":17061:17066   */\n              dup3\n                /* \"#utility.yul\":17043:17067   */\n              tag_140\n              jump\t// in\n            tag_328:\n                /* \"#utility.yul\":17034:17067   */\n              swap2\n              pop\n                /* \"#utility.yul\":17089:17155   */\n              0xffffffffffffffffffffffffffffffffffffffffffffffffffffffffffffffff\n                /* \"#utility.yul\":17082:17087   */\n              dup3\n                /* \"#utility.yul\":17079:17156   */\n              sub\n                /* \"#utility.yul\":17076:17179   */\n              tag_329\n              jumpi\n                /* \"#utility.yul\":17159:17177   */\n              tag_330\n              tag_168\n              jump\t// in\n            tag_330:\n                /* \"#utility.yul\":17076:17179   */\n            tag_329:\n                /* \"#utility.yul\":17206:17207   */\n              0x01\n                /* \"#utility.yul\":17199:17204   */\n              dup3\n                /* \"#utility.yul\":17195:17208   */\n              add\n                /* \"#utility.yul\":17188:17208   */\n              swap1\n              pop\n                /* \"#utility.yul\":16981:17214   */\n              swap2\n              swap1\n              pop\n              jump\t// out\n\n            auxdata: 0xa2646970667358221220f15b1d0caa40fddea2860a078f57a26743329dcedfd0f70eb941c7a932bfebdc64736f6c634300080d0033\n        }\n    }\n\n    auxdata: 0xa26469706673582212207e9a45dca02960562ec65b30f14d933f876beba2cb59d9a304c73b2932a41bef64736f6c634300080d0033\n}\n","bytecode":{"linkReferences":{},"object":"608060405234801561001057600080fd5b50612442806100206000396000f3fe60806040523480156200001157600080fd5b5060043610620000465760003560e01c80633101b0a8146200004b578063ca306594146200006b578063f18b4f8e146200008d575b600080fd5b62000069600480360381019062000063919062000467565b620000c3565b005b6200007562000170565b60405162000084919062000620565b60405180910390f35b620000ab6004803603810190620000a591906200067f565b62000200565b604051620000ba9190620006c2565b60405180910390f35b600084848484604051620000d79062000240565b620000e6949392919062000794565b604051809103906000f08015801562000103573d6000803e3d6000fd5b5090506000819080600181540180825580915050600190039060005260206000200160009091909190916101000a81548173ffffffffffffffffffffffffffffffffffffffff021916908373ffffffffffffffffffffffffffffffffffffffff1602179055505050505050565b60606000805480602002602001604051908101604052809291908181526020018280548015620001f657602002820191906000526020600020905b8160009054906101000a900473ffffffffffffffffffffffffffffffffffffffff1673ffffffffffffffffffffffffffffffffffffffff1681526020019060010190808311620001ab575b5050505050905090565b600081815481106200021157600080fd5b906000526020600020016000915054906101000a900473ffffffffffffffffffffffffffffffffffffffff1681565b611c2480620007e983390190565b6000604051905090565b600080fd5b600080fd5b600080fd5b600080fd5b6000601f19601f8301169050919050565b7f4e487b7100000000000000000000000000000000000000000000000000000000600052604160045260246000fd5b620002b7826200026c565b810181811067ffffffffffffffff82111715620002d957620002d86200027d565b5b80604052505050565b6000620002ee6200024e565b9050620002fc8282620002ac565b919050565b600067ffffffffffffffff8211156200031f576200031e6200027d565b5b6200032a826200026c565b9050602081019050919050565b82818337600083830152505050565b60006200035d620003578462000301565b620002e2565b9050828152602081018484840111156200037c576200037b62000267565b5b6200038984828562000337565b509392505050565b600082601f830112620003a957620003a862000262565b5b8135620003bb84826020860162000346565b91505092915050565b600060ff82169050919050565b620003dc81620003c4565b8114620003e857600080fd5b50565b600081359050620003fc81620003d1565b92915050565b600073ffffffffffffffffffffffffffffffffffffffff82169050919050565b60006200042f8262000402565b9050919050565b620004418162000422565b81146200044d57600080fd5b50565b600081359050620004618162000436565b92915050565b6000806000806080858703121562000484576200048362000258565b5b600085013567ffffffffffffffff811115620004a557620004a46200025d565b5b620004b38782880162000391565b9450506020620004c687828801620003eb565b9350506040620004d987828801620003eb565b9250506060620004ec8782880162000450565b91505092959194509250565b600081519050919050565b600082825260208201905092915050565b6000819050602082019050919050565b6000819050919050565b60006200054f62000549620005438462000402565b62000524565b62000402565b9050919050565b600062000563826200052e565b9050919050565b6000620005778262000556565b9050919050565b62000589816200056a565b82525050565b60006200059d83836200057e565b60208301905092915050565b6000602082019050919050565b6000620005c382620004f8565b620005cf818562000503565b9350620005dc8362000514565b8060005b8381101562000613578151620005f788826200058f565b97506200060483620005a9565b925050600181019050620005e0565b5085935050505092915050565b600060208201905081810360008301526200063c8184620005b6565b905092915050565b6000819050919050565b620006598162000644565b81146200066557600080fd5b50565b60008135905062000679816200064e565b92915050565b60006020828403121562000698576200069762000258565b5b6000620006a88482850162000668565b91505092915050565b620006bc816200056a565b82525050565b6000602082019050620006d96000830184620006b1565b92915050565b600081519050919050565b600082825260208201905092915050565b60005b838110156200071b578082015181840152602081019050620006fe565b838111156200072b576000848401525b50505050565b60006200073e82620006df565b6200074a8185620006ea565b93506200075c818560208601620006fb565b62000767816200026c565b840191505092915050565b6200077d81620003c4565b82525050565b6200078e8162000422565b82525050565b60006080820190508181036000830152620007b0818762000731565b9050620007c1602083018662000772565b620007d0604083018562000772565b620007df606083018462000783565b9594505050505056fe60806040523480156200001157600080fd5b5060405162001c2438038062001c24833981810160405281019062000037919062000504565b806000806101000a81548173ffffffffffffffffffffffffffffffffffffffff021916908373ffffffffffffffffffffffffffffffffffffffff16021790555060028360ff161115620000c1576040517f08c379a0000000000000000000000000000000000000000000000000000000008152600401620000b890620005f6565b60405180910390fd5b60018260ff1611156200010b576040517f08c379a00000000000000000000000000000000000000000000000000000000081526004016200010290620005f6565b60405180910390fd5b60405180606001604052808581526020018460ff16600281111562000135576200013462000618565b5b60028111156200014a576200014962000618565b5b81526020018360ff16600181111562000168576200016762000618565b5b60018111156200017d576200017c62000618565b5b81525060016000820151816000019080519060200190620001a092919062000214565b5060208201518160010160006101000a81548160ff02191690836002811115620001cf57620001ce62000618565b5b021790555060408201518160010160016101000a81548160ff0219169083600181111562000202576200020162000618565b5b021790555090505050505050620006ab565b828054620002229062000676565b90600052602060002090601f01602090048101928262000246576000855562000292565b82601f106200026157805160ff191683800117855562000292565b8280016001018555821562000292579182015b828111156200029157825182559160200191906001019062000274565b5b509050620002a19190620002a5565b5090565b5b80821115620002c0576000816000905550600101620002a6565b5090565b6000604051905090565b600080fd5b600080fd5b600080fd5b600080fd5b6000601f19601f8301169050919050565b7f4e487b7100000000000000000000000000000000000000000000000000000000600052604160045260246000fd5b6200032d82620002e2565b810181811067ffffffffffffffff821117156200034f576200034e620002f3565b5b80604052505050565b600062000364620002c4565b905062000372828262000322565b919050565b600067ffffffffffffffff821115620003955762000394620002f3565b5b620003a082620002e2565b9050602081019050919050565b60005b83811015620003cd578082015181840152602081019050620003b0565b83811115620003dd576000848401525b50505050565b6000620003fa620003f48462000377565b62000358565b905082815260208101848484011115620004195762000418620002dd565b5b62000426848285620003ad565b509392505050565b600082601f830112620004465762000445620002d8565b5b815162000458848260208601620003e3565b91505092915050565b600060ff82169050919050565b620004798162000461565b81146200048557600080fd5b50565b60008151905062000499816200046e565b92915050565b600073ffffffffffffffffffffffffffffffffffffffff82169050919050565b6000620004cc826200049f565b9050919050565b620004de81620004bf565b8114620004ea57600080fd5b50565b600081519050620004fe81620004d3565b92915050565b60008060008060808587031215620005215762000520620002ce565b5b600085015167ffffffffffffffff811115620005425762000541620002d3565b5b62000550878288016200042e565b9450506020620005638782880162000488565b9350506040620005768782880162000488565b92505060606200058987828801620004ed565b91505092959194509250565b600082825260208201905092915050565b7f4f7574206f6620626f756e640000000000000000000000000000000000000000600082015250565b6000620005de600c8362000595565b9150620005eb82620005a6565b602082019050919050565b600060208201905081810360008301526200061181620005cf565b9050919050565b7f4e487b7100000000000000000000000000000000000000000000000000000000600052602160045260246000fd5b7f4e487b7100000000000000000000000000000000000000000000000000000000600052602260045260246000fd5b600060028204905060018216806200068f57607f821691505b602082108103620006a557620006a462000647565b5b50919050565b61156980620006bb6000396000f3fe6080604052600436106100555760003560e01c806307be7e911461005a578063119d4ddb1461008357806318abf078146100ac57806381f539ff146100d557806392434d7c14610104578063b3f98adc14610120575b600080fd5b34801561006657600080fd5b50610081600480360381019061007c9190610c28565b610149565b005b34801561008f57600080fd5b506100aa60048036038101906100a59190610c28565b610303565b005b3480156100b857600080fd5b506100d360048036038101906100ce9190610e0a565b61054b565b005b3480156100e157600080fd5b506100ea610658565b6040516100fb959493929190610faa565b60405180910390f35b61011e60048036038101906101199190611004565b6107d7565b005b34801561012c57600080fd5b50610147600480360381019061014291906110a3565b6109a8565b005b6000600281111561015d5761015c610f33565b5b600560008373ffffffffffffffffffffffffffffffffffffffff1673ffffffffffffffffffffffffffffffffffffffff16815260200190815260200160002060040160009054906101000a900460ff1660028111156101bf576101be610f33565b5b146101ff576040517f08c379a00000000000000000000000000000000000000000000000000000000081526004016101f69061111c565b60405180910390fd5b601e600560008373ffffffffffffffffffffffffffffffffffffffff1673ffffffffffffffffffffffffffffffffffffffff16815260200190815260200160002060020160009054906101000a900460ff1660ff161015610295576040517f08c379a000000000000000000000000000000000000000000000000000000000815260040161028c90611188565b60405180910390fd5b6001600560008373ffffffffffffffffffffffffffffffffffffffff1673ffffffffffffffffffffffffffffffffffffffff16815260200190815260200160002060040160006101000a81548160ff021916908360028111156102fb576102fa610f33565b5b021790555050565b3373ffffffffffffffffffffffffffffffffffffffff1660008054906101000a900473ffffffffffffffffffffffffffffffffffffffff1673ffffffffffffffffffffffffffffffffffffffff1614610391576040517f08c379a00000000000000000000000000000000000000000000000000000000081526004016103889061121a565b60405180910390fd5b600060028111156103a5576103a4610f33565b5b600360008373ffffffffffffffffffffffffffffffffffffffff1673ffffffffffffffffffffffffffffffffffffffff16815260200190815260200160002060040160009054906101000a900460ff16600281111561040757610406610f33565b5b14610447576040517f08c379a000000000000000000000000000000000000000000000000000000000815260040161043e906112ac565b60405180910390fd5b6012600360008373ffffffffffffffffffffffffffffffffffffffff1673ffffffffffffffffffffffffffffffffffffffff16815260200190815260200160002060010160009054906101000a900460ff1660ff1610156104dd576040517f08c379a00000000000000000000000000000000000000000000000000000000081526004016104d490611318565b60405180910390fd5b6001600360008373ffffffffffffffffffffffffffffffffffffffff1673ffffffffffffffffffffffffffffffffffffffff16815260200190815260200160002060040160006101000a81548160ff0219169083600281111561054357610542610f33565b5b021790555050565b60006040518060a001604052808681526020018560ff1681526020018481526020018381526020016000600281111561058757610586610f33565b5b815250905080600360003373ffffffffffffffffffffffffffffffffffffffff1673ffffffffffffffffffffffffffffffffffffffff16815260200190815260200160002060008201518160000190805190602001906105e8929190610b13565b5060208201518160010160006101000a81548160ff021916908360ff160217905550604082015181600201556060820151816003015560808201518160040160006101000a81548160ff0219169083600281111561064957610648610f33565b5b02179055509050505050505050565b60606000806000806000600360003373ffffffffffffffffffffffffffffffffffffffff1673ffffffffffffffffffffffffffffffffffffffff1681526020019081526020016000206040518060a00160405290816000820180546106bc90611367565b80601f01602080910402602001604051908101604052809291908181526020018280546106e890611367565b80156107355780601f1061070a57610100808354040283529160200191610735565b820191906000526020600020905b81548152906001019060200180831161071857829003601f168201915b505050505081526020016001820160009054906101000a900460ff1660ff1660ff16815260200160028201548152602001600382015481526020016004820160009054906101000a900460ff16600281111561079457610793610f33565b5b60028111156107a6576107a5610f33565b5b8152505090508060000151816020015182604001518360600151846080015195509550955095509550509091929394565b60006040518060a001604052808681526020018581526020018460ff1681526020018381526020016000600281111561081357610812610f33565b5b815250905080600560003373ffffffffffffffffffffffffffffffffffffffff1673ffffffffffffffffffffffffffffffffffffffff1681526020019081526020016000206000820151816000019080519060200190610874929190610b13565b506020820151816001019080519060200190610891929190610b13565b5060408201518160020160006101000a81548160ff021916908360ff1602179055506060820151816003015560808201518160040160006101000a81548160ff021916908360028111156108e8576108e7610f33565b5b0217905550905050670de0b6b3a7640000341461093a576040517f08c379a00000000000000000000000000000000000000000000000000000000081526004016109319061140a565b60405180910390fd5b60008054906101000a900473ffffffffffffffffffffffffffffffffffffffff1673ffffffffffffffffffffffffffffffffffffffff166108fc349081150290604051600060405180830381858888f193505050501580156109a0573d6000803e3d6000fd5b505050505050565b600160028111156109bc576109bb610f33565b5b600360003373ffffffffffffffffffffffffffffffffffffffff1673ffffffffffffffffffffffffffffffffffffffff16815260200190815260200160002060040160009054906101000a900460ff166002811115610a1e57610a1d610f33565b5b14610a5e576040517f08c379a0000000000000000000000000000000000000000000000000000000008152600401610a559061149c565b60405180910390fd5b600460008260ff1660ff1681526020019081526020016000206000815480929190610a88906114eb565b919050555060066000815480929190610aa0906114eb565b91905055506002600360003373ffffffffffffffffffffffffffffffffffffffff1673ffffffffffffffffffffffffffffffffffffffff16815260200190815260200160002060040160006101000a81548160ff02191690836002811115610b0b57610b0a610f33565b5b021790555050565b828054610b1f90611367565b90600052602060002090601f016020900481019282610b415760008555610b88565b82601f10610b5a57805160ff1916838001178555610b88565b82800160010185558215610b88579182015b82811115610b87578251825591602001919060010190610b6c565b5b509050610b959190610b99565b5090565b5b80821115610bb2576000816000905550600101610b9a565b5090565b6000604051905090565b600080fd5b600080fd5b600073ffffffffffffffffffffffffffffffffffffffff82169050919050565b6000610bf582610bca565b9050919050565b610c0581610bea565b8114610c1057600080fd5b50565b600081359050610c2281610bfc565b92915050565b600060208284031215610c3e57610c3d610bc0565b5b6000610c4c84828501610c13565b91505092915050565b600080fd5b600080fd5b6000601f19601f8301169050919050565b7f4e487b7100000000000000000000000000000000000000000000000000000000600052604160045260246000fd5b610ca882610c5f565b810181811067ffffffffffffffff82111715610cc757610cc6610c70565b5b80604052505050565b6000610cda610bb6565b9050610ce68282610c9f565b919050565b600067ffffffffffffffff821115610d0657610d05610c70565b5b610d0f82610c5f565b9050602081019050919050565b82818337600083830152505050565b6000610d3e610d3984610ceb565b610cd0565b905082815260208101848484011115610d5a57610d59610c5a565b5b610d65848285610d1c565b509392505050565b600082601f830112610d8257610d81610c55565b5b8135610d92848260208601610d2b565b91505092915050565b600060ff82169050919050565b610db181610d9b565b8114610dbc57600080fd5b50565b600081359050610dce81610da8565b92915050565b6000819050919050565b610de781610dd4565b8114610df257600080fd5b50565b600081359050610e0481610dde565b92915050565b60008060008060808587031215610e2457610e23610bc0565b5b600085013567ffffffffffffffff811115610e4257610e41610bc5565b5b610e4e87828801610d6d565b9450506020610e5f87828801610dbf565b9350506040610e7087828801610df5565b9250506060610e8187828801610df5565b91505092959194509250565b600081519050919050565b600082825260208201905092915050565b60005b83811015610ec7578082015181840152602081019050610eac565b83811115610ed6576000848401525b50505050565b6000610ee782610e8d565b610ef18185610e98565b9350610f01818560208601610ea9565b610f0a81610c5f565b840191505092915050565b610f1e81610d9b565b82525050565b610f2d81610dd4565b82525050565b7f4e487b7100000000000000000000000000000000000000000000000000000000600052602160045260246000fd5b60038110610f7357610f72610f33565b5b50565b6000819050610f8482610f62565b919050565b6000610f9482610f76565b9050919050565b610fa481610f89565b82525050565b600060a0820190508181036000830152610fc48188610edc565b9050610fd36020830187610f15565b610fe06040830186610f24565b610fed6060830185610f24565b610ffa6080830184610f9b565b9695505050505050565b6000806000806080858703121561101e5761101d610bc0565b5b600085013567ffffffffffffffff81111561103c5761103b610bc5565b5b61104887828801610d6d565b945050602085013567ffffffffffffffff81111561106957611068610bc5565b5b61107587828801610d6d565b935050604061108687828801610dbf565b925050606061109787828801610df5565b91505092959194509250565b6000602082840312156110b9576110b8610bc0565b5b60006110c784828501610dbf565b91505092915050565b7f43616e646964617465206e6f7420726567697374657265640000000000000000600082015250565b6000611106601883610e98565b9150611111826110d0565b602082019050919050565b60006020820190508181036000830152611135816110f9565b9050919050565b7f43616e646964617465206973206e6f7420656c696769626c6500000000000000600082015250565b6000611172601983610e98565b915061117d8261113c565b602082019050919050565b600060208201905081810360008301526111a181611165565b9050919050565b7f4f6e6c792061646d696e6973747261746f72732068617665207468652061636360008201527f65737320746f207468697320616374696f6e0000000000000000000000000000602082015250565b6000611204603283610e98565b915061120f826111a8565b604082019050919050565b60006020820190508181036000830152611233816111f7565b9050919050565b7f4569746865722074686520766f746572206973206e6f7420726567697374657260008201527f6564206f7220616c726561647920617070726f76656400000000000000000000602082015250565b6000611296603683610e98565b91506112a18261123a565b604082019050919050565b600060208201905081810360008301526112c581611289565b9050919050565b7f4e6f7420616e20656c696769626c6520766f7465720000000000000000000000600082015250565b6000611302601583610e98565b915061130d826112cc565b602082019050919050565b60006020820190508181036000830152611331816112f5565b9050919050565b7f4e487b7100000000000000000000000000000000000000000000000000000000600052602260045260246000fd5b6000600282049050600182168061137f57607f821691505b60208210810361139257611391611338565b5b50919050565b7f416d6f756e742073686f756c642062652065786163746c7920657175616c207460008201527f6f20312045544845520000000000000000000000000000000000000000000000602082015250565b60006113f4602983610e98565b91506113ff82611398565b604082019050919050565b60006020820190508181036000830152611423816113e7565b9050919050565b7f45697468657220796f75206e6f742072656769737465726564206f7220616c7260008201527f6561647920766f74656400000000000000000000000000000000000000000000602082015250565b6000611486602a83610e98565b91506114918261142a565b604082019050919050565b600060208201905081810360008301526114b581611479565b9050919050565b7f4e487b7100000000000000000000000000000000000000000000000000000000600052601160045260246000fd5b60006114f682610dd4565b91507fffffffffffffffffffffffffffffffffffffffffffffffffffffffffffffffff8203611528576115276114bc565b5b60018201905091905056fea2646970667358221220f15b1d0caa40fddea2860a078f57a26743329dcedfd0f70eb941c7a932bfebdc64736f6c634300080d0033a26469706673582212207e9a45dca02960562ec65b30f14d933f876beba2cb59d9a304c73b2932a41bef64736f6c634300080d0033","opcodes":"PUSH1 0x80 PUSH1 0x40 MSTORE CALLVALUE DUP1 ISZERO PUSH2 0x10 JUMPI PUSH1 0x0 DUP1 REVERT JUMPDEST POP PUSH2 0x2442 DUP1 PUSH2 0x20 PUSH1 0x0 CODECOPY PUSH1 0x0 RETURN INVALID PUSH1 0x80 PUSH1 0x40 MSTORE CALLVALUE DUP1 ISZERO PUSH3 0x11 JUMPI PUSH1 0x0 DUP1 REVERT JUMPDEST POP PUSH1 0x4 CALLDATASIZE LT PUSH3 0x46 JUMPI PUSH1 0x0 CALLDATALOAD PUSH1 0xE0 SHR DUP1 PUSH4 0x3101B0A8 EQ PUSH3 0x4B JUMPI DUP1 PUSH4 0xCA306594 EQ PUSH3 0x6B JUMPI DUP1 PUSH4 0xF18B4F8E EQ PUSH3 0x8D JUMPI JUMPDEST PUSH1 0x0 DUP1 REVERT JUMPDEST PUSH3 0x69 PUSH1 0x4 DUP1 CALLDATASIZE SUB DUP2 ADD SWAP1 PUSH3 0x63 SWAP2 SWAP1 PUSH3 0x467 JUMP JUMPDEST PUSH3 0xC3 JUMP JUMPDEST STOP JUMPDEST PUSH3 0x75 PUSH3 0x170 JUMP JUMPDEST PUSH1 0x40 MLOAD PUSH3 0x84 SWAP2 SWAP1 PUSH3 0x620 JUMP JUMPDEST PUSH1 0x40 MLOAD DUP1 SWAP2 SUB SWAP1 RETURN JUMPDEST PUSH3 0xAB PUSH1 0x4 DUP1 CALLDATASIZE SUB DUP2 ADD SWAP1 PUSH3 0xA5 SWAP2 SWAP1 PUSH3 0x67F JUMP JUMPDEST PUSH3 0x200 JUMP JUMPDEST PUSH1 0x40 MLOAD PUSH3 0xBA SWAP2 SWAP1 PUSH3 0x6C2 JUMP JUMPDEST PUSH1 0x40 MLOAD DUP1 SWAP2 SUB SWAP1 RETURN JUMPDEST PUSH1 0x0 DUP5 DUP5 DUP5 DUP5 PUSH1 0x40 MLOAD PUSH3 0xD7 SWAP1 PUSH3 0x240 JUMP JUMPDEST PUSH3 0xE6 SWAP5 SWAP4 SWAP3 SWAP2 SWAP1 PUSH3 0x794 JUMP JUMPDEST PUSH1 0x40 MLOAD DUP1 SWAP2 SUB SWAP1 PUSH1 0x0 CREATE DUP1 ISZERO DUP1 ISZERO PUSH3 0x103 JUMPI RETURNDATASIZE PUSH1 0x0 DUP1 RETURNDATACOPY RETURNDATASIZE PUSH1 0x0 REVERT JUMPDEST POP SWAP1 POP PUSH1 0x0 DUP2 SWAP1 DUP1 PUSH1 0x1 DUP2 SLOAD ADD DUP1 DUP3 SSTORE DUP1 SWAP2 POP POP PUSH1 0x1 SWAP1 SUB SWAP1 PUSH1 0x0 MSTORE PUSH1 0x20 PUSH1 0x0 KECCAK256 ADD PUSH1 0x0 SWAP1 SWAP2 SWAP1 SWAP2 SWAP1 SWAP2 PUSH2 0x100 EXP DUP2 SLOAD DUP2 PUSH20 0xFFFFFFFFFFFFFFFFFFFFFFFFFFFFFFFFFFFFFFFF MUL NOT AND SWAP1 DUP4 PUSH20 0xFFFFFFFFFFFFFFFFFFFFFFFFFFFFFFFFFFFFFFFF AND MUL OR SWAP1 SSTORE POP POP POP POP POP POP JUMP JUMPDEST PUSH1 0x60 PUSH1 0x0 DUP1 SLOAD DUP1 PUSH1 0x20 MUL PUSH1 0x20 ADD PUSH1 0x40 MLOAD SWAP1 DUP2 ADD PUSH1 0x40 MSTORE DUP1 SWAP3 SWAP2 SWAP1 DUP2 DUP2 MSTORE PUSH1 0x20 ADD DUP3 DUP1 SLOAD DUP1 ISZERO PUSH3 0x1F6 JUMPI PUSH1 0x20 MUL DUP3 ADD SWAP2 SWAP1 PUSH1 0x0 MSTORE PUSH1 0x20 PUSH1 0x0 KECCAK256 SWAP1 JUMPDEST DUP2 PUSH1 0x0 SWAP1 SLOAD SWAP1 PUSH2 0x100 EXP SWAP1 DIV PUSH20 0xFFFFFFFFFFFFFFFFFFFFFFFFFFFFFFFFFFFFFFFF AND PUSH20 0xFFFFFFFFFFFFFFFFFFFFFFFFFFFFFFFFFFFFFFFF AND DUP2 MSTORE PUSH1 0x20 ADD SWAP1 PUSH1 0x1 ADD SWAP1 DUP1 DUP4 GT PUSH3 0x1AB JUMPI JUMPDEST POP POP POP POP POP SWAP1 POP SWAP1 JUMP JUMPDEST PUSH1 0x0 DUP2 DUP2 SLOAD DUP2 LT PUSH3 0x211 JUMPI PUSH1 0x0 DUP1 REVERT JUMPDEST SWAP1 PUSH1 0x0 MSTORE PUSH1 0x20 PUSH1 0x0 KECCAK256 ADD PUSH1 0x0 SWAP2 POP SLOAD SWAP1 PUSH2 0x100 EXP SWAP1 DIV PUSH20 0xFFFFFFFFFFFFFFFFFFFFFFFFFFFFFFFFFFFFFFFF AND DUP2 JUMP JUMPDEST PUSH2 0x1C24 DUP1 PUSH3 0x7E9 DUP4 CODECOPY ADD SWAP1 JUMP JUMPDEST PUSH1 0x0 PUSH1 0x40 MLOAD SWAP1 POP SWAP1 JUMP JUMPDEST PUSH1 0x0 DUP1 REVERT JUMPDEST PUSH1 0x0 DUP1 REVERT JUMPDEST PUSH1 0x0 DUP1 REVERT JUMPDEST PUSH1 0x0 DUP1 REVERT JUMPDEST PUSH1 0x0 PUSH1 0x1F NOT PUSH1 0x1F DUP4 ADD AND SWAP1 POP SWAP2 SWAP1 POP JUMP JUMPDEST PUSH32 0x4E487B7100000000000000000000000000000000000000000000000000000000 PUSH1 0x0 MSTORE PUSH1 0x41 PUSH1 0x4 MSTORE PUSH1 0x24 PUSH1 0x0 REVERT JUMPDEST PUSH3 0x2B7 DUP3 PUSH3 0x26C JUMP JUMPDEST DUP2 ADD DUP2 DUP2 LT PUSH8 0xFFFFFFFFFFFFFFFF DUP3 GT OR ISZERO PUSH3 0x2D9 JUMPI PUSH3 0x2D8 PUSH3 0x27D JUMP JUMPDEST JUMPDEST DUP1 PUSH1 0x40 MSTORE POP POP POP JUMP JUMPDEST PUSH1 0x0 PUSH3 0x2EE PUSH3 0x24E JUMP JUMPDEST SWAP1 POP PUSH3 0x2FC DUP3 DUP3 PUSH3 0x2AC JUMP JUMPDEST SWAP2 SWAP1 POP JUMP JUMPDEST PUSH1 0x0 PUSH8 0xFFFFFFFFFFFFFFFF DUP3 GT ISZERO PUSH3 0x31F JUMPI PUSH3 0x31E PUSH3 0x27D JUMP JUMPDEST JUMPDEST PUSH3 0x32A DUP3 PUSH3 0x26C JUMP JUMPDEST SWAP1 POP PUSH1 0x20 DUP2 ADD SWAP1 POP SWAP2 SWAP1 POP JUMP JUMPDEST DUP3 DUP2 DUP4 CALLDATACOPY PUSH1 0x0 DUP4 DUP4 ADD MSTORE POP POP POP JUMP JUMPDEST PUSH1 0x0 PUSH3 0x35D PUSH3 0x357 DUP5 PUSH3 0x301 JUMP JUMPDEST PUSH3 0x2E2 JUMP JUMPDEST SWAP1 POP DUP3 DUP2 MSTORE PUSH1 0x20 DUP2 ADD DUP5 DUP5 DUP5 ADD GT ISZERO PUSH3 0x37C JUMPI PUSH3 0x37B PUSH3 0x267 JUMP JUMPDEST JUMPDEST PUSH3 0x389 DUP5 DUP3 DUP6 PUSH3 0x337 JUMP JUMPDEST POP SWAP4 SWAP3 POP POP POP JUMP JUMPDEST PUSH1 0x0 DUP3 PUSH1 0x1F DUP4 ADD SLT PUSH3 0x3A9 JUMPI PUSH3 0x3A8 PUSH3 0x262 JUMP JUMPDEST JUMPDEST DUP2 CALLDATALOAD PUSH3 0x3BB DUP5 DUP3 PUSH1 0x20 DUP7 ADD PUSH3 0x346 JUMP JUMPDEST SWAP2 POP POP SWAP3 SWAP2 POP POP JUMP JUMPDEST PUSH1 0x0 PUSH1 0xFF DUP3 AND SWAP1 POP SWAP2 SWAP1 POP JUMP JUMPDEST PUSH3 0x3DC DUP2 PUSH3 0x3C4 JUMP JUMPDEST DUP2 EQ PUSH3 0x3E8 JUMPI PUSH1 0x0 DUP1 REVERT JUMPDEST POP JUMP JUMPDEST PUSH1 0x0 DUP2 CALLDATALOAD SWAP1 POP PUSH3 0x3FC DUP2 PUSH3 0x3D1 JUMP JUMPDEST SWAP3 SWAP2 POP POP JUMP JUMPDEST PUSH1 0x0 PUSH20 0xFFFFFFFFFFFFFFFFFFFFFFFFFFFFFFFFFFFFFFFF DUP3 AND SWAP1 POP SWAP2 SWAP1 POP JUMP JUMPDEST PUSH1 0x0 PUSH3 0x42F DUP3 PUSH3 0x402 JUMP JUMPDEST SWAP1 POP SWAP2 SWAP1 POP JUMP JUMPDEST PUSH3 0x441 DUP2 PUSH3 0x422 JUMP JUMPDEST DUP2 EQ PUSH3 0x44D JUMPI PUSH1 0x0 DUP1 REVERT JUMPDEST POP JUMP JUMPDEST PUSH1 0x0 DUP2 CALLDATALOAD SWAP1 POP PUSH3 0x461 DUP2 PUSH3 0x436 JUMP JUMPDEST SWAP3 SWAP2 POP POP JUMP JUMPDEST PUSH1 0x0 DUP1 PUSH1 0x0 DUP1 PUSH1 0x80 DUP6 DUP8 SUB SLT ISZERO PUSH3 0x484 JUMPI PUSH3 0x483 PUSH3 0x258 JUMP JUMPDEST JUMPDEST PUSH1 0x0 DUP6 ADD CALLDATALOAD PUSH8 0xFFFFFFFFFFFFFFFF DUP2 GT ISZERO PUSH3 0x4A5 JUMPI PUSH3 0x4A4 PUSH3 0x25D JUMP JUMPDEST JUMPDEST PUSH3 0x4B3 DUP8 DUP3 DUP9 ADD PUSH3 0x391 JUMP JUMPDEST SWAP5 POP POP PUSH1 0x20 PUSH3 0x4C6 DUP8 DUP3 DUP9 ADD PUSH3 0x3EB JUMP JUMPDEST SWAP4 POP POP PUSH1 0x40 PUSH3 0x4D9 DUP8 DUP3 DUP9 ADD PUSH3 0x3EB JUMP JUMPDEST SWAP3 POP POP PUSH1 0x60 PUSH3 0x4EC DUP8 DUP3 DUP9 ADD PUSH3 0x450 JUMP JUMPDEST SWAP2 POP POP SWAP3 SWAP6 SWAP2 SWAP5 POP SWAP3 POP JUMP JUMPDEST PUSH1 0x0 DUP2 MLOAD SWAP1 POP SWAP2 SWAP1 POP JUMP JUMPDEST PUSH1 0x0 DUP3 DUP3 MSTORE PUSH1 0x20 DUP3 ADD SWAP1 POP SWAP3 SWAP2 POP POP JUMP JUMPDEST PUSH1 0x0 DUP2 SWAP1 POP PUSH1 0x20 DUP3 ADD SWAP1 POP SWAP2 SWAP1 POP JUMP JUMPDEST PUSH1 0x0 DUP2 SWAP1 POP SWAP2 SWAP1 POP JUMP JUMPDEST PUSH1 0x0 PUSH3 0x54F PUSH3 0x549 PUSH3 0x543 DUP5 PUSH3 0x402 JUMP JUMPDEST PUSH3 0x524 JUMP JUMPDEST PUSH3 0x402 JUMP JUMPDEST SWAP1 POP SWAP2 SWAP1 POP JUMP JUMPDEST PUSH1 0x0 PUSH3 0x563 DUP3 PUSH3 0x52E JUMP JUMPDEST SWAP1 POP SWAP2 SWAP1 POP JUMP JUMPDEST PUSH1 0x0 PUSH3 0x577 DUP3 PUSH3 0x556 JUMP JUMPDEST SWAP1 POP SWAP2 SWAP1 POP JUMP JUMPDEST PUSH3 0x589 DUP2 PUSH3 0x56A JUMP JUMPDEST DUP3 MSTORE POP POP JUMP JUMPDEST PUSH1 0x0 PUSH3 0x59D DUP4 DUP4 PUSH3 0x57E JUMP JUMPDEST PUSH1 0x20 DUP4 ADD SWAP1 POP SWAP3 SWAP2 POP POP JUMP JUMPDEST PUSH1 0x0 PUSH1 0x20 DUP3 ADD SWAP1 POP SWAP2 SWAP1 POP JUMP JUMPDEST PUSH1 0x0 PUSH3 0x5C3 DUP3 PUSH3 0x4F8 JUMP JUMPDEST PUSH3 0x5CF DUP2 DUP6 PUSH3 0x503 JUMP JUMPDEST SWAP4 POP PUSH3 0x5DC DUP4 PUSH3 0x514 JUMP JUMPDEST DUP1 PUSH1 0x0 JUMPDEST DUP4 DUP2 LT ISZERO PUSH3 0x613 JUMPI DUP2 MLOAD PUSH3 0x5F7 DUP9 DUP3 PUSH3 0x58F JUMP JUMPDEST SWAP8 POP PUSH3 0x604 DUP4 PUSH3 0x5A9 JUMP JUMPDEST SWAP3 POP POP PUSH1 0x1 DUP2 ADD SWAP1 POP PUSH3 0x5E0 JUMP JUMPDEST POP DUP6 SWAP4 POP POP POP POP SWAP3 SWAP2 POP POP JUMP JUMPDEST PUSH1 0x0 PUSH1 0x20 DUP3 ADD SWAP1 POP DUP2 DUP2 SUB PUSH1 0x0 DUP4 ADD MSTORE PUSH3 0x63C DUP2 DUP5 PUSH3 0x5B6 JUMP JUMPDEST SWAP1 POP SWAP3 SWAP2 POP POP JUMP JUMPDEST PUSH1 0x0 DUP2 SWAP1 POP SWAP2 SWAP1 POP JUMP JUMPDEST PUSH3 0x659 DUP2 PUSH3 0x644 JUMP JUMPDEST DUP2 EQ PUSH3 0x665 JUMPI PUSH1 0x0 DUP1 REVERT JUMPDEST POP JUMP JUMPDEST PUSH1 0x0 DUP2 CALLDATALOAD SWAP1 POP PUSH3 0x679 DUP2 PUSH3 0x64E JUMP JUMPDEST SWAP3 SWAP2 POP POP JUMP JUMPDEST PUSH1 0x0 PUSH1 0x20 DUP3 DUP5 SUB SLT ISZERO PUSH3 0x698 JUMPI PUSH3 0x697 PUSH3 0x258 JUMP JUMPDEST JUMPDEST PUSH1 0x0 PUSH3 0x6A8 DUP5 DUP3 DUP6 ADD PUSH3 0x668 JUMP JUMPDEST SWAP2 POP POP SWAP3 SWAP2 POP POP JUMP JUMPDEST PUSH3 0x6BC DUP2 PUSH3 0x56A JUMP JUMPDEST DUP3 MSTORE POP POP JUMP JUMPDEST PUSH1 0x0 PUSH1 0x20 DUP3 ADD SWAP1 POP PUSH3 0x6D9 PUSH1 0x0 DUP4 ADD DUP5 PUSH3 0x6B1 JUMP JUMPDEST SWAP3 SWAP2 POP POP JUMP JUMPDEST PUSH1 0x0 DUP2 MLOAD SWAP1 POP SWAP2 SWAP1 POP JUMP JUMPDEST PUSH1 0x0 DUP3 DUP3 MSTORE PUSH1 0x20 DUP3 ADD SWAP1 POP SWAP3 SWAP2 POP POP JUMP JUMPDEST PUSH1 0x0 JUMPDEST DUP4 DUP2 LT ISZERO PUSH3 0x71B JUMPI DUP1 DUP3 ADD MLOAD DUP2 DUP5 ADD MSTORE PUSH1 0x20 DUP2 ADD SWAP1 POP PUSH3 0x6FE JUMP JUMPDEST DUP4 DUP2 GT ISZERO PUSH3 0x72B JUMPI PUSH1 0x0 DUP5 DUP5 ADD MSTORE JUMPDEST POP POP POP POP JUMP JUMPDEST PUSH1 0x0 PUSH3 0x73E DUP3 PUSH3 0x6DF JUMP JUMPDEST PUSH3 0x74A DUP2 DUP6 PUSH3 0x6EA JUMP JUMPDEST SWAP4 POP PUSH3 0x75C DUP2 DUP6 PUSH1 0x20 DUP7 ADD PUSH3 0x6FB JUMP JUMPDEST PUSH3 0x767 DUP2 PUSH3 0x26C JUMP JUMPDEST DUP5 ADD SWAP2 POP POP SWAP3 SWAP2 POP POP JUMP JUMPDEST PUSH3 0x77D DUP2 PUSH3 0x3C4 JUMP JUMPDEST DUP3 MSTORE POP POP JUMP JUMPDEST PUSH3 0x78E DUP2 PUSH3 0x422 JUMP JUMPDEST DUP3 MSTORE POP POP JUMP JUMPDEST PUSH1 0x0 PUSH1 0x80 DUP3 ADD SWAP1 POP DUP2 DUP2 SUB PUSH1 0x0 DUP4 ADD MSTORE PUSH3 0x7B0 DUP2 DUP8 PUSH3 0x731 JUMP JUMPDEST SWAP1 POP PUSH3 0x7C1 PUSH1 0x20 DUP4 ADD DUP7 PUSH3 0x772 JUMP JUMPDEST PUSH3 0x7D0 PUSH1 0x40 DUP4 ADD DUP6 PUSH3 0x772 JUMP JUMPDEST PUSH3 0x7DF PUSH1 0x60 DUP4 ADD DUP5 PUSH3 0x783 JUMP JUMPDEST SWAP6 SWAP5 POP POP POP POP POP JUMP INVALID PUSH1 0x80 PUSH1 0x40 MSTORE CALLVALUE DUP1 ISZERO PUSH3 0x11 JUMPI PUSH1 0x0 DUP1 REVERT JUMPDEST POP PUSH1 0x40 MLOAD PUSH3 0x1C24 CODESIZE SUB DUP1 PUSH3 0x1C24 DUP4 CODECOPY DUP2 DUP2 ADD PUSH1 0x40 MSTORE DUP2 ADD SWAP1 PUSH3 0x37 SWAP2 SWAP1 PUSH3 0x504 JUMP JUMPDEST DUP1 PUSH1 0x0 DUP1 PUSH2 0x100 EXP DUP2 SLOAD DUP2 PUSH20 0xFFFFFFFFFFFFFFFFFFFFFFFFFFFFFFFFFFFFFFFF MUL NOT AND SWAP1 DUP4 PUSH20 0xFFFFFFFFFFFFFFFFFFFFFFFFFFFFFFFFFFFFFFFF AND MUL OR SWAP1 SSTORE POP PUSH1 0x2 DUP4 PUSH1 0xFF AND GT ISZERO PUSH3 0xC1 JUMPI PUSH1 0x40 MLOAD PUSH32 0x8C379A000000000000000000000000000000000000000000000000000000000 DUP2 MSTORE PUSH1 0x4 ADD PUSH3 0xB8 SWAP1 PUSH3 0x5F6 JUMP JUMPDEST PUSH1 0x40 MLOAD DUP1 SWAP2 SUB SWAP1 REVERT JUMPDEST PUSH1 0x1 DUP3 PUSH1 0xFF AND GT ISZERO PUSH3 0x10B JUMPI PUSH1 0x40 MLOAD PUSH32 0x8C379A000000000000000000000000000000000000000000000000000000000 DUP2 MSTORE PUSH1 0x4 ADD PUSH3 0x102 SWAP1 PUSH3 0x5F6 JUMP JUMPDEST PUSH1 0x40 MLOAD DUP1 SWAP2 SUB SWAP1 REVERT JUMPDEST PUSH1 0x40 MLOAD DUP1 PUSH1 0x60 ADD PUSH1 0x40 MSTORE DUP1 DUP6 DUP2 MSTORE PUSH1 0x20 ADD DUP5 PUSH1 0xFF AND PUSH1 0x2 DUP2 GT ISZERO PUSH3 0x135 JUMPI PUSH3 0x134 PUSH3 0x618 JUMP JUMPDEST JUMPDEST PUSH1 0x2 DUP2 GT ISZERO PUSH3 0x14A JUMPI PUSH3 0x149 PUSH3 0x618 JUMP JUMPDEST JUMPDEST DUP2 MSTORE PUSH1 0x20 ADD DUP4 PUSH1 0xFF AND PUSH1 0x1 DUP2 GT ISZERO PUSH3 0x168 JUMPI PUSH3 0x167 PUSH3 0x618 JUMP JUMPDEST JUMPDEST PUSH1 0x1 DUP2 GT ISZERO PUSH3 0x17D JUMPI PUSH3 0x17C PUSH3 0x618 JUMP JUMPDEST JUMPDEST DUP2 MSTORE POP PUSH1 0x1 PUSH1 0x0 DUP3 ADD MLOAD DUP2 PUSH1 0x0 ADD SWAP1 DUP1 MLOAD SWAP1 PUSH1 0x20 ADD SWAP1 PUSH3 0x1A0 SWAP3 SWAP2 SWAP1 PUSH3 0x214 JUMP JUMPDEST POP PUSH1 0x20 DUP3 ADD MLOAD DUP2 PUSH1 0x1 ADD PUSH1 0x0 PUSH2 0x100 EXP DUP2 SLOAD DUP2 PUSH1 0xFF MUL NOT AND SWAP1 DUP4 PUSH1 0x2 DUP2 GT ISZERO PUSH3 0x1CF JUMPI PUSH3 0x1CE PUSH3 0x618 JUMP JUMPDEST JUMPDEST MUL OR SWAP1 SSTORE POP PUSH1 0x40 DUP3 ADD MLOAD DUP2 PUSH1 0x1 ADD PUSH1 0x1 PUSH2 0x100 EXP DUP2 SLOAD DUP2 PUSH1 0xFF MUL NOT AND SWAP1 DUP4 PUSH1 0x1 DUP2 GT ISZERO PUSH3 0x202 JUMPI PUSH3 0x201 PUSH3 0x618 JUMP JUMPDEST JUMPDEST MUL OR SWAP1 SSTORE POP SWAP1 POP POP POP POP POP POP PUSH3 0x6AB JUMP JUMPDEST DUP3 DUP1 SLOAD PUSH3 0x222 SWAP1 PUSH3 0x676 JUMP JUMPDEST SWAP1 PUSH1 0x0 MSTORE PUSH1 0x20 PUSH1 0x0 KECCAK256 SWAP1 PUSH1 0x1F ADD PUSH1 0x20 SWAP1 DIV DUP2 ADD SWAP3 DUP3 PUSH3 0x246 JUMPI PUSH1 0x0 DUP6 SSTORE PUSH3 0x292 JUMP JUMPDEST DUP3 PUSH1 0x1F LT PUSH3 0x261 JUMPI DUP1 MLOAD PUSH1 0xFF NOT AND DUP4 DUP1 ADD OR DUP6 SSTORE PUSH3 0x292 JUMP JUMPDEST DUP3 DUP1 ADD PUSH1 0x1 ADD DUP6 SSTORE DUP3 ISZERO PUSH3 0x292 JUMPI SWAP2 DUP3 ADD JUMPDEST DUP3 DUP2 GT ISZERO PUSH3 0x291 JUMPI DUP3 MLOAD DUP3 SSTORE SWAP2 PUSH1 0x20 ADD SWAP2 SWAP1 PUSH1 0x1 ADD SWAP1 PUSH3 0x274 JUMP JUMPDEST JUMPDEST POP SWAP1 POP PUSH3 0x2A1 SWAP2 SWAP1 PUSH3 0x2A5 JUMP JUMPDEST POP SWAP1 JUMP JUMPDEST JUMPDEST DUP1 DUP3 GT ISZERO PUSH3 0x2C0 JUMPI PUSH1 0x0 DUP2 PUSH1 0x0 SWAP1 SSTORE POP PUSH1 0x1 ADD PUSH3 0x2A6 JUMP JUMPDEST POP SWAP1 JUMP JUMPDEST PUSH1 0x0 PUSH1 0x40 MLOAD SWAP1 POP SWAP1 JUMP JUMPDEST PUSH1 0x0 DUP1 REVERT JUMPDEST PUSH1 0x0 DUP1 REVERT JUMPDEST PUSH1 0x0 DUP1 REVERT JUMPDEST PUSH1 0x0 DUP1 REVERT JUMPDEST PUSH1 0x0 PUSH1 0x1F NOT PUSH1 0x1F DUP4 ADD AND SWAP1 POP SWAP2 SWAP1 POP JUMP JUMPDEST PUSH32 0x4E487B7100000000000000000000000000000000000000000000000000000000 PUSH1 0x0 MSTORE PUSH1 0x41 PUSH1 0x4 MSTORE PUSH1 0x24 PUSH1 0x0 REVERT JUMPDEST PUSH3 0x32D DUP3 PUSH3 0x2E2 JUMP JUMPDEST DUP2 ADD DUP2 DUP2 LT PUSH8 0xFFFFFFFFFFFFFFFF DUP3 GT OR ISZERO PUSH3 0x34F JUMPI PUSH3 0x34E PUSH3 0x2F3 JUMP JUMPDEST JUMPDEST DUP1 PUSH1 0x40 MSTORE POP POP POP JUMP JUMPDEST PUSH1 0x0 PUSH3 0x364 PUSH3 0x2C4 JUMP JUMPDEST SWAP1 POP PUSH3 0x372 DUP3 DUP3 PUSH3 0x322 JUMP JUMPDEST SWAP2 SWAP1 POP JUMP JUMPDEST PUSH1 0x0 PUSH8 0xFFFFFFFFFFFFFFFF DUP3 GT ISZERO PUSH3 0x395 JUMPI PUSH3 0x394 PUSH3 0x2F3 JUMP JUMPDEST JUMPDEST PUSH3 0x3A0 DUP3 PUSH3 0x2E2 JUMP JUMPDEST SWAP1 POP PUSH1 0x20 DUP2 ADD SWAP1 POP SWAP2 SWAP1 POP JUMP JUMPDEST PUSH1 0x0 JUMPDEST DUP4 DUP2 LT ISZERO PUSH3 0x3CD JUMPI DUP1 DUP3 ADD MLOAD DUP2 DUP5 ADD MSTORE PUSH1 0x20 DUP2 ADD SWAP1 POP PUSH3 0x3B0 JUMP JUMPDEST DUP4 DUP2 GT ISZERO PUSH3 0x3DD JUMPI PUSH1 0x0 DUP5 DUP5 ADD MSTORE JUMPDEST POP POP POP POP JUMP JUMPDEST PUSH1 0x0 PUSH3 0x3FA PUSH3 0x3F4 DUP5 PUSH3 0x377 JUMP JUMPDEST PUSH3 0x358 JUMP JUMPDEST SWAP1 POP DUP3 DUP2 MSTORE PUSH1 0x20 DUP2 ADD DUP5 DUP5 DUP5 ADD GT ISZERO PUSH3 0x419 JUMPI PUSH3 0x418 PUSH3 0x2DD JUMP JUMPDEST JUMPDEST PUSH3 0x426 DUP5 DUP3 DUP6 PUSH3 0x3AD JUMP JUMPDEST POP SWAP4 SWAP3 POP POP POP JUMP JUMPDEST PUSH1 0x0 DUP3 PUSH1 0x1F DUP4 ADD SLT PUSH3 0x446 JUMPI PUSH3 0x445 PUSH3 0x2D8 JUMP JUMPDEST JUMPDEST DUP2 MLOAD PUSH3 0x458 DUP5 DUP3 PUSH1 0x20 DUP7 ADD PUSH3 0x3E3 JUMP JUMPDEST SWAP2 POP POP SWAP3 SWAP2 POP POP JUMP JUMPDEST PUSH1 0x0 PUSH1 0xFF DUP3 AND SWAP1 POP SWAP2 SWAP1 POP JUMP JUMPDEST PUSH3 0x479 DUP2 PUSH3 0x461 JUMP JUMPDEST DUP2 EQ PUSH3 0x485 JUMPI PUSH1 0x0 DUP1 REVERT JUMPDEST POP JUMP JUMPDEST PUSH1 0x0 DUP2 MLOAD SWAP1 POP PUSH3 0x499 DUP2 PUSH3 0x46E JUMP JUMPDEST SWAP3 SWAP2 POP POP JUMP JUMPDEST PUSH1 0x0 PUSH20 0xFFFFFFFFFFFFFFFFFFFFFFFFFFFFFFFFFFFFFFFF DUP3 AND SWAP1 POP SWAP2 SWAP1 POP JUMP JUMPDEST PUSH1 0x0 PUSH3 0x4CC DUP3 PUSH3 0x49F JUMP JUMPDEST SWAP1 POP SWAP2 SWAP1 POP JUMP JUMPDEST PUSH3 0x4DE DUP2 PUSH3 0x4BF JUMP JUMPDEST DUP2 EQ PUSH3 0x4EA JUMPI PUSH1 0x0 DUP1 REVERT JUMPDEST POP JUMP JUMPDEST PUSH1 0x0 DUP2 MLOAD SWAP1 POP PUSH3 0x4FE DUP2 PUSH3 0x4D3 JUMP JUMPDEST SWAP3 SWAP2 POP POP JUMP JUMPDEST PUSH1 0x0 DUP1 PUSH1 0x0 DUP1 PUSH1 0x80 DUP6 DUP8 SUB SLT ISZERO PUSH3 0x521 JUMPI PUSH3 0x520 PUSH3 0x2CE JUMP JUMPDEST JUMPDEST PUSH1 0x0 DUP6 ADD MLOAD PUSH8 0xFFFFFFFFFFFFFFFF DUP2 GT ISZERO PUSH3 0x542 JUMPI PUSH3 0x541 PUSH3 0x2D3 JUMP JUMPDEST JUMPDEST PUSH3 0x550 DUP8 DUP3 DUP9 ADD PUSH3 0x42E JUMP JUMPDEST SWAP5 POP POP PUSH1 0x20 PUSH3 0x563 DUP8 DUP3 DUP9 ADD PUSH3 0x488 JUMP JUMPDEST SWAP4 POP POP PUSH1 0x40 PUSH3 0x576 DUP8 DUP3 DUP9 ADD PUSH3 0x488 JUMP JUMPDEST SWAP3 POP POP PUSH1 0x60 PUSH3 0x589 DUP8 DUP3 DUP9 ADD PUSH3 0x4ED JUMP JUMPDEST SWAP2 POP POP SWAP3 SWAP6 SWAP2 SWAP5 POP SWAP3 POP JUMP JUMPDEST PUSH1 0x0 DUP3 DUP3 MSTORE PUSH1 0x20 DUP3 ADD SWAP1 POP SWAP3 SWAP2 POP POP JUMP JUMPDEST PUSH32 0x4F7574206F6620626F756E640000000000000000000000000000000000000000 PUSH1 0x0 DUP3 ADD MSTORE POP JUMP JUMPDEST PUSH1 0x0 PUSH3 0x5DE PUSH1 0xC DUP4 PUSH3 0x595 JUMP JUMPDEST SWAP2 POP PUSH3 0x5EB DUP3 PUSH3 0x5A6 JUMP JUMPDEST PUSH1 0x20 DUP3 ADD SWAP1 POP SWAP2 SWAP1 POP JUMP JUMPDEST PUSH1 0x0 PUSH1 0x20 DUP3 ADD SWAP1 POP DUP2 DUP2 SUB PUSH1 0x0 DUP4 ADD MSTORE PUSH3 0x611 DUP2 PUSH3 0x5CF JUMP JUMPDEST SWAP1 POP SWAP2 SWAP1 POP JUMP JUMPDEST PUSH32 0x4E487B7100000000000000000000000000000000000000000000000000000000 PUSH1 0x0 MSTORE PUSH1 0x21 PUSH1 0x4 MSTORE PUSH1 0x24 PUSH1 0x0 REVERT JUMPDEST PUSH32 0x4E487B7100000000000000000000000000000000000000000000000000000000 PUSH1 0x0 MSTORE PUSH1 0x22 PUSH1 0x4 MSTORE PUSH1 0x24 PUSH1 0x0 REVERT JUMPDEST PUSH1 0x0 PUSH1 0x2 DUP3 DIV SWAP1 POP PUSH1 0x1 DUP3 AND DUP1 PUSH3 0x68F JUMPI PUSH1 0x7F DUP3 AND SWAP2 POP JUMPDEST PUSH1 0x20 DUP3 LT DUP2 SUB PUSH3 0x6A5 JUMPI PUSH3 0x6A4 PUSH3 0x647 JUMP JUMPDEST JUMPDEST POP SWAP2 SWAP1 POP JUMP JUMPDEST PUSH2 0x1569 DUP1 PUSH3 0x6BB PUSH1 0x0 CODECOPY PUSH1 0x0 RETURN INVALID PUSH1 0x80 PUSH1 0x40 MSTORE PUSH1 0x4 CALLDATASIZE LT PUSH2 0x55 JUMPI PUSH1 0x0 CALLDATALOAD PUSH1 0xE0 SHR DUP1 PUSH4 0x7BE7E91 EQ PUSH2 0x5A JUMPI DUP1 PUSH4 0x119D4DDB EQ PUSH2 0x83 JUMPI DUP1 PUSH4 0x18ABF078 EQ PUSH2 0xAC JUMPI DUP1 PUSH4 0x81F539FF EQ PUSH2 0xD5 JUMPI DUP1 PUSH4 0x92434D7C EQ PUSH2 0x104 JUMPI DUP1 PUSH4 0xB3F98ADC EQ PUSH2 0x120 JUMPI JUMPDEST PUSH1 0x0 DUP1 REVERT JUMPDEST CALLVALUE DUP1 ISZERO PUSH2 0x66 JUMPI PUSH1 0x0 DUP1 REVERT JUMPDEST POP PUSH2 0x81 PUSH1 0x4 DUP1 CALLDATASIZE SUB DUP2 ADD SWAP1 PUSH2 0x7C SWAP2 SWAP1 PUSH2 0xC28 JUMP JUMPDEST PUSH2 0x149 JUMP JUMPDEST STOP JUMPDEST CALLVALUE DUP1 ISZERO PUSH2 0x8F JUMPI PUSH1 0x0 DUP1 REVERT JUMPDEST POP PUSH2 0xAA PUSH1 0x4 DUP1 CALLDATASIZE SUB DUP2 ADD SWAP1 PUSH2 0xA5 SWAP2 SWAP1 PUSH2 0xC28 JUMP JUMPDEST PUSH2 0x303 JUMP JUMPDEST STOP JUMPDEST CALLVALUE DUP1 ISZERO PUSH2 0xB8 JUMPI PUSH1 0x0 DUP1 REVERT JUMPDEST POP PUSH2 0xD3 PUSH1 0x4 DUP1 CALLDATASIZE SUB DUP2 ADD SWAP1 PUSH2 0xCE SWAP2 SWAP1 PUSH2 0xE0A JUMP JUMPDEST PUSH2 0x54B JUMP JUMPDEST STOP JUMPDEST CALLVALUE DUP1 ISZERO PUSH2 0xE1 JUMPI PUSH1 0x0 DUP1 REVERT JUMPDEST POP PUSH2 0xEA PUSH2 0x658 JUMP JUMPDEST PUSH1 0x40 MLOAD PUSH2 0xFB SWAP6 SWAP5 SWAP4 SWAP3 SWAP2 SWAP1 PUSH2 0xFAA JUMP JUMPDEST PUSH1 0x40 MLOAD DUP1 SWAP2 SUB SWAP1 RETURN JUMPDEST PUSH2 0x11E PUSH1 0x4 DUP1 CALLDATASIZE SUB DUP2 ADD SWAP1 PUSH2 0x119 SWAP2 SWAP1 PUSH2 0x1004 JUMP JUMPDEST PUSH2 0x7D7 JUMP JUMPDEST STOP JUMPDEST CALLVALUE DUP1 ISZERO PUSH2 0x12C JUMPI PUSH1 0x0 DUP1 REVERT JUMPDEST POP PUSH2 0x147 PUSH1 0x4 DUP1 CALLDATASIZE SUB DUP2 ADD SWAP1 PUSH2 0x142 SWAP2 SWAP1 PUSH2 0x10A3 JUMP JUMPDEST PUSH2 0x9A8 JUMP JUMPDEST STOP JUMPDEST PUSH1 0x0 PUSH1 0x2 DUP2 GT ISZERO PUSH2 0x15D JUMPI PUSH2 0x15C PUSH2 0xF33 JUMP JUMPDEST JUMPDEST PUSH1 0x5 PUSH1 0x0 DUP4 PUSH20 0xFFFFFFFFFFFFFFFFFFFFFFFFFFFFFFFFFFFFFFFF AND PUSH20 0xFFFFFFFFFFFFFFFFFFFFFFFFFFFFFFFFFFFFFFFF AND DUP2 MSTORE PUSH1 0x20 ADD SWAP1 DUP2 MSTORE PUSH1 0x20 ADD PUSH1 0x0 KECCAK256 PUSH1 0x4 ADD PUSH1 0x0 SWAP1 SLOAD SWAP1 PUSH2 0x100 EXP SWAP1 DIV PUSH1 0xFF AND PUSH1 0x2 DUP2 GT ISZERO PUSH2 0x1BF JUMPI PUSH2 0x1BE PUSH2 0xF33 JUMP JUMPDEST JUMPDEST EQ PUSH2 0x1FF JUMPI PUSH1 0x40 MLOAD PUSH32 0x8C379A000000000000000000000000000000000000000000000000000000000 DUP2 MSTORE PUSH1 0x4 ADD PUSH2 0x1F6 SWAP1 PUSH2 0x111C JUMP JUMPDEST PUSH1 0x40 MLOAD DUP1 SWAP2 SUB SWAP1 REVERT JUMPDEST PUSH1 0x1E PUSH1 0x5 PUSH1 0x0 DUP4 PUSH20 0xFFFFFFFFFFFFFFFFFFFFFFFFFFFFFFFFFFFFFFFF AND PUSH20 0xFFFFFFFFFFFFFFFFFFFFFFFFFFFFFFFFFFFFFFFF AND DUP2 MSTORE PUSH1 0x20 ADD SWAP1 DUP2 MSTORE PUSH1 0x20 ADD PUSH1 0x0 KECCAK256 PUSH1 0x2 ADD PUSH1 0x0 SWAP1 SLOAD SWAP1 PUSH2 0x100 EXP SWAP1 DIV PUSH1 0xFF AND PUSH1 0xFF AND LT ISZERO PUSH2 0x295 JUMPI PUSH1 0x40 MLOAD PUSH32 0x8C379A000000000000000000000000000000000000000000000000000000000 DUP2 MSTORE PUSH1 0x4 ADD PUSH2 0x28C SWAP1 PUSH2 0x1188 JUMP JUMPDEST PUSH1 0x40 MLOAD DUP1 SWAP2 SUB SWAP1 REVERT JUMPDEST PUSH1 0x1 PUSH1 0x5 PUSH1 0x0 DUP4 PUSH20 0xFFFFFFFFFFFFFFFFFFFFFFFFFFFFFFFFFFFFFFFF AND PUSH20 0xFFFFFFFFFFFFFFFFFFFFFFFFFFFFFFFFFFFFFFFF AND DUP2 MSTORE PUSH1 0x20 ADD SWAP1 DUP2 MSTORE PUSH1 0x20 ADD PUSH1 0x0 KECCAK256 PUSH1 0x4 ADD PUSH1 0x0 PUSH2 0x100 EXP DUP2 SLOAD DUP2 PUSH1 0xFF MUL NOT AND SWAP1 DUP4 PUSH1 0x2 DUP2 GT ISZERO PUSH2 0x2FB JUMPI PUSH2 0x2FA PUSH2 0xF33 JUMP JUMPDEST JUMPDEST MUL OR SWAP1 SSTORE POP POP JUMP JUMPDEST CALLER PUSH20 0xFFFFFFFFFFFFFFFFFFFFFFFFFFFFFFFFFFFFFFFF AND PUSH1 0x0 DUP1 SLOAD SWAP1 PUSH2 0x100 EXP SWAP1 DIV PUSH20 0xFFFFFFFFFFFFFFFFFFFFFFFFFFFFFFFFFFFFFFFF AND PUSH20 0xFFFFFFFFFFFFFFFFFFFFFFFFFFFFFFFFFFFFFFFF AND EQ PUSH2 0x391 JUMPI PUSH1 0x40 MLOAD PUSH32 0x8C379A000000000000000000000000000000000000000000000000000000000 DUP2 MSTORE PUSH1 0x4 ADD PUSH2 0x388 SWAP1 PUSH2 0x121A JUMP JUMPDEST PUSH1 0x40 MLOAD DUP1 SWAP2 SUB SWAP1 REVERT JUMPDEST PUSH1 0x0 PUSH1 0x2 DUP2 GT ISZERO PUSH2 0x3A5 JUMPI PUSH2 0x3A4 PUSH2 0xF33 JUMP JUMPDEST JUMPDEST PUSH1 0x3 PUSH1 0x0 DUP4 PUSH20 0xFFFFFFFFFFFFFFFFFFFFFFFFFFFFFFFFFFFFFFFF AND PUSH20 0xFFFFFFFFFFFFFFFFFFFFFFFFFFFFFFFFFFFFFFFF AND DUP2 MSTORE PUSH1 0x20 ADD SWAP1 DUP2 MSTORE PUSH1 0x20 ADD PUSH1 0x0 KECCAK256 PUSH1 0x4 ADD PUSH1 0x0 SWAP1 SLOAD SWAP1 PUSH2 0x100 EXP SWAP1 DIV PUSH1 0xFF AND PUSH1 0x2 DUP2 GT ISZERO PUSH2 0x407 JUMPI PUSH2 0x406 PUSH2 0xF33 JUMP JUMPDEST JUMPDEST EQ PUSH2 0x447 JUMPI PUSH1 0x40 MLOAD PUSH32 0x8C379A000000000000000000000000000000000000000000000000000000000 DUP2 MSTORE PUSH1 0x4 ADD PUSH2 0x43E SWAP1 PUSH2 0x12AC JUMP JUMPDEST PUSH1 0x40 MLOAD DUP1 SWAP2 SUB SWAP1 REVERT JUMPDEST PUSH1 0x12 PUSH1 0x3 PUSH1 0x0 DUP4 PUSH20 0xFFFFFFFFFFFFFFFFFFFFFFFFFFFFFFFFFFFFFFFF AND PUSH20 0xFFFFFFFFFFFFFFFFFFFFFFFFFFFFFFFFFFFFFFFF AND DUP2 MSTORE PUSH1 0x20 ADD SWAP1 DUP2 MSTORE PUSH1 0x20 ADD PUSH1 0x0 KECCAK256 PUSH1 0x1 ADD PUSH1 0x0 SWAP1 SLOAD SWAP1 PUSH2 0x100 EXP SWAP1 DIV PUSH1 0xFF AND PUSH1 0xFF AND LT ISZERO PUSH2 0x4DD JUMPI PUSH1 0x40 MLOAD PUSH32 0x8C379A000000000000000000000000000000000000000000000000000000000 DUP2 MSTORE PUSH1 0x4 ADD PUSH2 0x4D4 SWAP1 PUSH2 0x1318 JUMP JUMPDEST PUSH1 0x40 MLOAD DUP1 SWAP2 SUB SWAP1 REVERT JUMPDEST PUSH1 0x1 PUSH1 0x3 PUSH1 0x0 DUP4 PUSH20 0xFFFFFFFFFFFFFFFFFFFFFFFFFFFFFFFFFFFFFFFF AND PUSH20 0xFFFFFFFFFFFFFFFFFFFFFFFFFFFFFFFFFFFFFFFF AND DUP2 MSTORE PUSH1 0x20 ADD SWAP1 DUP2 MSTORE PUSH1 0x20 ADD PUSH1 0x0 KECCAK256 PUSH1 0x4 ADD PUSH1 0x0 PUSH2 0x100 EXP DUP2 SLOAD DUP2 PUSH1 0xFF MUL NOT AND SWAP1 DUP4 PUSH1 0x2 DUP2 GT ISZERO PUSH2 0x543 JUMPI PUSH2 0x542 PUSH2 0xF33 JUMP JUMPDEST JUMPDEST MUL OR SWAP1 SSTORE POP POP JUMP JUMPDEST PUSH1 0x0 PUSH1 0x40 MLOAD DUP1 PUSH1 0xA0 ADD PUSH1 0x40 MSTORE DUP1 DUP7 DUP2 MSTORE PUSH1 0x20 ADD DUP6 PUSH1 0xFF AND DUP2 MSTORE PUSH1 0x20 ADD DUP5 DUP2 MSTORE PUSH1 0x20 ADD DUP4 DUP2 MSTORE PUSH1 0x20 ADD PUSH1 0x0 PUSH1 0x2 DUP2 GT ISZERO PUSH2 0x587 JUMPI PUSH2 0x586 PUSH2 0xF33 JUMP JUMPDEST JUMPDEST DUP2 MSTORE POP SWAP1 POP DUP1 PUSH1 0x3 PUSH1 0x0 CALLER PUSH20 0xFFFFFFFFFFFFFFFFFFFFFFFFFFFFFFFFFFFFFFFF AND PUSH20 0xFFFFFFFFFFFFFFFFFFFFFFFFFFFFFFFFFFFFFFFF AND DUP2 MSTORE PUSH1 0x20 ADD SWAP1 DUP2 MSTORE PUSH1 0x20 ADD PUSH1 0x0 KECCAK256 PUSH1 0x0 DUP3 ADD MLOAD DUP2 PUSH1 0x0 ADD SWAP1 DUP1 MLOAD SWAP1 PUSH1 0x20 ADD SWAP1 PUSH2 0x5E8 SWAP3 SWAP2 SWAP1 PUSH2 0xB13 JUMP JUMPDEST POP PUSH1 0x20 DUP3 ADD MLOAD DUP2 PUSH1 0x1 ADD PUSH1 0x0 PUSH2 0x100 EXP DUP2 SLOAD DUP2 PUSH1 0xFF MUL NOT AND SWAP1 DUP4 PUSH1 0xFF AND MUL OR SWAP1 SSTORE POP PUSH1 0x40 DUP3 ADD MLOAD DUP2 PUSH1 0x2 ADD SSTORE PUSH1 0x60 DUP3 ADD MLOAD DUP2 PUSH1 0x3 ADD SSTORE PUSH1 0x80 DUP3 ADD MLOAD DUP2 PUSH1 0x4 ADD PUSH1 0x0 PUSH2 0x100 EXP DUP2 SLOAD DUP2 PUSH1 0xFF MUL NOT AND SWAP1 DUP4 PUSH1 0x2 DUP2 GT ISZERO PUSH2 0x649 JUMPI PUSH2 0x648 PUSH2 0xF33 JUMP JUMPDEST JUMPDEST MUL OR SWAP1 SSTORE POP SWAP1 POP POP POP POP POP POP POP JUMP JUMPDEST PUSH1 0x60 PUSH1 0x0 DUP1 PUSH1 0x0 DUP1 PUSH1 0x0 PUSH1 0x3 PUSH1 0x0 CALLER PUSH20 0xFFFFFFFFFFFFFFFFFFFFFFFFFFFFFFFFFFFFFFFF AND PUSH20 0xFFFFFFFFFFFFFFFFFFFFFFFFFFFFFFFFFFFFFFFF AND DUP2 MSTORE PUSH1 0x20 ADD SWAP1 DUP2 MSTORE PUSH1 0x20 ADD PUSH1 0x0 KECCAK256 PUSH1 0x40 MLOAD DUP1 PUSH1 0xA0 ADD PUSH1 0x40 MSTORE SWAP1 DUP2 PUSH1 0x0 DUP3 ADD DUP1 SLOAD PUSH2 0x6BC SWAP1 PUSH2 0x1367 JUMP JUMPDEST DUP1 PUSH1 0x1F ADD PUSH1 0x20 DUP1 SWAP2 DIV MUL PUSH1 0x20 ADD PUSH1 0x40 MLOAD SWAP1 DUP2 ADD PUSH1 0x40 MSTORE DUP1 SWAP3 SWAP2 SWAP1 DUP2 DUP2 MSTORE PUSH1 0x20 ADD DUP3 DUP1 SLOAD PUSH2 0x6E8 SWAP1 PUSH2 0x1367 JUMP JUMPDEST DUP1 ISZERO PUSH2 0x735 JUMPI DUP1 PUSH1 0x1F LT PUSH2 0x70A JUMPI PUSH2 0x100 DUP1 DUP4 SLOAD DIV MUL DUP4 MSTORE SWAP2 PUSH1 0x20 ADD SWAP2 PUSH2 0x735 JUMP JUMPDEST DUP3 ADD SWAP2 SWAP1 PUSH1 0x0 MSTORE PUSH1 0x20 PUSH1 0x0 KECCAK256 SWAP1 JUMPDEST DUP2 SLOAD DUP2 MSTORE SWAP1 PUSH1 0x1 ADD SWAP1 PUSH1 0x20 ADD DUP1 DUP4 GT PUSH2 0x718 JUMPI DUP3 SWAP1 SUB PUSH1 0x1F AND DUP3 ADD SWAP2 JUMPDEST POP POP POP POP POP DUP2 MSTORE PUSH1 0x20 ADD PUSH1 0x1 DUP3 ADD PUSH1 0x0 SWAP1 SLOAD SWAP1 PUSH2 0x100 EXP SWAP1 DIV PUSH1 0xFF AND PUSH1 0xFF AND PUSH1 0xFF AND DUP2 MSTORE PUSH1 0x20 ADD PUSH1 0x2 DUP3 ADD SLOAD DUP2 MSTORE PUSH1 0x20 ADD PUSH1 0x3 DUP3 ADD SLOAD DUP2 MSTORE PUSH1 0x20 ADD PUSH1 0x4 DUP3 ADD PUSH1 0x0 SWAP1 SLOAD SWAP1 PUSH2 0x100 EXP SWAP1 DIV PUSH1 0xFF AND PUSH1 0x2 DUP2 GT ISZERO PUSH2 0x794 JUMPI PUSH2 0x793 PUSH2 0xF33 JUMP JUMPDEST JUMPDEST PUSH1 0x2 DUP2 GT ISZERO PUSH2 0x7A6 JUMPI PUSH2 0x7A5 PUSH2 0xF33 JUMP JUMPDEST JUMPDEST DUP2 MSTORE POP POP SWAP1 POP DUP1 PUSH1 0x0 ADD MLOAD DUP2 PUSH1 0x20 ADD MLOAD DUP3 PUSH1 0x40 ADD MLOAD DUP4 PUSH1 0x60 ADD MLOAD DUP5 PUSH1 0x80 ADD MLOAD SWAP6 POP SWAP6 POP SWAP6 POP SWAP6 POP SWAP6 POP POP SWAP1 SWAP2 SWAP3 SWAP4 SWAP5 JUMP JUMPDEST PUSH1 0x0 PUSH1 0x40 MLOAD DUP1 PUSH1 0xA0 ADD PUSH1 0x40 MSTORE DUP1 DUP7 DUP2 MSTORE PUSH1 0x20 ADD DUP6 DUP2 MSTORE PUSH1 0x20 ADD DUP5 PUSH1 0xFF AND DUP2 MSTORE PUSH1 0x20 ADD DUP4 DUP2 MSTORE PUSH1 0x20 ADD PUSH1 0x0 PUSH1 0x2 DUP2 GT ISZERO PUSH2 0x813 JUMPI PUSH2 0x812 PUSH2 0xF33 JUMP JUMPDEST JUMPDEST DUP2 MSTORE POP SWAP1 POP DUP1 PUSH1 0x5 PUSH1 0x0 CALLER PUSH20 0xFFFFFFFFFFFFFFFFFFFFFFFFFFFFFFFFFFFFFFFF AND PUSH20 0xFFFFFFFFFFFFFFFFFFFFFFFFFFFFFFFFFFFFFFFF AND DUP2 MSTORE PUSH1 0x20 ADD SWAP1 DUP2 MSTORE PUSH1 0x20 ADD PUSH1 0x0 KECCAK256 PUSH1 0x0 DUP3 ADD MLOAD DUP2 PUSH1 0x0 ADD SWAP1 DUP1 MLOAD SWAP1 PUSH1 0x20 ADD SWAP1 PUSH2 0x874 SWAP3 SWAP2 SWAP1 PUSH2 0xB13 JUMP JUMPDEST POP PUSH1 0x20 DUP3 ADD MLOAD DUP2 PUSH1 0x1 ADD SWAP1 DUP1 MLOAD SWAP1 PUSH1 0x20 ADD SWAP1 PUSH2 0x891 SWAP3 SWAP2 SWAP1 PUSH2 0xB13 JUMP JUMPDEST POP PUSH1 0x40 DUP3 ADD MLOAD DUP2 PUSH1 0x2 ADD PUSH1 0x0 PUSH2 0x100 EXP DUP2 SLOAD DUP2 PUSH1 0xFF MUL NOT AND SWAP1 DUP4 PUSH1 0xFF AND MUL OR SWAP1 SSTORE POP PUSH1 0x60 DUP3 ADD MLOAD DUP2 PUSH1 0x3 ADD SSTORE PUSH1 0x80 DUP3 ADD MLOAD DUP2 PUSH1 0x4 ADD PUSH1 0x0 PUSH2 0x100 EXP DUP2 SLOAD DUP2 PUSH1 0xFF MUL NOT AND SWAP1 DUP4 PUSH1 0x2 DUP2 GT ISZERO PUSH2 0x8E8 JUMPI PUSH2 0x8E7 PUSH2 0xF33 JUMP JUMPDEST JUMPDEST MUL OR SWAP1 SSTORE POP SWAP1 POP POP PUSH8 0xDE0B6B3A7640000 CALLVALUE EQ PUSH2 0x93A JUMPI PUSH1 0x40 MLOAD PUSH32 0x8C379A000000000000000000000000000000000000000000000000000000000 DUP2 MSTORE PUSH1 0x4 ADD PUSH2 0x931 SWAP1 PUSH2 0x140A JUMP JUMPDEST PUSH1 0x40 MLOAD DUP1 SWAP2 SUB SWAP1 REVERT JUMPDEST PUSH1 0x0 DUP1 SLOAD SWAP1 PUSH2 0x100 EXP SWAP1 DIV PUSH20 0xFFFFFFFFFFFFFFFFFFFFFFFFFFFFFFFFFFFFFFFF AND PUSH20 0xFFFFFFFFFFFFFFFFFFFFFFFFFFFFFFFFFFFFFFFF AND PUSH2 0x8FC CALLVALUE SWAP1 DUP2 ISZERO MUL SWAP1 PUSH1 0x40 MLOAD PUSH1 0x0 PUSH1 0x40 MLOAD DUP1 DUP4 SUB DUP2 DUP6 DUP9 DUP9 CALL SWAP4 POP POP POP POP ISZERO DUP1 ISZERO PUSH2 0x9A0 JUMPI RETURNDATASIZE PUSH1 0x0 DUP1 RETURNDATACOPY RETURNDATASIZE PUSH1 0x0 REVERT JUMPDEST POP POP POP POP POP POP JUMP JUMPDEST PUSH1 0x1 PUSH1 0x2 DUP2 GT ISZERO PUSH2 0x9BC JUMPI PUSH2 0x9BB PUSH2 0xF33 JUMP JUMPDEST JUMPDEST PUSH1 0x3 PUSH1 0x0 CALLER PUSH20 0xFFFFFFFFFFFFFFFFFFFFFFFFFFFFFFFFFFFFFFFF AND PUSH20 0xFFFFFFFFFFFFFFFFFFFFFFFFFFFFFFFFFFFFFFFF AND DUP2 MSTORE PUSH1 0x20 ADD SWAP1 DUP2 MSTORE PUSH1 0x20 ADD PUSH1 0x0 KECCAK256 PUSH1 0x4 ADD PUSH1 0x0 SWAP1 SLOAD SWAP1 PUSH2 0x100 EXP SWAP1 DIV PUSH1 0xFF AND PUSH1 0x2 DUP2 GT ISZERO PUSH2 0xA1E JUMPI PUSH2 0xA1D PUSH2 0xF33 JUMP JUMPDEST JUMPDEST EQ PUSH2 0xA5E JUMPI PUSH1 0x40 MLOAD PUSH32 0x8C379A000000000000000000000000000000000000000000000000000000000 DUP2 MSTORE PUSH1 0x4 ADD PUSH2 0xA55 SWAP1 PUSH2 0x149C JUMP JUMPDEST PUSH1 0x40 MLOAD DUP1 SWAP2 SUB SWAP1 REVERT JUMPDEST PUSH1 0x4 PUSH1 0x0 DUP3 PUSH1 0xFF AND PUSH1 0xFF AND DUP2 MSTORE PUSH1 0x20 ADD SWAP1 DUP2 MSTORE PUSH1 0x20 ADD PUSH1 0x0 KECCAK256 PUSH1 0x0 DUP2 SLOAD DUP1 SWAP3 SWAP2 SWAP1 PUSH2 0xA88 SWAP1 PUSH2 0x14EB JUMP JUMPDEST SWAP2 SWAP1 POP SSTORE POP PUSH1 0x6 PUSH1 0x0 DUP2 SLOAD DUP1 SWAP3 SWAP2 SWAP1 PUSH2 0xAA0 SWAP1 PUSH2 0x14EB JUMP JUMPDEST SWAP2 SWAP1 POP SSTORE POP PUSH1 0x2 PUSH1 0x3 PUSH1 0x0 CALLER PUSH20 0xFFFFFFFFFFFFFFFFFFFFFFFFFFFFFFFFFFFFFFFF AND PUSH20 0xFFFFFFFFFFFFFFFFFFFFFFFFFFFFFFFFFFFFFFFF AND DUP2 MSTORE PUSH1 0x20 ADD SWAP1 DUP2 MSTORE PUSH1 0x20 ADD PUSH1 0x0 KECCAK256 PUSH1 0x4 ADD PUSH1 0x0 PUSH2 0x100 EXP DUP2 SLOAD DUP2 PUSH1 0xFF MUL NOT AND SWAP1 DUP4 PUSH1 0x2 DUP2 GT ISZERO PUSH2 0xB0B JUMPI PUSH2 0xB0A PUSH2 0xF33 JUMP JUMPDEST JUMPDEST MUL OR SWAP1 SSTORE POP POP JUMP JUMPDEST DUP3 DUP1 SLOAD PUSH2 0xB1F SWAP1 PUSH2 0x1367 JUMP JUMPDEST SWAP1 PUSH1 0x0 MSTORE PUSH1 0x20 PUSH1 0x0 KECCAK256 SWAP1 PUSH1 0x1F ADD PUSH1 0x20 SWAP1 DIV DUP2 ADD SWAP3 DUP3 PUSH2 0xB41 JUMPI PUSH1 0x0 DUP6 SSTORE PUSH2 0xB88 JUMP JUMPDEST DUP3 PUSH1 0x1F LT PUSH2 0xB5A JUMPI DUP1 MLOAD PUSH1 0xFF NOT AND DUP4 DUP1 ADD OR DUP6 SSTORE PUSH2 0xB88 JUMP JUMPDEST DUP3 DUP1 ADD PUSH1 0x1 ADD DUP6 SSTORE DUP3 ISZERO PUSH2 0xB88 JUMPI SWAP2 DUP3 ADD JUMPDEST DUP3 DUP2 GT ISZERO PUSH2 0xB87 JUMPI DUP3 MLOAD DUP3 SSTORE SWAP2 PUSH1 0x20 ADD SWAP2 SWAP1 PUSH1 0x1 ADD SWAP1 PUSH2 0xB6C JUMP JUMPDEST JUMPDEST POP SWAP1 POP PUSH2 0xB95 SWAP2 SWAP1 PUSH2 0xB99 JUMP JUMPDEST POP SWAP1 JUMP JUMPDEST JUMPDEST DUP1 DUP3 GT ISZERO PUSH2 0xBB2 JUMPI PUSH1 0x0 DUP2 PUSH1 0x0 SWAP1 SSTORE POP PUSH1 0x1 ADD PUSH2 0xB9A JUMP JUMPDEST POP SWAP1 JUMP JUMPDEST PUSH1 0x0 PUSH1 0x40 MLOAD SWAP1 POP SWAP1 JUMP JUMPDEST PUSH1 0x0 DUP1 REVERT JUMPDEST PUSH1 0x0 DUP1 REVERT JUMPDEST PUSH1 0x0 PUSH20 0xFFFFFFFFFFFFFFFFFFFFFFFFFFFFFFFFFFFFFFFF DUP3 AND SWAP1 POP SWAP2 SWAP1 POP JUMP JUMPDEST PUSH1 0x0 PUSH2 0xBF5 DUP3 PUSH2 0xBCA JUMP JUMPDEST SWAP1 POP SWAP2 SWAP1 POP JUMP JUMPDEST PUSH2 0xC05 DUP2 PUSH2 0xBEA JUMP JUMPDEST DUP2 EQ PUSH2 0xC10 JUMPI PUSH1 0x0 DUP1 REVERT JUMPDEST POP JUMP JUMPDEST PUSH1 0x0 DUP2 CALLDATALOAD SWAP1 POP PUSH2 0xC22 DUP2 PUSH2 0xBFC JUMP JUMPDEST SWAP3 SWAP2 POP POP JUMP JUMPDEST PUSH1 0x0 PUSH1 0x20 DUP3 DUP5 SUB SLT ISZERO PUSH2 0xC3E JUMPI PUSH2 0xC3D PUSH2 0xBC0 JUMP JUMPDEST JUMPDEST PUSH1 0x0 PUSH2 0xC4C DUP5 DUP3 DUP6 ADD PUSH2 0xC13 JUMP JUMPDEST SWAP2 POP POP SWAP3 SWAP2 POP POP JUMP JUMPDEST PUSH1 0x0 DUP1 REVERT JUMPDEST PUSH1 0x0 DUP1 REVERT JUMPDEST PUSH1 0x0 PUSH1 0x1F NOT PUSH1 0x1F DUP4 ADD AND SWAP1 POP SWAP2 SWAP1 POP JUMP JUMPDEST PUSH32 0x4E487B7100000000000000000000000000000000000000000000000000000000 PUSH1 0x0 MSTORE PUSH1 0x41 PUSH1 0x4 MSTORE PUSH1 0x24 PUSH1 0x0 REVERT JUMPDEST PUSH2 0xCA8 DUP3 PUSH2 0xC5F JUMP JUMPDEST DUP2 ADD DUP2 DUP2 LT PUSH8 0xFFFFFFFFFFFFFFFF DUP3 GT OR ISZERO PUSH2 0xCC7 JUMPI PUSH2 0xCC6 PUSH2 0xC70 JUMP JUMPDEST JUMPDEST DUP1 PUSH1 0x40 MSTORE POP POP POP JUMP JUMPDEST PUSH1 0x0 PUSH2 0xCDA PUSH2 0xBB6 JUMP JUMPDEST SWAP1 POP PUSH2 0xCE6 DUP3 DUP3 PUSH2 0xC9F JUMP JUMPDEST SWAP2 SWAP1 POP JUMP JUMPDEST PUSH1 0x0 PUSH8 0xFFFFFFFFFFFFFFFF DUP3 GT ISZERO PUSH2 0xD06 JUMPI PUSH2 0xD05 PUSH2 0xC70 JUMP JUMPDEST JUMPDEST PUSH2 0xD0F DUP3 PUSH2 0xC5F JUMP JUMPDEST SWAP1 POP PUSH1 0x20 DUP2 ADD SWAP1 POP SWAP2 SWAP1 POP JUMP JUMPDEST DUP3 DUP2 DUP4 CALLDATACOPY PUSH1 0x0 DUP4 DUP4 ADD MSTORE POP POP POP JUMP JUMPDEST PUSH1 0x0 PUSH2 0xD3E PUSH2 0xD39 DUP5 PUSH2 0xCEB JUMP JUMPDEST PUSH2 0xCD0 JUMP JUMPDEST SWAP1 POP DUP3 DUP2 MSTORE PUSH1 0x20 DUP2 ADD DUP5 DUP5 DUP5 ADD GT ISZERO PUSH2 0xD5A JUMPI PUSH2 0xD59 PUSH2 0xC5A JUMP JUMPDEST JUMPDEST PUSH2 0xD65 DUP5 DUP3 DUP6 PUSH2 0xD1C JUMP JUMPDEST POP SWAP4 SWAP3 POP POP POP JUMP JUMPDEST PUSH1 0x0 DUP3 PUSH1 0x1F DUP4 ADD SLT PUSH2 0xD82 JUMPI PUSH2 0xD81 PUSH2 0xC55 JUMP JUMPDEST JUMPDEST DUP2 CALLDATALOAD PUSH2 0xD92 DUP5 DUP3 PUSH1 0x20 DUP7 ADD PUSH2 0xD2B JUMP JUMPDEST SWAP2 POP POP SWAP3 SWAP2 POP POP JUMP JUMPDEST PUSH1 0x0 PUSH1 0xFF DUP3 AND SWAP1 POP SWAP2 SWAP1 POP JUMP JUMPDEST PUSH2 0xDB1 DUP2 PUSH2 0xD9B JUMP JUMPDEST DUP2 EQ PUSH2 0xDBC JUMPI PUSH1 0x0 DUP1 REVERT JUMPDEST POP JUMP JUMPDEST PUSH1 0x0 DUP2 CALLDATALOAD SWAP1 POP PUSH2 0xDCE DUP2 PUSH2 0xDA8 JUMP JUMPDEST SWAP3 SWAP2 POP POP JUMP JUMPDEST PUSH1 0x0 DUP2 SWAP1 POP SWAP2 SWAP1 POP JUMP JUMPDEST PUSH2 0xDE7 DUP2 PUSH2 0xDD4 JUMP JUMPDEST DUP2 EQ PUSH2 0xDF2 JUMPI PUSH1 0x0 DUP1 REVERT JUMPDEST POP JUMP JUMPDEST PUSH1 0x0 DUP2 CALLDATALOAD SWAP1 POP PUSH2 0xE04 DUP2 PUSH2 0xDDE JUMP JUMPDEST SWAP3 SWAP2 POP POP JUMP JUMPDEST PUSH1 0x0 DUP1 PUSH1 0x0 DUP1 PUSH1 0x80 DUP6 DUP8 SUB SLT ISZERO PUSH2 0xE24 JUMPI PUSH2 0xE23 PUSH2 0xBC0 JUMP JUMPDEST JUMPDEST PUSH1 0x0 DUP6 ADD CALLDATALOAD PUSH8 0xFFFFFFFFFFFFFFFF DUP2 GT ISZERO PUSH2 0xE42 JUMPI PUSH2 0xE41 PUSH2 0xBC5 JUMP JUMPDEST JUMPDEST PUSH2 0xE4E DUP8 DUP3 DUP9 ADD PUSH2 0xD6D JUMP JUMPDEST SWAP5 POP POP PUSH1 0x20 PUSH2 0xE5F DUP8 DUP3 DUP9 ADD PUSH2 0xDBF JUMP JUMPDEST SWAP4 POP POP PUSH1 0x40 PUSH2 0xE70 DUP8 DUP3 DUP9 ADD PUSH2 0xDF5 JUMP JUMPDEST SWAP3 POP POP PUSH1 0x60 PUSH2 0xE81 DUP8 DUP3 DUP9 ADD PUSH2 0xDF5 JUMP JUMPDEST SWAP2 POP POP SWAP3 SWAP6 SWAP2 SWAP5 POP SWAP3 POP JUMP JUMPDEST PUSH1 0x0 DUP2 MLOAD SWAP1 POP SWAP2 SWAP1 POP JUMP JUMPDEST PUSH1 0x0 DUP3 DUP3 MSTORE PUSH1 0x20 DUP3 ADD SWAP1 POP SWAP3 SWAP2 POP POP JUMP JUMPDEST PUSH1 0x0 JUMPDEST DUP4 DUP2 LT ISZERO PUSH2 0xEC7 JUMPI DUP1 DUP3 ADD MLOAD DUP2 DUP5 ADD MSTORE PUSH1 0x20 DUP2 ADD SWAP1 POP PUSH2 0xEAC JUMP JUMPDEST DUP4 DUP2 GT ISZERO PUSH2 0xED6 JUMPI PUSH1 0x0 DUP5 DUP5 ADD MSTORE JUMPDEST POP POP POP POP JUMP JUMPDEST PUSH1 0x0 PUSH2 0xEE7 DUP3 PUSH2 0xE8D JUMP JUMPDEST PUSH2 0xEF1 DUP2 DUP6 PUSH2 0xE98 JUMP JUMPDEST SWAP4 POP PUSH2 0xF01 DUP2 DUP6 PUSH1 0x20 DUP7 ADD PUSH2 0xEA9 JUMP JUMPDEST PUSH2 0xF0A DUP2 PUSH2 0xC5F JUMP JUMPDEST DUP5 ADD SWAP2 POP POP SWAP3 SWAP2 POP POP JUMP JUMPDEST PUSH2 0xF1E DUP2 PUSH2 0xD9B JUMP JUMPDEST DUP3 MSTORE POP POP JUMP JUMPDEST PUSH2 0xF2D DUP2 PUSH2 0xDD4 JUMP JUMPDEST DUP3 MSTORE POP POP JUMP JUMPDEST PUSH32 0x4E487B7100000000000000000000000000000000000000000000000000000000 PUSH1 0x0 MSTORE PUSH1 0x21 PUSH1 0x4 MSTORE PUSH1 0x24 PUSH1 0x0 REVERT JUMPDEST PUSH1 0x3 DUP2 LT PUSH2 0xF73 JUMPI PUSH2 0xF72 PUSH2 0xF33 JUMP JUMPDEST JUMPDEST POP JUMP JUMPDEST PUSH1 0x0 DUP2 SWAP1 POP PUSH2 0xF84 DUP3 PUSH2 0xF62 JUMP JUMPDEST SWAP2 SWAP1 POP JUMP JUMPDEST PUSH1 0x0 PUSH2 0xF94 DUP3 PUSH2 0xF76 JUMP JUMPDEST SWAP1 POP SWAP2 SWAP1 POP JUMP JUMPDEST PUSH2 0xFA4 DUP2 PUSH2 0xF89 JUMP JUMPDEST DUP3 MSTORE POP POP JUMP JUMPDEST PUSH1 0x0 PUSH1 0xA0 DUP3 ADD SWAP1 POP DUP2 DUP2 SUB PUSH1 0x0 DUP4 ADD MSTORE PUSH2 0xFC4 DUP2 DUP9 PUSH2 0xEDC JUMP JUMPDEST SWAP1 POP PUSH2 0xFD3 PUSH1 0x20 DUP4 ADD DUP8 PUSH2 0xF15 JUMP JUMPDEST PUSH2 0xFE0 PUSH1 0x40 DUP4 ADD DUP7 PUSH2 0xF24 JUMP JUMPDEST PUSH2 0xFED PUSH1 0x60 DUP4 ADD DUP6 PUSH2 0xF24 JUMP JUMPDEST PUSH2 0xFFA PUSH1 0x80 DUP4 ADD DUP5 PUSH2 0xF9B JUMP JUMPDEST SWAP7 SWAP6 POP POP POP POP POP POP JUMP JUMPDEST PUSH1 0x0 DUP1 PUSH1 0x0 DUP1 PUSH1 0x80 DUP6 DUP8 SUB SLT ISZERO PUSH2 0x101E JUMPI PUSH2 0x101D PUSH2 0xBC0 JUMP JUMPDEST JUMPDEST PUSH1 0x0 DUP6 ADD CALLDATALOAD PUSH8 0xFFFFFFFFFFFFFFFF DUP2 GT ISZERO PUSH2 0x103C JUMPI PUSH2 0x103B PUSH2 0xBC5 JUMP JUMPDEST JUMPDEST PUSH2 0x1048 DUP8 DUP3 DUP9 ADD PUSH2 0xD6D JUMP JUMPDEST SWAP5 POP POP PUSH1 0x20 DUP6 ADD CALLDATALOAD PUSH8 0xFFFFFFFFFFFFFFFF DUP2 GT ISZERO PUSH2 0x1069 JUMPI PUSH2 0x1068 PUSH2 0xBC5 JUMP JUMPDEST JUMPDEST PUSH2 0x1075 DUP8 DUP3 DUP9 ADD PUSH2 0xD6D JUMP JUMPDEST SWAP4 POP POP PUSH1 0x40 PUSH2 0x1086 DUP8 DUP3 DUP9 ADD PUSH2 0xDBF JUMP JUMPDEST SWAP3 POP POP PUSH1 0x60 PUSH2 0x1097 DUP8 DUP3 DUP9 ADD PUSH2 0xDF5 JUMP JUMPDEST SWAP2 POP POP SWAP3 SWAP6 SWAP2 SWAP5 POP SWAP3 POP JUMP JUMPDEST PUSH1 0x0 PUSH1 0x20 DUP3 DUP5 SUB SLT ISZERO PUSH2 0x10B9 JUMPI PUSH2 0x10B8 PUSH2 0xBC0 JUMP JUMPDEST JUMPDEST PUSH1 0x0 PUSH2 0x10C7 DUP5 DUP3 DUP6 ADD PUSH2 0xDBF JUMP JUMPDEST SWAP2 POP POP SWAP3 SWAP2 POP POP JUMP JUMPDEST PUSH32 0x43616E646964617465206E6F7420726567697374657265640000000000000000 PUSH1 0x0 DUP3 ADD MSTORE POP JUMP JUMPDEST PUSH1 0x0 PUSH2 0x1106 PUSH1 0x18 DUP4 PUSH2 0xE98 JUMP JUMPDEST SWAP2 POP PUSH2 0x1111 DUP3 PUSH2 0x10D0 JUMP JUMPDEST PUSH1 0x20 DUP3 ADD SWAP1 POP SWAP2 SWAP1 POP JUMP JUMPDEST PUSH1 0x0 PUSH1 0x20 DUP3 ADD SWAP1 POP DUP2 DUP2 SUB PUSH1 0x0 DUP4 ADD MSTORE PUSH2 0x1135 DUP2 PUSH2 0x10F9 JUMP JUMPDEST SWAP1 POP SWAP2 SWAP1 POP JUMP JUMPDEST PUSH32 0x43616E646964617465206973206E6F7420656C696769626C6500000000000000 PUSH1 0x0 DUP3 ADD MSTORE POP JUMP JUMPDEST PUSH1 0x0 PUSH2 0x1172 PUSH1 0x19 DUP4 PUSH2 0xE98 JUMP JUMPDEST SWAP2 POP PUSH2 0x117D DUP3 PUSH2 0x113C JUMP JUMPDEST PUSH1 0x20 DUP3 ADD SWAP1 POP SWAP2 SWAP1 POP JUMP JUMPDEST PUSH1 0x0 PUSH1 0x20 DUP3 ADD SWAP1 POP DUP2 DUP2 SUB PUSH1 0x0 DUP4 ADD MSTORE PUSH2 0x11A1 DUP2 PUSH2 0x1165 JUMP JUMPDEST SWAP1 POP SWAP2 SWAP1 POP JUMP JUMPDEST PUSH32 0x4F6E6C792061646D696E6973747261746F727320686176652074686520616363 PUSH1 0x0 DUP3 ADD MSTORE PUSH32 0x65737320746F207468697320616374696F6E0000000000000000000000000000 PUSH1 0x20 DUP3 ADD MSTORE POP JUMP JUMPDEST PUSH1 0x0 PUSH2 0x1204 PUSH1 0x32 DUP4 PUSH2 0xE98 JUMP JUMPDEST SWAP2 POP PUSH2 0x120F DUP3 PUSH2 0x11A8 JUMP JUMPDEST PUSH1 0x40 DUP3 ADD SWAP1 POP SWAP2 SWAP1 POP JUMP JUMPDEST PUSH1 0x0 PUSH1 0x20 DUP3 ADD SWAP1 POP DUP2 DUP2 SUB PUSH1 0x0 DUP4 ADD MSTORE PUSH2 0x1233 DUP2 PUSH2 0x11F7 JUMP JUMPDEST SWAP1 POP SWAP2 SWAP1 POP JUMP JUMPDEST PUSH32 0x4569746865722074686520766F746572206973206E6F74207265676973746572 PUSH1 0x0 DUP3 ADD MSTORE PUSH32 0x6564206F7220616C726561647920617070726F76656400000000000000000000 PUSH1 0x20 DUP3 ADD MSTORE POP JUMP JUMPDEST PUSH1 0x0 PUSH2 0x1296 PUSH1 0x36 DUP4 PUSH2 0xE98 JUMP JUMPDEST SWAP2 POP PUSH2 0x12A1 DUP3 PUSH2 0x123A JUMP JUMPDEST PUSH1 0x40 DUP3 ADD SWAP1 POP SWAP2 SWAP1 POP JUMP JUMPDEST PUSH1 0x0 PUSH1 0x20 DUP3 ADD SWAP1 POP DUP2 DUP2 SUB PUSH1 0x0 DUP4 ADD MSTORE PUSH2 0x12C5 DUP2 PUSH2 0x1289 JUMP JUMPDEST SWAP1 POP SWAP2 SWAP1 POP JUMP JUMPDEST PUSH32 0x4E6F7420616E20656C696769626C6520766F7465720000000000000000000000 PUSH1 0x0 DUP3 ADD MSTORE POP JUMP JUMPDEST PUSH1 0x0 PUSH2 0x1302 PUSH1 0x15 DUP4 PUSH2 0xE98 JUMP JUMPDEST SWAP2 POP PUSH2 0x130D DUP3 PUSH2 0x12CC JUMP JUMPDEST PUSH1 0x20 DUP3 ADD SWAP1 POP SWAP2 SWAP1 POP JUMP JUMPDEST PUSH1 0x0 PUSH1 0x20 DUP3 ADD SWAP1 POP DUP2 DUP2 SUB PUSH1 0x0 DUP4 ADD MSTORE PUSH2 0x1331 DUP2 PUSH2 0x12F5 JUMP JUMPDEST SWAP1 POP SWAP2 SWAP1 POP JUMP JUMPDEST PUSH32 0x4E487B7100000000000000000000000000000000000000000000000000000000 PUSH1 0x0 MSTORE PUSH1 0x22 PUSH1 0x4 MSTORE PUSH1 0x24 PUSH1 0x0 REVERT JUMPDEST PUSH1 0x0 PUSH1 0x2 DUP3 DIV SWAP1 POP PUSH1 0x1 DUP3 AND DUP1 PUSH2 0x137F JUMPI PUSH1 0x7F DUP3 AND SWAP2 POP JUMPDEST PUSH1 0x20 DUP3 LT DUP2 SUB PUSH2 0x1392 JUMPI PUSH2 0x1391 PUSH2 0x1338 JUMP JUMPDEST JUMPDEST POP SWAP2 SWAP1 POP JUMP JUMPDEST PUSH32 0x416D6F756E742073686F756C642062652065786163746C7920657175616C2074 PUSH1 0x0 DUP3 ADD MSTORE PUSH32 0x6F20312045544845520000000000000000000000000000000000000000000000 PUSH1 0x20 DUP3 ADD MSTORE POP JUMP JUMPDEST PUSH1 0x0 PUSH2 0x13F4 PUSH1 0x29 DUP4 PUSH2 0xE98 JUMP JUMPDEST SWAP2 POP PUSH2 0x13FF DUP3 PUSH2 0x1398 JUMP JUMPDEST PUSH1 0x40 DUP3 ADD SWAP1 POP SWAP2 SWAP1 POP JUMP JUMPDEST PUSH1 0x0 PUSH1 0x20 DUP3 ADD SWAP1 POP DUP2 DUP2 SUB PUSH1 0x0 DUP4 ADD MSTORE PUSH2 0x1423 DUP2 PUSH2 0x13E7 JUMP JUMPDEST SWAP1 POP SWAP2 SWAP1 POP JUMP JUMPDEST PUSH32 0x45697468657220796F75206E6F742072656769737465726564206F7220616C72 PUSH1 0x0 DUP3 ADD MSTORE PUSH32 0x6561647920766F74656400000000000000000000000000000000000000000000 PUSH1 0x20 DUP3 ADD MSTORE POP JUMP JUMPDEST PUSH1 0x0 PUSH2 0x1486 PUSH1 0x2A DUP4 PUSH2 0xE98 JUMP JUMPDEST SWAP2 POP PUSH2 0x1491 DUP3 PUSH2 0x142A JUMP JUMPDEST PUSH1 0x40 DUP3 ADD SWAP1 POP SWAP2 SWAP1 POP JUMP JUMPDEST PUSH1 0x0 PUSH1 0x20 DUP3 ADD SWAP1 POP DUP2 DUP2 SUB PUSH1 0x0 DUP4 ADD MSTORE PUSH2 0x14B5 DUP2 PUSH2 0x1479 JUMP JUMPDEST SWAP1 POP SWAP2 SWAP1 POP JUMP JUMPDEST PUSH32 0x4E487B7100000000000000000000000000000000000000000000000000000000 PUSH1 0x0 MSTORE PUSH1 0x11 PUSH1 0x4 MSTORE PUSH1 0x24 PUSH1 0x0 REVERT JUMPDEST PUSH1 0x0 PUSH2 0x14F6 DUP3 PUSH2 0xDD4 JUMP JUMPDEST SWAP2 POP PUSH32 0xFFFFFFFFFFFFFFFFFFFFFFFFFFFFFFFFFFFFFFFFFFFFFFFFFFFFFFFFFFFFFFFF DUP3 SUB PUSH2 0x1528 JUMPI PUSH2 0x1527 PUSH2 0x14BC JUMP JUMPDEST JUMPDEST PUSH1 0x1 DUP3 ADD SWAP1 POP SWAP2 SWAP1 POP JUMP INVALID LOG2 PUSH5 0x6970667358 0x22 SLT KECCAK256 CALL JUMPDEST SAR 0xC 0xAA BLOCKHASH REVERT 0xDE LOG2 DUP7 EXP SMOD DUP16 JUMPI LOG2 PUSH8 0x43329DCEDFD0F70E 0xB9 COINBASE 0xC7 0xA9 ORIGIN 0xBF 0xEB 0xDC PUSH5 0x736F6C6343 STOP ADDMOD 0xD STOP CALLER LOG2 PUSH5 0x6970667358 0x22 SLT KECCAK256 PUSH31 0x9A45DCA02960562EC65B30F14D933F876BEBA2CB59D9A304C73B2932A41BEF PUSH5 0x736F6C6343 STOP ADDMOD 0xD STOP CALLER "},"gasEstimates":{"creation":{"codeDepositCost":"1856400","executionCost":"1962","totalCost":"1858362"},"external":{"createElection(string,uint8,uint8,address)":"infinite","deployedElections(uint256)":"infinite","getDeployedElections()":"infinite"}},"methodIdentifiers":{"createElection(string,uint8,uint8,address)":"3101b0a8","deployedElections(uint256)":"f18b4f8e","getDeployedElections()":"ca306594"}},"storageLayout":{"storage":[{"astId":5,"contract":"VotingSystem.sol:VotingFactory","label":"deployedElections","offset":0,"slot":"0","type":"t_array(t_contract(VotingSystem)389)dyn_storage"}],"types":{"t_array(t_contract(VotingSystem)389)dyn_storage":{"base":"t_contract(VotingSystem)389","encoding":"dynamic_array","label":"contract VotingSystem[]","numberOfBytes":"32"},"t_contract(VotingSystem)389":{"encoding":"inplace","label":"contract VotingSystem","numberOfBytes":"20"}}},"userdoc":{"kind":"user","methods":{},"version":1}}